:100000000C94871E0C94B81E0C94B81E0C94B81E49
:100010000C94B81E0C94B81E0C94B81E0C94B81E08
:100020000C94B81E0C94B81E0C94B81E0C94B81EF8
:100030000C94B81E0C94B81E0C94B81E0C94B81EE8
:100040000C94B81E0C94237F0C94B81E0C94B81E0C
:100050000C94B81E0C94B81E0D94E1360C943F9786
:100060000C94B81E0C94BE3F0C94B43F0C94B81E74
:100070000C94B81E0C94B81E0C94B81E0C94B81EA8
:100080000C948C370C94B81E0C94B81E0C94B81EAB
:100090000C94B81E0C94B81E0C94B81E0C94B81E88
:1000A0000C94B81E0C94B81E0C945E370C94B81EB9
:1000B0000C94B81E0C94B81E0C94B81E0C94B81E68
:1000C0000C94B81E0C94B81E0C94B81E0C94B81E58
:1000D0000C94B81E0C94B81E0C94B81E0C94B81E48
:1000E0000C94B81EF43F064018402940314064404B
:1000F0003540644039403D406440414045404940BE
:10010000524064405D4030439F41D8416C43D841E8
:10011000D841D841D841D841D841D841D841D84117
:10012000D841D841D841D841D841D841D841D84107
:10013000D841D841D841D841D841D841D841D841F7
:10014000D8416643D841D841D841D841D841D84157
:10015000D841D8413F43D841D841D841D841D8416E
:10016000D841D841D841D841D8418343D541B76B14
:100170009A6B9D6BBA6BA06BA36BA66BB26BA96BF2
:10018000C56BAC6BAF6B7B01DD0133011F018F02CF
:100190005F028B01A502110117021B013B02B30193
:1001A000DB015F02470275014502610291012F01E7
:1001B0009102390119028302C7017F0121018F01D8
:1001C000FF015301A3021902DF01D101C102084A54
:1001D000D73B3BCE016E84BCBFFDC12F3D6C74315B
:1001E0009ABD56833DDA3D00C77F11BED9E4BB4CB2
:1001F0003E916BAAAABE000000803F05A84CCDB27C
:10020000D44EB93836A9020C50B9918688083CA65C
:10021000AAAA2ABE000000803F000C948ED60C943F
:1002200086680D94563A0C9469DC0C9444DE0C9468
:10023000B26B0C947A6F0D945E3A0C9474DE0D944C
:100240003B3A0D94873C0C9460C10C943A570C9443
:100250000BBE0C948FDE0C94D8680C9488D60D9449
:100260004F3C0C94B84A0D94373A0C94DF4A0C94E6
:1002700092680D94633C0C94AB690C94A2680C9446
:1002800013D50C949F410C949A6B0C949BC00C94C6
:1002900039400C9418400D9480240C9438DE0C9452
:1002A0009A680C9451570D94AA3C0C9406400C94F7
:1002B0003EDE0C94B3680C945A5C0C940C570C946E
:1002C0008BDC0C94536D0C947A6B0C942F410C9432
:1002D0000FD50D94BA280C94D8410C9465C00C9499
:1002E000EA6B0D94A8280C94A36B0D94763A0C94A9
:1002F00031400D94EF470D94453A0C948CD60D94F3
:100300007D3C0C94BA6B0C9490D60C94EDC00C947C
:100310005D400D9429480D944C3A0C9423570D944C
:10032000913C0D944A3C0D94EC240C94D3C30C9452
:100330001ADE0C94A96B0C941FBE0C943F430C94D2
:10034000C76B0C94B54A0C94A0E30C9482DC0C941B
:10035000B76B0D94B4280C94006C0C9496680C94B4
:10036000F9D30C94C56B0D94683A0C94ADDE0D94E2
:10037000B6240C94F43F0C94A6680C946AC00C94B8
:10038000AADC0C946C430C9450DE0D948B470D94B6
:10039000753C0C9437DC0C94C3620C9450DC0D94C7
:1003A000D1240D94C83C0C94AC6B0C9464400C9418
:1003B000B0680C94F5560D946C3A0D94483A0D942F
:1003C000BE3C0C945CD80C94414B0C943D400C9476
:1003D00045400C9420410C946FC00C94F8DB0D94B4
:1003E0009E280C948FC00C949D6B0C9465DE0C942D
:1003F0008A680C9495C00C94A06B0C941ABE0D9452
:100400009B3C0C9468C10C94A1C00C94046C0C949B
:10041000E1570C9430430D9407250C943A730C94D7
:10042000E3970C947FDB0C94AF6B0C948AD60D94FD
:100430005A3A0D94DC3C0C94F56B0D949C2A0C9468
:1004400083DE0C94EF620D947A470C947CE10C945B
:10045000CADB0C94B7970C94B44A0C9470660C9455
:100460004C6C0C94A5DC0C9482680C949E680C94E3
:10047000DE680D942E1D0D94643A0D945A280C9448
:1004800089C00D9419250C9462570D947A3A0D94F5
:10049000723A0C94536C0C9411D50C94B1DB0D94FE
:1004A000F1580C946E6B0C9426640C9410BE0C9452
:1004B00026DE0D94AE5B0C942CDE0C9415D50D94B9
:1004C0007F3A0D94453C0C9466430C94BCDE0C942E
:1004D00017410C9449400C944ADE0C940BDC0C94AC
:1004E0000CC10C94ACC00C948E680C9417D50C9471
:1004F00015BE0D94E2300D9489260C9432DE0C94D6
:1005000014410D9416140D946D3C0D940B590C94DC
:1005100089970C9452400C948D630C940F450D9464
:10052000413A0D94593C0C9441400C9424DC0C94B9
:10053000AFE30C94A2E00C94E5440C9420DE0C9400
:10054000AA680D9472240D94B43C0D94503A0C9406
:1005500014DE0C94E5720C9426710C94DD570C9407
:1005600090600C94FF640C94A66B0C9436730C94FE
:10057000D2680D948F470C9498DB0C9483430C94B1
:10058000D6620D94D23C0C94BF680C9456DE0C9449
:1005900029400C94AD680C946BC20C94D5410C941A
:1005A00013970D949B240C9435400C94026C0C947E
:1005B0009EDE0C94E5DB0C949ADC4E414E494E498C
:1005C0005459494E46CDCCCC3D0AD7233C17B7D120
:1005D0003877CC2B329595E6241FB14F0A000020C6
:1005E000410000C84200401C4620BCBE4CCA1B0E45
:1005F0005AAEC59D7400407A10F35A00A0724E188E
:10060000090010A5D4E80000E87648170000E40BC4
:1006100054020000CA9A3B000000E1F5050000808A
:10062000969800000040420F000000A086010000E4
:1006300000102700000000E8030000000064000034
:100640000000000A00000000000100000000002C73
:1006500076D888DC674F0823DFC1DFAE59E1B1B738
:1006600096E5E3E453C63AE651997696E8E6C28405
:1006700026EB898C9B62ED407C6FFCEFBC9C9F401D
:10068000F2BAA56FA5F490055A2AF75C936B6CF942
:10069000676DC11BFCE0E40D47FEF520E6B500D018
:1006A000ED902E0300943577050080841E0800002D
:1006B000204E0A000000C80C333333330F986E12FB
:1006C000831141EF8D2114893BE65516CFFEE6DB01
:1006D00018D1844B381BF77C1D901DA4BBE424204B
:1006E0003284725E228100C9F124ECA1E53D2743EA
:1006F0004F4D4D554E49434154494F4E0044525978
:1007000052554E004552524F5253004543484F00F8
:1007100047322F47332062616420706172616D65DA
:10072000746572730A00536C6565702E2E2E005A24
:100730002050726F62652050617374204265640AB4
:10074000005A2050726F62652050617374204265B8
:1007500064004D3131372050726F626520666169E7
:100760006C65642E205265776970696E672E0A4742
:1007700032380A4731322050302053313220543041
:100780000070726F62655F726577697065004732ED
:1007900039205265747279696E67004D31313720A6
:1007A000426564206C6576656C696E672066616978
:1007B0006C65642E0A4730205A31300A4D33303090
:1007C0002050323520533838300A4D3330302050E5
:1007D00035302053300A4D333030205032352053DD
:1007E0003838300A4D333030205035302053300AFD
:1007F0004D3330302050323520533838300A4D33A5
:100800003030205035302053300A473420533100E7
:1008100070726F62655F6661696C6564004D31314D
:100820003720426564206C6576656C696E6720646C
:100830006F6E652E004D65736820706F696E742051
:100840006F7574206F662072616E67650A004D30A7
:100850002053746F70004D312053746F7000436CDF
:1008600069636B20746F20526573756D652E2E2E33
:10087000004E6F204D6F76652E00456E64206669D0
:100880006C65206C6973740A00426567696E206646
:10089000696C65206C6973740A004E6F206D656425
:1008A00069610A00526573756D696E672053440073
:1008B000286E6F2066696C65290043757272656EDB
:1008C000742066696C653A200044656C6574696FD4
:1008D0006E206661696C65642C2046696C653A20FF
:1008E0000046696C652064656C657465643A005007
:1008F00072696E742074696D653A20000A537461E0
:1009000074733A2046696C616D656E742075736509
:10091000643A20002C204C6F6E67657374206A6FF8
:10092000623A2000546F74616C2074696D653A20DE
:10093000002C204661696C65643A20002C204669D1
:100940006E69736865643A20005072696E74733A18
:10095000200053746174733A2000452025530044ED
:10096000454255473A004D313133205300426564CA
:1009700020436F6F6C696E672E2E2E0042656420D7
:1009800048656174696E672E2E2E0043522D3130FA
:10099000205632204F46462E002F2F20004D313456
:1009A0003520533C696E6465783E206F7574206F06
:1009B000662072616E67652028302D31290A004655
:1009C000523A0020466C6F773A200050726F74657F
:1009D000637465642050696E0A0020536572766FF7
:1009E000200020643A0020693A0020703A006469CF
:1009F000730043290A0061626C656420286D696E8A
:100A00002074656D702000436F6C6420657874728B
:100A10007564657320617265200046696C616D655F
:100A20006E742072756E6F75742064697374616E74
:100A3000636520286D6D293A200046696C616D65FB
:100A40006E742072756E6F757420004D34323120D3
:100A5000696E636F727265637420706172616D6537
:100A60007465722075736167650A00454550524F81
:100A70004D204F4B0A002028302D313029002076A0
:100A8000616C7565206F7574206F662072616E678A
:100A90006500416476616E6365204B3D00446F6E76
:100AA00065207072696E74696E672066696C650A8C
:100AB000004D3737004D3331000B07D70A0407FDCF
:100AC00006EF06554E4B4E4F574E2053544154455A
:100AD0000047434F44455F494E464F004C43445FF7
:100AE00050415553455F524553554D450046494C7D
:100AF000414D454E545F52554E4F55545F434F4EF6
:100B000054494E55450046494C414D454E545F525F
:100B1000554E4F5554004D38373620526573706F1F
:100B20006E64696E672050524F4D50545F0045729D
:100B3000726F722077726974696E6720746F2045D6
:100B40004550524F4D210A004E6F20436865636B3C
:100B500073756D2077697468206C696E65206E7599
:100B60006D6265722C204C617374204C696E653A1D
:100B70002000636865636B73756D206D69736D61CB
:100B80007463682C204C617374204C696E653A2044
:100B9000004C696E65204E756D6265722069732028
:100BA0006E6F74204C617374204C696E65204E75B5
:100BB0006D6265722B312C204C617374204C696E10
:100BC000653A20004D313130005344207265616434
:100BD000206572726F720A002121204B494C4C2013
:100BE000636175736564206279204B494C4C2062C7
:100BF0007574746F6E2F70696E0A002121204B4945
:100C00004C4C2063617573656420627920746F6F4A
:100C1000206D75636820696E616374697665207400
:100C2000696D65202D2063757272656E7420636F27
:100C30006D6D616E643A2000627573793A2070615F
:100C40007573656420666F7220696E7075740A0032
:100C5000627573793A2070617573656420666F728E
:100C600020757365720A00627573793A2070726F2D
:100C700063657373696E670A004D6564696120522C
:100C8000656D6F766564004D6564696120496E73BA
:100C90006572746564007061757365004D3630303F
:100CA000002066696C616D656E745F72756E6F753C
:100CB00074200066696C616D656E745F72756E6F2D
:100CC000757420540046696C616D656E7452756E62
:100CD0006F7574205400363726033C3D380E2E3095
:100CE0003E131A1C180AFF4308090708440001456F
:100CF0006E636C6F737572650000FE0003FF800702
:100D0000C7C00701E00000E00000F0000070040030
:100D1000700E00701F00703F80F00E00E00F01E0C9
:100D200007C7C003FF8000FE0000FE0003FF80072E
:100D3000C7C00F01E00E00E03F80F01F00700E0002
:100D4000700400700000700000F00000E00701E097
:100D500007C7C003FF8000FE000E000E000E000E4D
:100D6000000E000E000E000E007FC03F801F000E20
:100D700000040004000E001F003F807FC00E000E24
:100D8000000E000E000E000E000E000E00FFFFFF12
:100D90007F80FFC0FFC0FFC07F807F80FFC0FFC09B
:100DA000FFC03F001E000C002569792025696420E2
:100DB0002569682025696D202569730023646566AF
:100DC000696E652044454641554C545F004B642094
:100DD000004B6920004B702000504944204175743D
:100DE0006F74756E652066696E697368656421202D
:100DF00050757420746865206C617374204B702C7E
:100E0000204B6920616E64204B6420636F6E7374A5
:100E1000616E74732066726F6D2062656C6F7720EF
:100E2000696E746F20436F6E66696775726174696D
:100E30006F6E2E680A00504944204175746F7475B6
:100E40006E65206661696C6564212074696D656FEB
:100E500075740A000A20436C6173736963205049FA
:100E600044200A00204B643A2000204B693A2000BD
:100E7000204B703A20000A204E6F206F7665727307
:100E8000686F6F740A002054753A2000204B753A41
:100E90002000206D61783A2000206D696E3A2000B4
:100EA00020643A200020626961733A20005049446E
:100EB000204175746F74756E652073746172740A65
:100EC00000504944204175746F74756E65206661E9
:100ED000696C6564212054656D706572617475720A
:100EE0006520746F6F20686967680A005049442064
:100EF0004175746F74756E65005049442041757476
:100F00006F74756E65206661696C6564212042614D
:100F100064206578747275646572206E756D6265A3
:100F2000720A004572723A207574663820666F6ED8
:100F300074206E6F7420696E697469616C697A657A
:100F4000642E00000C0F00FE07022503BB017FFE8C
:100F500008FE08FE05080806000040F0C8888898CA
:100F60007810050808060000C0F88888888888F886
:100F70000505050600012030F830200508080600A8
:100F8000002070F820202020E00509090600FF203D
:100F900070A8A8B888887020070505070001D86CDC
:100FA000366CD80509090600FFF8A8888888888863
:100FB000A8F8050A0A0600FE205050505088A8A83C
:100FC000887003030306000340A040FFFFFFFFFFFC
:100FD000FFFFFFFFFFFFFFFFFFFFFFFFFFFFFFFF21
:100FE000FF0000000605FF01070706020080808061
:100FF00080800080030303060105A0A0A00506066B
:1010000006000050F85050F8500509090600FF206E
:1010100070A8A07028A87020050707060000C8C89F
:10102000102040989805070706000040A0A040A89F
:101030009068010303060205808080030909060108
:10104000FF2040408080804040200309090601FFC6
:1010500080404020202040408005070706000020F7
:10106000A8702070A8200505050600012020F820A2
:10107000200203030601FFC04080050101060003B2
:10108000F8020202060100C0C005070706000008BA
:10109000101020404080050707060000708898A8BF
:1010A000C8887003070706010040C040404040E088
:1010B000050707060000708808102040F80507079C
:1010C000060000F8081030088870050707060000C1
:1010D00010305090F81010050707060000F880F057
:1010E00008088870050707060000304080F08888EF
:1010F00070050707060000F80810102020200507DB
:101100000706000070888870888870050707060049
:101110000070888878081060020505060100C0C0CC
:1011200000C0C00206060601FFC0C000C040800328
:10113000050506010120408040200503030600024A
:10114000F800F803050506010180402040800507EE
:101150000706000070881020200020050707060001
:10116000007088B8A8B8807005070706000070886E
:1011700088F8888888050707060000F04848704806
:1011800048F0050707060000708880808088700599
:101190000707060000F04848484848F005070706DA
:1011A0000000F88080F08080F8050707060000F84E
:1011B0008080F080808005070706000070888080AE
:1011C000988870050707060000888888F88888884E
:1011D000030707060100E04040404040E0050707E4
:1011E0000600003810101010906005070706000078
:1011F0008890A0C0A0908805070706000080808026
:10120000808080F805070706000088D8A8888888AD
:10121000880507070600008888C8A89888880507F9
:101220000706000070888888888870050707060010
:1012300000F08888F080808005070706000070882D
:101240008888A89068050707060000F08888F0A045
:101250009088050707060000708880700888700570
:101260000707060000F82020202020200507070699
:10127000000088888888888870050707060000882D
:1012800088888850502005070706000088888888CD
:10129000A8A85005070706000088885020508888B5
:1012A0000507070600008888502020202005070732
:1012B000060000F80810204080F80309090601FF25
:1012C000E080808080808080E00507070600008045
:1012D0004040201010080309090601FFE0202020EB
:1012E00020202020E005030306000520508805018A
:1012F000010600FEF80303030601058040200505F2
:101300000506000070087888780507070600008049
:1013100080F0888888F005050506000070808088C8
:101320007005070706000008087888888878050592
:10133000050600007088F080700507070600003081
:101340004840E04040400507070600FE7088888856
:101350007808700507070600008080F08888888874
:101360000307070601004000C0404040E0040909AF
:101370000601FE10003010101010906005070706DF
:10138000000080808890E09088030707060100C075
:101390004040404040E0050505060000D0A8A8A850
:1013A000A8050505060000B0C8888888050505065B
:1013B000000070888888700507070600FEF088889E
:1013C00088F080800507070600FE788888887808FE
:1013D00008050505060000B0C880808005050506E3
:1013E000000078807008F00507070600002020F84C
:1013F00020202018050505060000888888986805C3
:1014000005050600008888885020050505060000AF
:101410008888A8A850050505060000885020508837
:101420000507070600FE88888850204080050505CE
:10143000060000F8102040F80309090601FF2040CB
:10144000404080404040200109090602FF80808022
:101450008080808080800309090601FF8040404031
:10146000204040408005030306000248A890FF5238
:10147000756E6F75742044697374206D6D004C6FC8
:101480006164206D6D00556E6C6F6164206D6D0040
:1014900046696C2E204469612E004520696E206DDE
:1014A0006DC2B3004D3330332055312045256920BE
:1014B00053256900504944204175746F74756E65F9
:1014C000202A005049442D44202A005049442D49E7
:1014D000202A005049442D50202A0020082046612F
:1014E0006374002008204D6178002008204D696E4B
:1014F000004175746F74656D700052756E6F757410
:101500002053656E736F7200554E4C4F4144204618
:10151000494C414D454E540046494C414D454E5471
:10152000204348414E4745004D3730322054256412
:10153000004D36303020423020542564004D373085
:1015400032203B2564004D37303120542564004D56
:10155000373032004D373031004D36303020423098
:10156000005075726765206D6F7265005245535566
:101570004D45204F5054494F4E533A005052494E1A
:1015800054205041555345440020204E6F7A7A6CC8
:10159000653A2000256C642E25696D0045787472CB
:1015A0007564656420546F74616C004C6F6E676580
:1015B0007374204A6F622054696D65003E200054A8
:1015C0006F74616C205072696E742054696D65008F
:1015D000436F6D706C65746564005072696E742041
:1015E000436F756E7400313230004245443A2045F5
:1015F00050434F53203130304B0052756E6177614C
:10160000792057617463683A204F4E004D6178200D
:1016100054656D7000323535004D696E2054656D2E
:10162000700045313A204550434F53203130304B04
:10163000005053550047656E657269630050726FC4
:10164000746F636F6C00312E30004261756400323C
:10165000353030303000437265616C6974793344E1
:101660002052414D50530042696C696E6561722091
:101670004C6576656C696E67004578747275646553
:1016800072730043522D31302056320032303230E6
:101690002D30392D3239005072696E7465722053C5
:1016A0007461747300546865726D6973746F7273DA
:1016B00000426F61726420496E666F005072696EFD
:1016C00074657220496E666F005061726B696E6757
:1016D0002E2E2E0000005761697420666F7200661E
:1016E000696C616D656E74206368616E6765007416
:1016F0006F207374617274005761697420666F7231
:101700000066696C616D656E7420756E6C6F6164E6
:1017100000004E6F7A7A6C652068656174696E6747
:1017200000506C6561736520776169742E2E2E0000
:1017300000507265737320627574746F6E00746FFD
:101740002068656174206E6F7A7A6C650000496E5E
:10175000736572742066696C616D656E7400616E8C
:101760006420707265737320627574746F6E007498
:101770006F20636F6E74696E7565005761697420C0
:10178000666F720066696C616D656E74206C6F6166
:10179000640000507265737320427574746F6E003C
:1017A000746F20726573756D65207072696E740058
:1017B000005761697420666F72207072696E7400E0
:1017C000746F20726573756D652E2E2E0000576143
:1017D000697420666F720066696C616D656E742055
:1017E000707572676500004D3834004175746F2064
:1017F000486F6D650054656D7065726174757265D2
:101800000050726F6265205A204F666673657400DF
:10181000416476616E6365204B004D61696E0044E2
:10182000697361626C6520537465707065727300D2
:101830004D34382050726F626520546573740047D0
:101840003238204F0A4D34382050313000486F6D07
:1018500065205A004732385A00486F6D652059009C
:101860004732385900486F6D652058004732385864
:101870000047323800507265686561742024204545
:101880006E6400507265686561742024204265644E
:1018900000436F6F6C646F776E0046616E2053700B
:1018A000656564207E00466C6F77003F00496E6975
:1018B0007469616C697A6520454550524F4D004509
:1018C0004550524F4D2056657273696F6E204572B8
:1018D000726F7200454550524F4D20496E646578D5
:1018E000204572726F7200454550524F4D20435251
:1018F00043204572726F720049676E6F72650048CF
:101900006F6D696E67204661696C6564006F706514
:101910006E005452494747455245440066696C6120
:101920006D656E74007A5F6D696E00795F6D696ECA
:1019300000785F6D696E005265706F7274696E67D2
:1019400020656E6473746F70207374617475730AAC
:1019500000486F6D652025732573257320466972D5
:1019600073740020520020204D3630332000202098
:101970004D34313220530046696C616D656E7420C0
:1019800072756E6F75742073656E736F723A002096
:10199000550046696C616D656E74206C6F61642FD3
:1019A000756E6C6F6164206C656E677468733A0065
:1019B00020204D393030204B004C696E656172201B
:1019C000416476616E63653A0020204D38353120E0
:1019D00058005A2D50726F6265204F6666736574A9
:1019E0000020204D33303420500020204D33303142
:1019F0002050005049442073657474696E67733ACF
:101A00000020460020480020204D3134352053006E
:101A10004D6174657269616C2068656174757020D0
:101A2000706172616D65746572733A00202047328F
:101A300039205720490020204D34323020530041B6
:101A400075746F20426564204C6576656C696E67BD
:101A50003A00204A0020204D3230352042004164B7
:101A600076616E6365643A20423C6D696E5F7365B2
:101A7000676D656E745F74696D655F75733E205345
:101A80003C6D696E5F66656564726174653E205485
:101A90003C6D696E5F74726176656C5F66656564E6
:101AA000726174653E204A3C6A756E635F64657658
:101AB0003E0020204D323034205000416363656C7D
:101AC00065726174696F6E2028756E6974732F7307
:101AD00032293A20503C7072696E745F61636365AD
:101AE0006C3E20523C726574726163745F61636323
:101AF000656C3E20543C74726176656C5F61636313
:101B0000656C3E0020204D3230312058004D617808
:101B1000696D756D20416363656C65726174696F91
:101B20006E2028756E6974732F7332293A00202055
:101B30004D3230332058004D6178696D756D2066E7
:101B400065656472617465732028756E6974732F9E
:101B500073293A0053746570732070657220756E36
:101B600069743A0020440020204D32303020530068
:101B70002044697361626C65640A0046696C616D3A
:101B8000656E742073657474696E67733A00202003
:101B90004D3134392043203B20556E6974732069E0
:101BA0006E2043656C736975730A0020286D6D297A
:101BB000002020473231202020203B20556E6974C0
:101BC0007320696E206D6D0024F4D43050C38E20D4
:101BD000C2A24017828B7011127A910D816CD90AC2
:101BE000A861E108C7586607615143061E4B5D05B1
:101BF000C145A7041A411104093D98037139310305
:101C00004036DB0265339102D4305402802E1D022F
:101C1000632CEE01752AC501B028A00110278101AF
:101C20008F2564012B244B01E0223401AC211F01DC
:101C30008D200D01801FFC00841EED00971DDF002C
:101C4000B81CD200E61BC600201BBC00641AB20000
:101C5000B219A8000A19A0006A189900D1179100BA
:101C600040178B00B516840031167E00B31579003D
:101C70003A157300C7146F0058146A00EE1366001B
:101C80008813630025135E00C7125B006C125700B7
:101C900015125400C111510070114F0021114B0059
:101CA000D61049008D104700461044000210420033
:101CB000C00F4000800F3E00420F3C00060F3B006B
:101CC000CB0E3800930E37005C0E3500270E340023
:101CD000F30D3200C10D3100900D3000600D2E006B
:101CE000320D2D00050D2C00D90C2B00AE0C290057
:101CF000850C29005C0C2700350C27000E0C2600F3
:101D0000E80B2400C40B2400A00B23007D0B230050
:101D10005A0B2100390B2100180B2000F80A1F0074
:101D2000D90A1E00BB0A1E009D0A1D00800A1D0064
:101D3000630A1C00470A1B002C0A1B00110A1A0028
:101D4000F7091A00DD091900C4091900AB091900C7
:101D5000920917007B091800630917004C09160047
:101D600036091600200916000A091500F5081500A5
:101D7000E0081400CC081400B8081400A4081400EB
:101D8000900813007D0812006B0813005808120019
:101D9000460812003408110023081100120811002F
:101DA00001081100F0071000E0071000D007100034
:101DB000C0071000B0070F00A107100091070E0028
:101DC00083070F0074070F0065070E0057070E000A
:101DD00049070E003B070D002E070E0020070D00DF
:101DE00013070D0006070D00F9060C00ED060D00A7
:101DF000E0060C00D4060C00C8060C00BC060C0063
:101E0000B0060C00A4060B0099060C008D060B0012
:101E100082060B0077060B006C060B0061060A00B9
:101E200057060B004C060A0042060A0038060A0054
:101E30002E060A0024060A001A060A0010060900E7
:101E400007060A00FD050900F4050900EB05090075
:101E5000E2050900D9050900D0050900C7050900F8
:101E6000BE050900B5050800AD050800A505090077
:101E70009C050800940508008C05080084050800EE
:101E80007C050800740508006C050700650508005E
:101E90005D050700560508004E05070047050700C9
:101EA0004005080038050700310507002A0507002E
:101EB000230507001C050600160507000F0507008F
:101EC0000805060002050700FB040600F5040700EC
:101ED000EE040600E8040600E2040700DB04060046
:101EE000D5040600CF040600C9040600C30406009A
:101EF000BD040600B7040600B1040500AC040600EA
:101F0000A6040600A00405009B0406009504050035
:101F1000900406008A04050085040500800406007C
:101F20007A04050075040500700405006B040500C3
:101F300066040500610405005C0405005704050003
:101F4000520405004D040500480405004304050043
:101F50003E0404003A040500350405003004040082
:101F60002C04050027040400230405001E040400BB
:101F70001A04040016040500110404000D040400F2
:101F8000090405000404040000040400FC03040028
:101F9000F8030400F4030400F0030400EC0304005D
:101FA000E8030400E4030400E0030400DC0304008D
:101FB000D8030400D4030400D0030400CC030400BD
:101FC000C8030300C503030024F404D9201BC40C78
:101FD0005C0E9804C4095F0265077101F405F900FD
:101FE000FB04B30048048700C1036900580355008F
:101FF00003034500BE023A008402310053022A0066
:102000002902250004022000E4011C00C801190077
:10201000AF01170098011400840113007101100032
:102020006101100051010E0043010D0036010B004B
:102030002B010B0020010B00150109000C01090008
:1020400003010800FB000800F3000800EB00070094
:10205000E4000600DE000600D8000600D2000600FC
:10206000CC000500C7000500C2000500BD0004004B
:10207000B9000400B5000400B1000400AD00040084
:10208000A9000400A5000300A20003009F000400B3
:102090009B000300980003009500020093000300DA
:1020A000900003008D0002008B00030088000200F6
:1020B0008600020084000300810002007F0002000D
:1020C0007D0002007B000200790002007700010021
:1020D000760002007400020072000100710002002C
:1020E0006F0002006D0001006C0002006A00010038
:1020F0006900020067000100660001006500010040
:102100006400020062000100610001006000010043
:102110005F0002005D0001005C0001005B00010047
:102120005A00010059000100580001005700010049
:10213000560001005500010054000100530000004A
:102140005300010052000100510001005000010045
:102150004F0001004E0000004E0001004D00010044
:102160004C0001004B0000004B0001004A00010040
:10217000490001004800000048000100470001003C
:102180004600000046000100450000004500010037
:102190004400010043000000430001004200000031
:1021A0004200010041000000410001004000010028
:1021B0003F0000003F0001003E0000003E00010023
:1021C0003D0000003D0001003C0000003C0000001C
:1021D0003C0001003B0000003B0001003A00000011
:1021E0003A00010039000000390001003800000009
:1021F00038000000380001003700000037000100FF
:1022000036000000360000003600010035000000F6
:1022100035000000350001003400000034000000EB
:1022200034000100330000003300000033000100DF
:1022300032000000320000003200010031000000D6
:1022400031000000310001003000000030000000CB
:10225000300001002F0000002F0000002F000000C0
:102260002F0001002E0000002E0000002E000100B3
:102270002D0000002D0000002D0000002D000100A9
:102280002C0000002C0000002C0000002C0001009D
:102290002B0000002B0000002B0000002B00010091
:1022A0002A0000002A0000002A0000002A00010085
:1022B000290000002900000029000000290000007A
:1022C000290001002800000028000000280000006C
:1022D000280000002800010027000000270000005F
:1022E0002700000027000000270001002600000052
:1022F0002600000026000000260000002600010045
:102300002500000025000000250000002500000039
:10231000250000002500010024000000240000002A
:10232000240000002400000024000100230000001D
:102330002300000023000000230000002300000011
:102340002300000023000100220000002200000002
:1023500022000000220000002200000022000100F4
:1023600021000000210000002100000021000000E9
:1023700021000000210000002100010020000000D9
:1023800020000000200000002000000020000000CD
:102390002000000020000000200001001F000000BD
:1023A0001F0000001F0000001F0000001F000000B1
:1023B0001F0000001F0001001E0000001E000000A2
:1023C0001E0000001E000000C23100001C2600009C
:1023D000F4190000D80F0000EB080000C004000052
:1023E000750200004001000053657474696E6773E4
:1023F0002053746F726564002062797465733B20AA
:10240000637263200053657474696E67732053743C
:102410006F726564202800454550524F4D2064611D
:10242000746173697A65206572726F722E0A00207A
:1024300073746F7265642073657474696E6773205A
:10244000726574726965766564202800202863616E
:102450006C63756C6174656429210A0020213D203C
:1024600000454550524F4D20435243206D69736DD6
:1024700061746368202D202873746F72656429204D
:1024800000496E6465783A2000204D61726C696E77
:102490003D563831290A00454550524F4D2076654A
:1024A0007273696F6E206D69736D61746368202843
:1024B000454550524F4D3D0048617264636F6465FD
:1024C000642044656661756C742053657474696E2C
:1024D0006773204C6F616465640A003B20000080D4
:1024E0003B4400803B4400007041000096420000E5
:1024F000A0420000A0420000C8430000C242D00732
:102500000000D007000064000000881300000000F5
:102510000000000000600000000000FC00000FF060
:102520000000000007E00000000001861FC01870D6
:102530000000000000603C0C000001830C601030C3
:102540000000000000603C0C000001830C303030C3
:10255000000000000060000C000000030C183000B8
:10256000000000000060003F0F3C00030C0C600105
:10257000DF0FE0FE00601C1C061800060C0C60005B
:10258000F318318300600C0C0318001E0C0C600063
:10259000E030398300600C0C033000030C0C600049
:1025A000C030380F00600C0C033000018C0C600050
:1025B000C03FF8FB00600C0C033000018C0C603055
:1025C000C030018300600C0C01F001818C0C603084
:1025D000C030018300600C0C00E001818C183030A9
:1025E000C018318300600C0C40E001838C3018600F
:1025F000C00C6187C0E01C0CC06000C30C600FC33E
:10260000F007C0FFC7FC7F0781C0007E1FC000002D
:1026100000000000000000000700000000000000B3
:1026200000000000000000000700000000001FFF85
:10263000FFFFFFFFFF600000000001FF40000000FF
:102640000000FF8000000000007F83CF00000C30FE
:102650003F87FF80000C301F867980000C000F8CB4
:1026600030C7838C30E78C30CFC7CC31F38C30DC73
:10267000ECEC33B98C30D86C6C33198C30D06C0CDA
:1026800033198C30D86C0C33198C30DC6C0E3B1940
:102690008C30CF7C079F198C30C77C038F1940008A
:1026A0000000000002600000000000061FFFFFFFA6
:1026B000FFFFF870012C0190012701B0012201C039
:1026C000011D01F00118011002130130020E01601A
:1026D00002090190020401C002FF000003FA004059
:1026E00003F5008003F000D003EB002004E6007047
:1026F00004E100E004DC004005D700C005D2004042
:1027000006CD00D006C8008007C3003008BE00F028
:1027100008B900C009B400B00AAF00B00BAA00D0DD
:102720000CA500000EA000500F9B00C0109600509A
:1027300012910000148C00C0158700B0178200B001
:10274000197D00D01B7800001E730040206E0090A1
:10275000226900F024640040275F0090295A00E0BD
:102760002B5500102E500020304B0010324600E058
:1027700033410090353C001037370070383200A0EC
:10278000392D00B03A2800A03B2300603C1E001009
:102790003D1900903D1400103E0F00703E0A00C02D
:1027A0003E0500003F0000403FFBFF803FF6FFC0BA
:1027B0003FF1FF68747470733A2F2F6D61726C690A
:1027C0006E66772E6F726700322E302E3700202013
:1027D000506C616E6E6572427566666572427974A0
:1027E00065733A20002046726565204D656D6F72F5
:1027F000793A2000436F6D70696C65643A205365C7
:102800007020333020323032300A00204C61737433
:1028100020557064617465643A20323032302D3056
:10282000392D3239207C20417574686F723A20331B
:10283000313533442E636F6D2C2043522D313020BF
:102840005632290A00322E302E370A004D61726C42
:10285000696E0020536F66747761726520526573EC
:1028600065740A00205761746368646F672052655D
:102870007365740A002042726F776E206F75742042
:1028800052657365740A002045787465726E616CD8
:102890002052657365740A00506F77657255700A2F
:1028A000006175746F25632E6700473238585900F0
:1028B0004D31303031006572726F722077726974F9
:1028C000696E6720746F2066696C650A00446F6EDC
:1028D0006520736176696E672066696C652E0A00F3
:1028E0004D323900255320256320256320256320A0
:1028F000256300656E6473746F7073206869743A41
:1029000020002053697A653A200043616E6E6F742F
:10291000206F70656E207375626469722000534485
:1029200020496E6974204661696C005344206361DC
:102930007264206F6B0A006F70656E526F6F742047
:102940006661696C65640A00766F6C756D652E69E9
:102950006E6974206661696C65640A004E6F20536D
:102960004420636172640A004D3233202573006F86
:1029700070656E206661696C65642C2046696C65C3
:102980003A200046696C652073656C656374656404
:102990000A0046696C65206F70656E65643A2000B8
:1029A000454E4420535542524F5554494E450A0016
:1029B0002220706F73002220706172656E743A225B
:1029C00000535542524F5554494E452043414C4CBB
:1029D000207461726765743A220053756263616C9A
:1029E0006C204F766572666C6F770045786365651D
:1029F000646564206D617820535542524F555449A7
:102A00004E452064657074683A310A0057726974E3
:102A1000696E6720746F2066696C653A20005344C4
:102A2000207072696E74696E672062797465200027
:102A30004E6F74205344207072696E74696E670A19
:102A400000667265736800646F696E67004E6F7729
:102A500020007C3C3E5E2B3D3F2F5B5D3B2C2A22C1
:102A60005C0020746F6F206C6F6E672065787472E5
:102A70007573696F6E2070726576656E7465640A31
:102A80000020636F6C6420657874727573696F6E73
:102A90002070726576656E7465640A00DB0FC93F4D
:102AA00045BCDA3F8FB30240FCF0274056946140AA
:102AB000FE4B9B4084A5D840E0231841346A564120
:102AC000E859974164DBD5416E271742B4B75542A8
:102AD000CE1A9742C8AED542B5885A43D40684BFB1
:102AE000A65FA7BF7443E0BF10B11AC01C2C58C02A
:102AF000E8F697C0B849D6C04E4E17C124D355C189
:102B0000802497C1A0B5D5C1121A17C244AE55C2D0
:102B1000781797C26CACD5C267885AC3436F6E668C
:102B2000696775726174696F6E0043616E63656C8D
:102B3000204F626A6563740043616E63656C004F89
:102B40006666004F6E004D6F74696F6E004368617A
:102B50006E6765204D65646961004D3231004162E8
:102B60006F7574205072696E74657200526573756A
:102B70006D65205072696E74004E6F204D656469FA
:102B8000610054756E650053746F70205072696EE9
:102B900074005061757365205072696E7400496EDF
:102BA000666F2053637265656E00537461727420A2
:102BB0005072696E740043616E6E6F7420656E743E
:102BC0006572207375626469723A2000022E2E00CD
:102BD000536F667420456E6473746F707300473270
:102BE000362048656174696E67204E6F7A7A6C652D
:102BF000004732362048656174696E67204265641B
:102C00000057616974696E6720666F72206865613C
:102C10007475702E0A004669786564204C656E678D
:102C20007468205072696D6500446F6E6520507243
:102C3000696D696E67004D616E75616C20707269B7
:102C40006D696E672E2E2E004732362043616E630B
:102C5000656C6564004C656176696E672047323645
:102C6000003F53706563696669656420582C59207C
:102C7000636F6F7264696E617465206F7574206F25
:102C80006620626F756E64732E0A003F28522965B4
:102C9000706561742076616C7565206E6F7420704C
:102CA0006C61757369626C653B206D75737420622D
:102CB00065206174206C6561737420312E0A003FB9
:102CC000537065636966696564206E6F7A7A6C65B6
:102CD0002074656D7065726174757265206E6F74B5
:102CE00020706C61757369626C652E0A003F5370C9
:102CF000656369666965642066696C616D656E749B
:102D00002073697A65206E6F7420706C61757369C9
:102D1000626C652E0A003F5370656369666965647D
:102D2000207072696D65206C656E677468206E6FC7
:102D30007420706C61757369626C652E0A003F5374
:102D40007065636966696564206E6F7A7A6C652068
:102D500073697A65206E6F7420706C617573696237
:102D60006C652E0A003F52657472616374696F6E00
:102D7000204D756C7469706C696572206D75737423
:102D8000206265207370656369666965642E0A0058
:102D90003F5370656369666965642052657472614A
:102DA0006374696F6E204D756C7469706C696572BF
:102DB000206E6F7420706C61757369626C652E0A89
:102DC000003F537065636966696564206C6179656D
:102DD0007220686569676874206E6F7420706C611A
:102DE000757369626C652E0A0043292E0A003F53F1
:102DF0007065636966696564206265642074656DE9
:102E00007065726174757265206E6F7420706C618C
:102E1000757369626C65202834302D004732362086
:102E20007374617274696E672E2E2E0A004F4646C7
:102E30000A0046616465204865696768742000423D
:102E40006564204C6576656C696E67200046616933
:102E50006C656420746F20656E61626C65204265EC
:102E600064204C6576656C696E670A00496E766110
:102E70006C6964206D6573682E0A00565472617621
:102E8000204D696E00566D696E00566D6178204563
:102E900000566D6178205A00566D617820590056B1
:102EA0006D6178205800416D6178204500416D6169
:102EB00078205A00416D6178205900416D61782079
:102EC0005800412D54726176656C00412D52657435
:102ED0007261637400416363656C0050726F626578
:102EE0002059204F66667365740050726F626520CA
:102EF00058204F666673657400452073746570735F
:102F00002F6D6D005A2053746570732F6D6D0059CD
:102F10002053746570732F6D6D0058205374657065
:102F2000732F6D6D00496E69740050726F62652079
:102F30004F666673657473004A756E6374696F6E6D
:102F40002044657600416363656C65726174696FE6
:102F50006E0056656C6F63697479005A2056616C17
:102F6000756500496E646578205900496E6465781E
:102F700020580046616465204865696768740045AB
:102F8000646974204D657368004C6576656C2042F9
:102F90006564004732380A473239005374616E6401
:102FA00061726420446576696174696F6E3A2000CD
:102FB0002052616E67653A2000205369676D613A5F
:102FC00020004D65616E3A2000416363656C657257
:102FD0006174696F6E3A2050003F4A206F7574200B
:102FE0006F662072616E67652028302E3031207444
:102FF0006F20302E33290A00204D3932205800200E
:10300000204D61783A200020204D696E3A2000530F
:103010006F667420656E6473746F70733A20004934
:103020006E76616C69642050696E204D6F64650A2C
:103030000020496E76616C696420657874727564ED
:1030400065722000446966663A2020200046726F4F
:103050006D5374703A00537465707065723A005520
:103060006E4C6576656C3A004C6576656C65643AC5
:10307000005261773A20202020000A4C6F67696374
:10308000616C3A00436F756E7420453A004361707D
:103090003A004348414D4245525F54454D504552D8
:1030A00041545552450042414259535445505049AC
:1030B0004E470041524353004D4F54494F4E5F4DD0
:1030C0004F44455300544845524D414C5F50524F78
:1030D00054454354494F4E004C4F4E475F46494C70
:1030E000454E414D45004155544F5245504F525465
:1030F0005F53445F5354415455530053444341522A
:10310000440050524F4D50545F535550504F5254FD
:1031100000454D455247454E43595F504152534536
:103120005200434153455F4C494748545F4252491E
:103130004748544E45535300544F47474C455F4C06
:10314000494748545300534F4654574152455F50E6
:103150004F574552004255494C445F5045524345F4
:103160004E54004C4556454C494E475F44415441EE
:10317000005A5F50524F4245004155544F4C4556FE
:10318000454C005052494E545F4A4F420050524FF6
:103190004752455353004155544F5245504F525496
:1031A0005F54454D5000564F4C554D455452494380
:1031B0000042494E4152595F46494C455F54524185
:1031C0004E534645520053455249414C5F584F4E6D
:1031D0005F584F4646004649524D574152455F4E53
:1031E000414D453A4D61726C696E20322E302E375A
:1031F0002028536570203330203230323020313671
:103200003A32303A32312920534F555243455F43C9
:103210004F44455F55524C3A68747470733A2F2F7F
:103220006769746875622E636F6D2F4D61726C698A
:103230006E4669726D776172652F4D61726C696E51
:103240002050524F544F434F4C5F56455253494FB5
:103250004E3A312E30204D414348494E455F545936
:1032600050453A43522D3130205632204558545261
:10327000554445525F434F554E543A3120555549B8
:10328000443A63656465326132662D343161322DB2
:10329000343734382D396231322D63353563363267
:1032A0006633363766660A0050726F6265204F6675
:1032B00066736574205A003F5A206F7574206F66DC
:1032C0002072616E67652028003F59206F75742059
:1032D0006F662072616E676520282D0020746F2054
:1032E000003F58206F7574206F662072616E6765AD
:1032F00020282D0050726F6265204F6666736574DA
:10330000205800656E7175657565696E67202200CD
:103310006F6B00526573656E643A200053544F50D2
:103320005045442E20005072696E7465722073748B
:103330006F707065642064756520746F20657272AB
:103340006F72732E204669782074686520657272EA
:103350006F7220616E6420757365204D3939392094
:10336000746F20726573746172742E202854656DB9
:10337000706572617475726520697320726573651A
:10338000742E205365742069742061667465722000
:1033900072657374617274696E67290A0021212055
:1033A00053544F502063616C6C65642062656361A7
:1033B000757365206F6620424C546F756368206595
:1033C00072726F72202D207265737461727420772F
:1033D000697468204D3939390A005072696E746910
:1033E0006E67204F626A656374002553202569006B
:1033F0002F2F616374696F6E3A00656E640070729E
:103400006F6D70745F0073686F77004469736162F9
:103410006C6552756E6F75740050757267654D6F8F
:10342000726500486F74656E6420746F6F20636FFF
:103430006C640A0053656E64204D31303820746F1F
:1034400020726573756D650A005265686561742048
:10345000446F6E6500526568656174696E672E2EF3
:103460002E0052656865617400486561746572205C
:1034700054696D656F75740053656E64204D31300D
:103480003820746F2068656174206E6F7A7A6C657D
:103490000A004E6F7A7A6C65205061726B65640029
:1034A00070617573656400726573756D6564005253
:1034B0006573756D696E670050726F62696E672023
:1034C000506F696E740025532025692F25690050BF
:1034D000726F62696E67206D65736820706F696EC8
:1034E000742000202844525952554E290047323941
:1034F000204175746F20426564204C6576656C6967
:103500006E67003F20284C2C522C462C4229206FFD
:103510007574206F6620626F756E64732E0A003FAB
:103520002856296572626F7365206C6576656C201C
:10353000696D706C61757369626C652028302D341B
:10354000292E0A00426164205A2076616C75650A52
:10355000004E6F2062696C696E65617220677269E6
:10356000640A00446576696174696F6E0025533A98
:103570002025730046696E6973686564210A003A04
:10358000207A3A2000206F662000476F696E67201E
:10359000746F3A20580043570A00206469723A0059
:1035A00020616E676C653A005374617274207261B9
:1035B000646975733A004D343820506F696E740039
:1035C00025533A2025642F256400506F7369746970
:1035D0006F6E696E67207468652070726F62652E09
:1035E0002E2E0A003F4C656773206F66206D6F7644
:1035F000656D656E7420696D706C61757369626C60
:10360000652028302D3135292E0A003F2028582CDE
:103610005929206F7574206F6620626F756E647310
:103620002E0A0050726F6265206F7574206F6620DD
:10363000626F756E6473003F53616D706C652073CB
:10364000697A65206E6F7420706C61757369626C45
:10365000652028342D3530292E0A004D3438205A63
:103660002D50726F62652052657065617461626988
:103670006C69747920546573740A005072696E74B1
:103680002066726F6D204D656469610050726F62D3
:10369000696E67204661696C656400205A3A2000B3
:1036A00020593A200042656420583A20005072693F
:1036B0006E742050617573656400626567696E00A1
:1036C000627574746F6E00436F6E74696E75650019
:1036D0004C6F61642046696C616D656E74205400A6
:1036E000496E736572742066696C616D656E7420D5
:1036F000616E642073656E64204D3130380A00229B
:103700000A00556E6B6E6F776E20636F6D6D616E24
:10371000643A20220043522D313020563220526527
:103720006164792E005072696E74696E672E2E2E58
:1037300000205A3A0020593A000000484200004850
:10374000420000C0400202040000A0400000A0406F
:103750000000004000009B4300009B430000C84362
:10376000FFFFFF0000000000000000000000005705
:1037700061726E696E673A20486F6D696E672042AC
:10378000756D702044697669736F72203C20310A30
:10379000001FE020102010201010201020201020EA
:1037A0001030300840048003001FE03FF03FF03F3E
:1037B000F01FE01FE03FF03FF03FF00FC007800335
:1037C000003FFFF038007030FC3020FC10207810F3
:1037D0002030102C00D02E31D02F7BD02F7BD02E3C
:1037E00031D02C00D020301020781020FC1030FC7C
:1037F000303800703FFFF03FFFF038007031863006
:103800002387102787902F87D02F03D020301020B8
:1038100078102078102030102F03D02F87D02787E2
:10382000902387103186303800703FFFF01FFFF87B
:103830001FFFF8041040020820020820041040086E
:10384000208010410010410008208004104000003A
:10385000001FFFF81FFFF800FBF0000001D9B8E3DC
:10386000800389B9E7C00381F0C6C003C1B8C6C0F0
:1038700001FBB8E7C000FBDFF380000000000000A0
:10388000000000000003CE00000001C8F0000001AD
:10389000D9F0000000F070000000F060000000604F
:1038A000F800000061F8002568753A253032687527
:1038B0000025303268753A253032687500202020A6
:1038C00020202020004C6F61642053657474696E61
:1038D00067730053746F72652053657474696E6703
:1038E0007300416476616E63656420536574746926
:1038F0006E6773004E4F005945530043616E636518
:103900006C204F626A656374203D0053746F7700CA
:103910004465706C6F790053572D4D6F646500538B
:10392000656C662D546573740046616E2053706536
:10393000656400526573746F7265204465666175D5
:103940006C74730050726568656174202420436F45
:103950006E6600424C546F75636800496E76616C08
:1039600069642065787472756465720A00202D2080
:10397000496E76616C6964206578747275646572ED
:10398000206E756D62657220210A00544845524DC3
:10399000414C2052554E4157415900546865726D53
:1039A000616C2052756E61776179004572723A20C0
:1039B0004D415854454D50004D415854454D5020AF
:1039C000747269676765726564004572723A204D6A
:1039D000494E54454D50004D494E54454D5020746C
:1039E000726967676572656400202F002042403A63
:1039F0000020403A0020573A005045544700504CB0
:103A000041004D6F76652025736D6D004D6F7665B5
:103A100020302E316D6D004D6F766520316D6D005B
:103A20004D6F76652031306D6D004D6F76652041AC
:103A300078697300486F74656E6420746F6F2063DB
:103A40006F6C64004578747275646572004D6F76B2
:103A500065205A004D6F76652059004D6F766520C0
:103A600058004368616E67652046696C616D656EDC
:103A70007400556E6C6F61642046696C616D656E93
:103A800074004C6F61642046696C616D656E7400F2
:103A90005072656865617420437573746F6D005072
:103AA0007265686561742024004261636B000000E8
:103AB0002100240027002A002D00300033000101DE
:103AC0000000040107010A0100002200250028006F
:103AD0002B002E0031003400020100000501080116
:103AE0000B01000020002300260029002C002F00DD
:103AF000320000010000030106010901050505056A
:103B0000070508080808020202020A0A0808040455
:103B10000404010101010101010103030303030383
:103B20000303040707070C0C0C0C0C0C0C0C020212
:103B3000020206060606060606060B0B0B0B0B0B0F
:103B40000B0B01021020200808102040102040809C
:103B50000201020108040201010204081020408051
:103B600080402010080402018004020180402010DF
:103B70000804020108040201010204081020408028
:103B8000010204081020408000000A0B02090C0DFD
:103B90000E08070304010000000000000000000000
:103BA0000000000000000000000000000000000015
:103BB00000000000121110000000000000000000D2
:103BC0000000000000000000000000000000FE39BE
:103BD000F939506C656173652052657365740050E6
:103BE00052494E5445522048414C544544002553B7
:103BF0003A20255300706F7765726F6666004B49F7
:103C00004C4C45442E20005072696E7465722068D9
:103C1000616C7465642E206B696C6C28292063616B
:103C20006C6C6564210A006563686F3A00457272C6
:103C30006F723A0042696C696E656172204C6576FC
:103C4000656C696E6720477269643A0A006E6F742A
:103C5000696669636174696F6E200063616E636594
:103C60006C005072696E742041626F7274656400FA
:103C70004469736D6973730055492041626F7274B2
:103C80006564004D323520500A4D32340052657360
:103C9000756D6500554920506175736500506175FB
:103CA00073696E672E2E2E00726573756D65002028
:103CB000436F756E7420583A0045310062656400A8
:103CC0002C2073797374656D2073746F70706564E4
:103CD00021204865617465725F49443A2000486557
:103CE0006174696E67204661696C6564004865614E
:103CF00074696E67206661696C6564004D313132AC
:103D00002053687574646F776E0059024F02112456
:103D10001FBECFEFD1E2DEBFCDBF00E00CBF13E08E
:103D2000A0E0B2E0E0E7FAED02E00BBF02C00790CE
:103D30000D92AC32B107D9F726E1ACE2B3E001C095
:103D40001D92A03DB207E1F71EE1C6E8DEE100E00A
:103D500006C021970109802FFE010F947769C538AD
:103D6000D10780E00807A9F70F9410520D94266D33
:103D70000C9400002F923F924F925F926F927F922D
:103D80008F929F92AF92BF92CF92DF92EF92FF926B
:103D90000F931F93CF93DF93CDB7DEB7E7970FB69F
:103DA000F894DEBF0FBECDBF8EAB2091EA0E2CABD8
:103DB00021E02093EA0E80910B0E8D3409F44CC360
:103DC000843511F40C94F12F873411F00C940330E6
:103DD0008091090E90910A0E8B31910509F41BC157
:103DE000B4F48430910534F482309105E4F597FF02
:103DF0002EC02EC38531910511F40C9405308A3103
:103E0000910509F404C1049709F022C3C1C08A32A4
:103E1000910509F43DC24CF48D319105B1F00CF4DB
:103E200015C14E9709F45EC113C38B35910509F492
:103E3000D8C18C35910509F4D9C18A35910509F0AD
:103E400007C310923B030C94053014E02DC1809100
:103E50000F07813011F00C9405300E94D1E30E94CD
:103E600048740C94053020910F07213011F00C9408
:103E7000053011E0029709F010E00E94D1E31982A9
:103E80001A821B821C821D821E821F82188682E576
:103E90000E94C4FA882309F44BC00E9444FA6B01C3
:103EA0007C0120E030E0A9010F947C62882309F4B2
:103EB00055C08091A9079091AA07A091AB07B09136
:103EC000AC0788A799A7AAA7BBA78091AD07909137
:103ED000AE07A091AF07B091B00788AB99ABAAAB82
:103EE000BBAB8090C90E9090CA0EA090CB0EB09044
:103EF000CC0E4090CD0E5090CE0E6090CF0E7090B4
:103F0000D00EA501940168A579A58AA59BA50F945B
:103F10007C6281110C940E30A301920168A979A9E9
:103F20008AA99BA90F947C628823C1F00C940E305F
:103F300089E40E94C4FA882331F00E9444FA69831C
:103F40007A838B839C838AE40E94C4FA882331F0AD
:103F50000E9444FA6D837E838F83988720E030E04F
:103F6000A90169817A818B819C810F947C62811186
:103F70000C94C23020E030E0A9016D817E818F81F8
:103F800098850F947C6281110C94C2300C94EA30B5
:103F900080E50E94C4FA882329F00E94FCEA6B01A4
:103FA0007C0103C0C12CD12C760183E50E94C4FAA8
:103FB000882361F00E9444FA20E030E04AE754E4AC
:103FC0000F94E2620F94056B6B017C010F94CE1786
:103FD00080911216811105C060E086E297E00F948F
:103FE000AB470F941F3DC60ED71EE81EF91E0F9457
:103FF0001F3DDC01CB018C199D09AE09BF09B7FD3E
:1040000002C00C94053080E00E94E638F0CF0E9498
:104010007CC80C94053087E00E94517381110C9488
:1040200005308CE0E3E9F2E0DE01119601900D929B
:104030008A95E1F760E070E080E50E94BDE8BE018E
:104040006F5F7F4F0E94DF7D0C9405308091400FA1
:104050008770873011F00C94F13060E08FE40E949B
:10406000E0FA81110C9405300C94F1308091BA047F
:1040700081112AC00F94A006882361F1115011F418
:104080000C94D63220E030E040E75CE36EE877E065
:1040900085E00E94D8FE61E081E897E00E94A9FCDB
:1040A00082E597E00E9451F60F941F3D6093A015A2
:1040B0007093A1158093A2159093A31587E00E9499
:1040C0005173882399F206C060E08FE40E94E0FA01
:1040D000882381F20E949DFE8DE198E00E9451F6B6
:1040E0000C9405302091DB0E3091DC0E4091DD0EFA
:1040F0005091DE0E6091A9077091AA078091AB07DD
:104100009091AC070F949269AB01BC0188E50E94C5
:10411000574F69837A838B839C832091DF0E309184
:10412000E00E4091E10E5091E20E6091AD0770916A
:10413000AE078091AF079091B0070F949269AB01E1
:10414000BC0189E50E94574F6D837E838F839887DA
:10415000BE016B5F7F4FCE0101960F94F90088235B
:1041600011F40C94053080E00F94AD410E9420774B
:1041700061E085E40E94E0FA182F21E0482FBE019B
:104180006B5F7F4FCE0101960F949B0E6B017C01FC
:104190009B01AC010F94846C811119C049815A8133
:1041A0006B817C8185EA96E30F94B0464D815E81F8
:1041B0006F81788580EA96E30F94B046B701A60137
:1041C0008BE996E30F94B0468AE00E94BA370E94CA
:1041D0000777113011F40F94DF000E9470790C946E
:1041E00005308FE080933B030C940530AAEECA2E75
:1041F000A2E0DA2EB9EAEB2EB7E0FB2E00E0312C7C
:1042000010E0D6018D916D010E94C4FA882359F106
:104210000E9444FA4B015C01F70120813181428107
:1042200053810F9491692B013C012DEB37E346E854
:1042300055EB0F94F26B87FD0AC02DEB37E346E890
:1042400055E3C301B2010F947C62181664F4133075
:1042500011F401E002C033243394D7018D929D9272
:10426000AD92BC9213971F5FB4E0EB0EF11C1430BB
:1042700041F6332019F00E946E7906C0002321F028
:1042800085EB97E00F94E81A0E9470790C94053042
:1042900080910F07813011F00C94053089E40E9461
:1042A000C4FAE82E882321F00E9440FA082F01C0AA
:1042B00000E08AE40E94C4FAF82E882321F00E94CC
:1042C00040FA182F01C010E0EE2011F0053020F464
:1042D000FF2041F0153030F085E398E00F94F84569
:1042E0000C94053080E1E9EAF7E0A9ECBEE001902A
:1042F0000D928A95E1F7EE2019F1602F000F770BF0
:10430000880B990B0F948362209136043091370407
:1043100040913804509139040F94E26220911705BE
:10432000309118054091190550911A050F94926922
:104330006093C90E7093CA0E8093CB0E9093CC0EEF
:10434000FF2019F1612F110F770B880B990B0F9438
:10435000836220913A0430913B0440913C04509197
:104360003D040F94E26220911B0530911C054091A1
:104370001D0550911E050F9492696093CD0E7093A8
:10438000CE0E8093CF0E9093D00E60E080E50E9419
:10439000E0FA8823C1F1EE20D1F02091DB0E3091BC
:1043A000DC0E4091DD0E5091DE0E6091C90E7091D1
:1043B000CA0E8091CB0E9091CC0E0F9491696093B0
:1043C000C90E7093CA0E8093CB0E9093CC0EFF2033
:1043D000D1F02091DF0E3091E00E4091E10E50912E
:1043E000E20E6091CD0E7091CE0E8091CF0E909125
:1043F000D00E0F9491696093CD0E7093CE0E809382
:10440000CF0E9093D00E40E050E0BA0186E40E94B7
:10441000574F6B017C0120E030E0A9010F94F26B53
:1044200018164CF420E030E040E752E4C701B60132
:104430000F948C6A03C060E070E0CB0169837A83DB
:104440008B839C83CE0101960E9441780C940530A9
:104450000F94A90C0C9405308091090E90910A0ECE
:104460008837910509F4D1C70CF024C18C3491052B
:1044700009F47DC40CF09CC08A31910509F43AC35B
:10448000BCF58431910509F4AEC27CF4813191050B
:1044900009F495C22CF4029708F447C20C94EE2F4D
:1044A000429709F4B4C60C94EE2F8731910509F4B4
:1044B000CFC294F48531910509F4C6C2469711F034
:1044C0000C94EE2F0E945E9C80914214877F806244
:1044D000809342140C9405308831910509F4CFC2C1
:1044E000499711F00C94EE2F0E94F8E70C940530D8
:1044F0008032910509F4DDC3ECF58D31910509F4A5
:104500006EC384F48B31910509F402C34C9711F00A
:104510000C94EE2F80911404909115040E946F9CCE
:104520000C9405308E31910509F460C34F9711F05A
:104530000C94EE2F0E946B7A6C8F7D8F8E8F9F8FE5
:10454000BE016F5F7F4FCE014C960E94DC5460E04D
:10455000CE0101960F9462480F94E546BE016F5F4D
:104560007F4F8FEE98E00F94CE468AE00E94BA37D4
:104570000C9405308033910509F4E2C364F4813270
:10458000910509F4CBC38A9711F00C94EE2F0E9489
:10459000D0E80C9405308934910509F4D5C38B34E7
:1045A000910511F00C94EE2F0E9495350C94053076
:1045B0008B36910509F41EC5F4F58435910509F48F
:1045C00026C604F58135910509F404C654F48D34EA
:1045D000910509F4D0C38E34910509F4D0C30C942D
:1045E000EE2F8235910509F40BC68335910511F044
:1045F0000C94EE2F80913B038F7E806280933B036F
:104600000C9405308836910509F44BC454F4853573
:10461000910509F4FFC58C35910509F41EC60C946B
:10462000EE2F8936910509F48DC48A36910509F477
:104630009DC40C94EE2F8137910509F441C5DCF43B
:104640008E36910509F4E5C45CF48C36910511F4BD
:104650000C9405308D36910509F44AC40C94EE2F64
:104660008F36910509F4E7C48037910511F40C9455
:1046700005300C94EE2F8537910509F47BC66CF458
:104680008237910509F473C68337910511F00C94B4
:10469000EE2F0E945FF40C9405308637910509F4E3
:1046A0007AC68737910511F00C94EE2F0E94057A97
:1046B0000C9405308039E1E09E0711F40C94C12D73
:1046C0000CF084C08D3C910509F4A3C7ECF58B393F
:1046D000910509F456C5E4F48D37910509F477C5C1
:1046E0006CF48937910511F00C94EE2F1092460569
:1046F000109245050E945C7A0C9405308C38910527
:1047000009F400C58139910509F486C60C94EE2F91
:10471000893C910509F43BC754F48E3B910509F49B
:1047200010C5883C910509F4EBC60C94EE2F8B3C28
:10473000910509F44FC78C3C910511F00C94EE2FB4
:104740000E9486EA0C940530823221E0920711F42F
:104750000C946F2CD4F48D3D910509F487C754F463
:10476000833D910509F458C78C3D910509F457C75D
:104770000C94EE2F823E910509F4CEC7883191400A
:1047800011F40C94D82B0C94EE2F8E32B1E09B07D1
:1047900011F40C947A2D6CF48C32F1E09F0711F433
:1047A0000C94722C8D32914011F40C94872C0C9443
:1047B000EE2F8F3231E0930711F40C94BE2D80332D
:1047C000914011F40C94072D0C94EE2F883FB1E02A
:1047D0009B0711F40C94C02E0CF05BC0853AF1E0FD
:1047E0009F0711F40C94D92D4CF58A3931E09307C9
:1047F00011F40C9405309CF48139B1E09B0711F45D
:104800000C94C42D8239914011F00C94EE2F0F942A
:10481000D6000F94DF000E9470790C9405308C391B
:10482000F1E09F0711F40C94CE2D843A914011F0E1
:104830000C94EE2F0E949FC60C940530853F31E00A
:10484000930711F40C94BA2E7CF4863EB1E09B07DA
:1048500011F40C944E2E843F914011F00C94EE2FE5
:104860000E94BF920C940530863FF1E09F0711F43F
:104870000C94BD2E873F914011F00C94EE2F61E017
:1048800083E50E94E0FA91E089270E943D880C941C
:104890000530833533E0930711F40C94572F2CF532
:1048A0008B35B2E09B0711F40C94DD2E7CF48C3038
:1048B000F2E09F0711F40C94D02E8835924011F04D
:1048C0000C94EE2F0E94E1E60C9405308D3B32E013
:1048D000930711F40C94542F8E3B924011F00C94DA
:1048E000EE2F0E94D0E40C940530803AB3E09B0791
:1048F00009F418C26CF48C36F3E09F0711F40C94A1
:1049000005308438934011F40C945A2F0C94EE2FF8
:10491000873E33E0930711F40C94C32F893E9340F4
:1049200011F40C94D12F0C94EE2F80E50E94C4FA60
:10493000882329F00E94FCEA6B017C0103C0C12C92
:10494000D12C760183E50E94C4FA882361F00E948D
:1049500044FA20E030E04AE754E40F94E2620F9416
:10496000056B6B017C010F94CE178091140490911C
:104970001504009721F061E00F94624805C060E0E3
:104980008EE598E00F94AB478091090E90910A0E46
:10499000892B19F066E578E002C06EE478E020E04B
:1049A00030E047EC56E382E00E94D8FE40E0C701C9
:1049B000B6010E94763F0F94860C0C9405308091CE
:1049C0000C0E84FF02C00C94EC3280910E0E87FF17
:1049D00002C00C94EC3280910F0E837011F00C9495
:1049E000EC320C9408338091421483FF25C089E88F
:1049F00098E00F94F8458091421483FF17C086E138
:104A000092E10E947AA48BE1E6E1F2E1DE011196E7
:104A100001900D928A95E1F760E070E0CE01019679
:104A20000E94A39FCE0101960E94DCA58AE798E030
:104A30000F94F8450C9405300F94E5468AE998E008
:104A40000F94F8450C9405300E94809E0C9405301C
:104A5000E0911404F09115048081882329F08032BC
:104A600009F410823196F8CF60E08091140490919F
:104A700015040E94B99C1092560F0C940530809139
:104A800013078823F9F080E090E0A0EAB1E488A35E
:104A900099A3AAA3BBA31C8E1D8E1E8E1F8E1982E6
:104AA0001A821B821C8200E010E020E0AE01405E12
:104AB0005F4FBE01645E7F4FCE0101960E94C1FC34
:104AC0000C9405300E947135882321F00E94D29DFC
:104AD0000E94953561E088EA9CE30E94A9FC40E7CA
:104AE0005CE364EA78E085E00F94AD0D0F94860CEA
:104AF0000C9405308091421483FD02C00C94053063
:104B000083E50E94C4FA81110C9416330C9405308D
:104B100083E40E947BFA8823C1F18AEB98E00F942A
:104B2000F8458091C011882339F1BE016F5F7F4F36
:104B30008DEB91E10E94E2A58E010F5F1F4FF801FE
:104B400081918F01882319F00E94BA37F8CFCE01E6
:104B500001960E946C9A8091FB0E882389F080E276
:104B60000E94BA370BEF1EE0D8018D918D0188238A
:104B700039F00E94BA37F8CF80EB98E00F94F845EF
:104B80008AE00E94BA370C94053083E50E94C4FA8B
:104B9000882309F10E941CFA182F90E0CD970CF0A1
:104BA0001CE3109330030F941F3D6B017C01212FF8
:104BB00030E0A8EEB3E00F942669C60ED71EE81EBB
:104BC000F91EC0922C03D0922D03E0922E03F09296
:104BD0002F030C9405300E942E9C0C94053080917C
:104BE00042148E7F809342140C94053080914214BD
:104BF00083FD02C00C9405300F94B60D80914214D1
:104C000083FD02C00C9405304091140450911504AA
:104C1000BE01645E7F4F80E00F94D82F8C01009717
:104C200011F40C9405306C8D7D8D19821C8222E06C
:104C3000AC01CE0101960E94DBA9811102C0F12CCA
:104C400014C0CE0101960F94462F8823C1F361E072
:104C5000CE0101960E9484A5009789F325EEFC0100
:104C600020831C820E9433A1F82ECE0101960E945F
:104C7000DCA5B801FF2099F081EE98E00F94CE46B4
:104C80008AE00E94BA3710923E1410923F1410929C
:104C90004014109241140E94E19A0C94053089EC62
:104CA00098E00F94CE4688E596E30F94F8450C946F
:104CB00005308091421482FD0F94CE1780914214EA
:104CC00083FD02C00C94053060E080E50E94E0FAAC
:104CD000182F682F80911404909115040E94B99C9C
:104CE00083E50E94C4FA882381F00E940CFAAB018C
:104CF000BC0140933E1450933F1460934014709352
:104D000041148DEB91E10E94E3A30E94D29D111109
:104D10000C9405300E9495350C9405300E94BB55CB
:104D20000C94053020911404309115049091421494
:104D3000926090934214C9010E946F9C0C940530BC
:104D40000F94B4020C94053080E50E947BFA88230E
:104D500011F40C9405300E941CFA90E08536910500
:104D600010F084E690E08093560F0C9405300E947A
:104D7000BA7A0C9405300F949B150C94053060E0C2
:104D800070E083E50E94D1FA8E34910531F40F94DE
:104D90000C160F94860C0C94053082E599E00F9464
:104DA000F845609135057091360589E499E00F94D6
:104DB000A34660913705709138058CE399E00F9414
:104DC000A346609135057091360580913705909125
:104DD0003805681B790B80913D0F815021E030E050
:104DE000823010F020E030E0621B730B81E399E029
:104DF0000F94A3468AE00E94BA3782E599E00F94A7
:104E0000F8458091390590913A05A0913B05B09104
:104E10003C058C8F9D8FAE8FBF8FBE016F5F7F4F24
:104E2000CE014C960E94DC54BE016F5F7F4F84E23E
:104E300099E00F94CE4680913D0590913E05A0915A
:104E40003F05B09140058C8F9D8FAE8FBF8FBE0107
:104E50006F5F7F4FCE014C960E94DC54BE016F5FA6
:104E60007F4F84E199E00F94CE4620E030E04AE79E
:104E700054E4609141057091420580914305909101
:104E800044050F948C6AAB01BC018CEF98E00F9441
:104E9000B0468DE60E94BA378AE00E94BA370C9479
:104EA00005308091630D83FF02C00C9405300E9491
:104EB000A7E487FF02C00C94053089E40E94C4FA7D
:104EC000882311F40C9427330E941CFA90E01816E2
:104ED000190614F481E090E026E0289FF001299F54
:104EE000F00D1124EA5BFB4F808191810C943133EA
:104EF0008091630D83FF02C00C9405300E94A7E4EB
:104F0000F82E87FF02C00C94053089E40E94C4FA91
:104F1000082F882311F40C943A330E941CFA90E075
:104F20001816190614F481E090E026E0289FF0019D
:104F3000299FF00D1124EA5BFB4F8081918110E0E5
:104F40000C944A330E94A7E4182F87FD0AC080E121
:104F500093E30F94F845812F0F94BA318AE00E94B1
:104F6000BA37FCA9F093EA0E0C943F3460E080E578
:104F70000F94A802F82E21E0281710F40C940530A5
:104F800081E40E947BFA882329F06091D907062FDB
:104F900010E002C00FEF10E089E40E94C4FA8823F9
:104FA00099F00E941CFA90E01816190614F481E09A
:104FB00090E026E0289FF001299FF00D1124EA5B84
:104FC000FB4F0481158108C083E50E94C4FA882341
:104FD00019F00E940CFA8B01EF2DF0E0E752F84F28
:104FE000B8010F3F110519F010F06FEF70E060830A
:104FF0000C94053060E080E50F94A802823010F038
:105000000C940530E82FF0E0E752F84F10820C9432
:1050100005308EE40E94C4FA882311F40C94053004
:105020000E940CFA60931004709311048093120490
:1050300090931304EAC783E50E947BFA882331F03A
:1050400060E083E50F94A8028093630D0F94E5461A
:105050008FE599E00F94F8458091630D882369F1FD
:10506000F9EBEF2EFAE0FF2E00E010E020E0809157
:10507000630D90E0A0E0B0E0002E04C0B695A795C7
:10508000979587950A94D2F780FF0EC0DD24D394BC
:10509000D20E222319F08CE20E94BA37F7018591D3
:1050A00094910F94F8452D2D0F5F1F4F32E0E30EC2
:1050B000F11C05301105D9F663CD8AEF9BE35ECD77
:1050C00083E50E94C4FA882371F00E941CFA282FFD
:1050D00030E02D3331051CF48093000296C78CE339
:1050E0008093000292C70F94E5464091000250E081
:1050F00060E070E086E699E00F9492468AE00E94B4
:10510000BA3783C78091630D83FD7FC789E40E940E
:10511000C4FA882311F40C9494330E941CFA90E092
:105120001816190614F481E090E026E0289FF0019B
:10513000299FF00D1124EA5BFB4F828193810C942F
:105140009F338091630D83FD60C789E40E94C4FA98
:10515000882311F40C94A6330E941CFA90E01816D0
:10516000190614F481E090E026E0289FF001299FC1
:10517000F00D1124EA5BFB4F8281938110E00C94C7
:10518000B73383E50E94C4FA882309F43EC70E941E
:105190001CFA182F90E0CD970CF01CE31093350308
:1051A0000F941F3D6B017C01212F30E0A8EEB3E08E
:1051B0000F942669C60ED71EE81EF91EC092310351
:1051C000D0923203E0923303F09234031EC70E9460
:1051D000F8E71BC70F9419370F949B150F94DF172F
:1051E0000E94A83568EE73E080E090E00F943845A7
:1051F0000E94AD3560E08BE899E00F94AB4705C79E
:1052000080913B038F7D806180933B03FEC60E94AB
:10521000EBE9FBC683E50E947BFA882309F4F5C617
:105220000F941F3D6093A0157093A1158093A21554
:105230009093A3150E9444FA20E030E04AE754E43A
:105240000F94E2620F94056B6093360370933703FB
:105250008093380390933903D8C60E94A7E487FD52
:10526000D4C690910C0E94FD04C090910E0E97FF41
:105270000AC07AEEC72E72E0D72EE4E6EE2EEDE0FD
:10528000FE2E10E009C090910F0E937091F7682FD9
:1052900081E00E944BEAB9C6D6018D916D010E9452
:1052A000C4FA882309F459C0133009F04FC00E9492
:1052B00044FA4B015C0120E030E040EA51E40F94F5
:1052C0007C6287FF3AC0A50194016091840D7091C2
:1052D000850D8091860D9091870D0F948C6A2B011E
:1052E0003C019B01AC016091940D7091950D8091F2
:1052F000960D9091970D0F94E2626093940D7093C8
:10530000950D8093960D9093970D6091C9077091BC
:10531000CA078091CB079091CC070F948162A301BB
:1053200092010F94E2620F94056B6093C90770932A
:10533000CA078093CB079093CC078092840D9092FC
:10534000850DA092860DB092870D07C00E9444FA89
:10535000F701648B758B868B978B1F5FF4E0EF0EE4
:10536000F11C143009F098CF0F94B2164EC60E946B
:10537000E0F44BC68091140490911504009741F01D
:10538000DC012C91222321F060E00F9462483DC69D
:105390000F94860C3AC6009114041091150494E001
:1053A000F12C40E0915021F1F8018081282F2B7FD2
:1053B000213421F421812133D9F407C08035C1F48F
:1053C000818180538A3048F013C0813421F08534C4
:1053D00021F441E002C0FF24F39498012E5F3F4F77
:1053E00089012F5F3F4FF80180818032C9F3DACF06
:1053F00041110F94E546FF2021F089E999E00F94CF
:10540000F845C8010E94C53800C620934605209380
:1054100045050E945C7AF9C560E070E083E50E9472
:10542000D1FA823038F00F94E1468DE999E00F947B
:10543000F845EBC58C01112788E40E94C4FA882343
:10544000E1F00E9440FA8A3A910544F00E9440FA45
:10545000813F910534F40E9440FA05C08AEA90E049
:1054600002C080EF90E026E0209FF001219FF00D28
:105470001124EA5BFB4F9183808382E40E94C4FA8B
:105480008823D9F00E9440FA059744F00E9440FA20
:105490008F36910534F40E9440FA05C085E090E013
:1054A00002C08EE690E026E0209FF001219FF00DE3
:1054B0001124EA5BFB4F9383828386E40E94C4FA43
:1054C000882309F4A2C50E9440FA97FD09C00E94F2
:1054D00040FA8F3F910509F034F40E9440FA05C06C
:1054E00080E090E002C08FEF90E026E0209FF00186
:1054F000219FF00D1124EA5BFB4F9583848385C5C2
:105500000E94A7E4182F87FD80C50091BF0484E4A2
:105510000E94C4FA882311F40C94E0330E9444FAE8
:105520006B017C0120E030E0A9010F947C628823AC
:1055300041F124E01202F0011124E554FB4FC08236
:10554000D182E282F38220E030E0A9016091BB04C5
:105550007091BC048091BD049091BE040F947C6254
:1055600081110CC080E090E0A0EEBFE38093BB040B
:105570009093BC04A093BD04B093BE0401E00C94CE
:10558000E03380E08093BF040F9416143EC50E9460
:10559000A7E487FD3AC56AEEE62E62E0F62E04E641
:1055A0001DE0D7018D917D010E947BFA882359F07F
:1055B0000E9444FA0F94056BF80160837183828323
:1055C00093830F943B160C5F1F4FFDE004371F07BA
:1055D00041F71BC50E94A7E487FD17C55AEEE52ECB
:1055E00052E0F52E04E61DE0D7018D917D010E9469
:1055F0007BFA882339F00E9444FAF80164A375A36A
:1056000086A397A30C5F1F4FFDE004371F0761F7C8
:10561000FCC40E940CEBF9C40E9432E9F6C483E595
:105620000E94C4FA882331F00E9440FA9093090244
:105630008093080280910C0E90910D0EA0910E0E99
:10564000B0910F0E892B8A2B8B2B09F0DEC4609151
:105650000802709109028FEB99E00F94C14685E230
:105660000E94BA378AE00E94BA37CFC40E94A7E4EA
:10567000F82E87FDCAC483E50E94C4FA0F2D0F2CB3
:10568000000C110B882369F10E9440FAF801EE0F1B
:10569000FF1FEF5BFD4F91838083000F111F000FF1
:1056A000111F98012A5D3D4F7901BC01990F880BAC
:1056B000990B0F9483622AE037ED43E25CE30F9489
:1056C000E262F801EF5BF04F20813181428153812A
:1056D0000F94E262D7016D937D938D939C93139702
:1056E00094C40F94E54685E40E94BA3780E38F0D99
:1056F0000E94BA37000F111FF801EF5BFD4F608168
:10570000718183EC99E00F94C14685E20E94BA371B
:105710008AE00E94BA3779C480E50E947BFA882328
:1057200009F473C460E070E080E50E94D1FAF82EBD
:105730006FEF7FEF83E50E94D1FA8C01019603970A
:1057400008F063C4F7FC61C48F2D0E944C35882398
:1057500039F00F94E1468BEC99E00F94F84555C46D
:105760000F94CE1760E08F2D0F94E03B0F3FBFEFFB
:105770001B0731F00130110571F000E010E00DC0A1
:105780008F2D0F94245D31E020E0892B09F030E06B
:10579000032F122F02C001E010E08F2D0F94245D23
:1057A0008017910709F431C480E00E94E638F5CFF4
:1057B00080E50E947BFA882309F427C40E9440FAFE
:1057C0008C01892B09F07FC083E50E947BFA882336
:1057D00089F00E9440FA8F3FEFEF9E0729F48CE892
:1057E00092E10E94B03511C4BC018CE892E10E94A4
:1057F00070360BC40F94E54660E070E08AED99E0E6
:105800000F94C14680918E1228E532E06901C81AD2
:10581000D10887FDD394CC0CDD1CCC0CDD1C0D2CE9
:10582000000CEE08FF0880918D1228E830E0490155
:10583000881A910887FD9394880C991C880C991CF0
:10584000092C000CAA08BB0880918C128F3FC1F074
:1058500090E0FC01EE0FFF1F8E0F9F1FFC01ED5B20
:10586000FD4E2181328113E0220F331F1A95E1F79B
:1058700004E0369527950A95E1F72E5F3F4F02C069
:1058800020E030E02F5F3F4FC901330FAA0BBB0B65
:105890009C01AD01281939094A095B09A4EBB0E064
:1058A0000F941369A7019601281939094A095B0960
:1058B0000F94F468B90187E39AE00F94C1468AE037
:1058C0000E94BA37A2C30F94E146B8018BED99E06C
:1058D0000F94C1468FE398E00F94F84596C30E9459
:1058E000CCEF93C364E071E083E50E94BDE88C01D6
:1058F00068EE73E080E50E94BDE88938F3E19F0718
:1059000010F088E893E1B8010E94EC7E7EC360E06D
:1059100085E40F94A802811173C080E50E947BFA90
:10592000882351F00E9444FA6093A60F7093A70F4A
:105930008093A80F9093A90F89E40E947BFA882393
:1059400081F00E9444FA2CEA35EC47E25EE30F94C2
:10595000E2626093AA0F7093AB0F8093AC0F9093A9
:10596000AD0F84E40E947BFA882381F00E9444FA00
:105970002CEA35EC47E25EE30F948C6A6093AE0F3D
:105980007093AF0F8093B00F9093B10F0F94E546D3
:105990004091A60F5091A70F6091A80F7091A90F89
:1059A0008AEE99E00F94B0462CEA35EC47E25EE3CC
:1059B0006091AA0F7091AB0F8091AC0F9091AD0FD9
:1059C0000F948C6AAB01BC0186EE99E00F94B0464F
:1059D0002CEA35EC47E25EE36091AE0F7091AF0FB9
:1059E0008091B00F9091B10F0F94E262AB01BC01B6
:1059F00082EE99E00F94B0468AE00E94BA3705C360
:105A00000F94E1468BE599E30F94F845FEC280E5DB
:105A10000E947BFA882351F00E9444FA6093AF15EC
:105A20007093B0158093B1159093B21589E40E94DC
:105A30007BFA882381F00E9444FA2CEA35EC47E295
:105A40005EE30F94E2626093B3157093B415809394
:105A5000B5159093B61584E40E947BFA882381F0F3
:105A60000E9444FA2CEA35EC47E25EE30F948C6A1C
:105A70006093B7157093B8158093B9159093BA15C4
:105A80000F94E5464091AF155091B0156091B11556
:105A90007091B2158AEE99E00F94B0462CEA35EC7D
:105AA00047E25EE36091B3157091B4158091B5152E
:105AB0009091B6150F948C6AAB01BC0186EE99E00B
:105AC0000F94B0462CEA35EC47E25EE36091B715DF
:105AD0007091B8158091B9159091BA150F94E26242
