:100000000C947C190C94AD190C94AD190C94AD1989
:100010000C94AD190C94AD190C94AD190C94AD1948
:100020000C94AD190C94AD190C94AD190C94AD1938
:100030000C94AD190C94AD190C94AD190C94AD1928
:100040000C94AD190C945BDC0C94AD190C94AD19A7
:100050000C94AD190C94AD190C94148C0D94510F93
:100060000C94AD190C940B380C9401380C94AD1908
:100070000C94AD190C94AD190C94AD190C94AD19E8
:100080000C94AD190C94AD190C94AD190C94AD19D8
:100090000C94AD190C94AD190C94AD190C94AD19C8
:1000A0000C94AD190C94AD190C94AD190C94AD19B8
:1000B0000C94AD190C94AD190C94AD190C94AD19A8
:1000C0000C94AD190C94AD190C94AD190C94AD1998
:1000D0000C94AD190C94AD190C94AD190C94AD1988
:1000E0000C94AD1941385338653876387E38B138BC
:1000F0008238B13886388A38B1388E389238963896
:100100009F38B138AA38B4BB97BB9ABBB7BB9DBB6D
:10011000A0BBA3BBAFBBA6BBC2BBA9BBACBB66FBB2
:1001200069FB58FB5CFB62FBA0FB6DFB71FB77FB83
:100130007BFB7FFB85FB89FB8DFBA0FB93FB97FB88
:100140009BFB8FFD94FD99FDA3FDADFD26FEB7FD44
:10015000BFFDC7FDD1FDDBFDE5FDF4FDFEFD26FE87
:1001600008FE12FE1CFEE70159017702E101770249
:1001700077027702770277027702770277027702B7
:1001800077027702770277027702770277027702A7
:100190007702770277027702770277027702770297
:1001A00077027B0277027702770277027702770283
:1001B00077027702410277027702770277027702AD
:1001C000770277027702770277028B025F01084A93
:1001D000D73B3BCE016E84BCBFFDC12F3D6C74315B
:1001E0009ABD56833DDA3D00C77F11BED9E4BB4CB2
:1001F0003E916BAAAABE000000803F05A84CCDB27C
:10020000D44EB93836A9020C50B9918688083CA65C
:10021000AAAA2ABE000000803F000C94EBBB0C94FD
:1002200097B50C9489BD0C949ABB0C9462BD0C9448
:1002300012FE0C94BCBC0C9493FB0C949DBB0C94D0
:10024000C1B70C9477FB0C94DAC30C94DF620C9466
:1002500089620C94D3C80C948A380C9496A10C949F
:10026000BFFD0C94E2C80C94A6C20C94B6BD0C94CD
:10027000A0BB0C94CE620C94B7620D941B030C943B
:10028000D4BD0D94A70C0C948FA10C94ADFD0C94CF
:10029000BEC20C94B7450C94B9B70C942D9F0C9426
:1002A00039A10C943DAE0C94D8C30C9497BB0C941C
:1002B000D6C30D941D0D0C94BDB70C947ABD0D944E
:1002C000530D0C94E6B70C9477BB0C94B7FD0C94CB
:1002D00053BD0C9438BD0C94D1B70C94ADB70C94AD
:1002E00000BD0C946BBB0C941CFE0C94A4BD0C9430
:1002F000B1B70C94B3450C942FD00D946C160C949C
:1003000026FE0C9496380C948FFD0C9489FB0C946B
:100310009EBD0C94D7B70C94F9B70C941FBD0D94E7
:100320002B160C94A3BB0D94AD0C0C94B0C50C947F
:1003300058FB0C94DAB70C9485FB0C9486380C941B
:10034000ACBB0C94A6BB0C9463BE0C945DCB0C941C
:1003500062FB0C94D2BB0C94DE450C94389F0C9439
:1003600076380C94AA380C94C9B70C94C2BB0C9480
:10037000E4C30C94C4BB0C9472620C9440460C947D
:10038000487A0C9443CE0C946DFB0D94CF000C94E2
:10039000BCBD0D9424010C94FFB70C9482380C94CE
:1003A00006CC0C949D7B0C948ABC0C94AACB0C9428
:1003B00094FD0C94E5FD0C947E380C948DFB0C940C
:1003C00074800D94EA0E0C94D4B70C94D4C30D949D
:1003D000AE0E0C94DCC30C9499FD0C94A3FD0C940C
:1003E00018630C94FECB0C946BB50D9439010D94ED
:1003F00035010C9471FB0C94C8BD0C9466FB0C94F5
:1004000041810C9471BD0C94537A0C94BAA20C9453
:10041000FEFD0C9408FE0C9432CB0C94DC8B0C94F7
:1004200078B90C94229F0C9447BD0D94AA0C0C949F
:10043000ABCF0C949D670C94CDB70C947EB50C9407
:10044000A9B70C94DBFD0C9404BC0C94F4FD0C9443
:1004500096670C949BFB0C9463CB0C94D1FD0C948D
:1004600097FB0C9457CB0C942AC00C94AABD0C9407
:100470001FBC0C945CFB0C9469CB0C94AFBB0C942C
:10048000FF9E0D94BD0E0C94E0C30C9469FB0C947C
:1004900045BC0C9492670C9498BD0C94B0BD0C9420
:1004A0002DCB0C94A0FB0C94E7C80C9492380C94C0
:1004B000B4450C94B5B70C943BA10C94A0620C9479
:1004C000B5C20C945EBC0C943DA10C94CEBD0C94B2
:1004D000E77D0D94E1020C94727A0C9440CD0C945B
:1004E000B7BB0C9432BC0C94E2C30C9441380D940D
:1004F000560D0C94DEC30D94E40E0C94D8C80C94E5
:100500007BFB0C9429BD0D9486160C94C7FD0C94AE
:1005100071BC0C94C2BD0D94010F0C94B4BB0C942F
:100520008E380C94C5B70C9465380C94A3BC0C940D
:1005300053380D943D010C94D5CF0C94DDC80C9428
:10054000B1380C94767C0C94A9BB0C9403D00C9419
:1005500051CB0C947FFB0D9420010C9478E50C9406
:100560009F380C94047B0C9405B80C947FEA0C948F
:1005700037CB4E414E494E495459494E46CDCCCCCD
:100580003D0AD7233C17B7D13877CC2B329595E667
:10059000241FB14F0A000020410000C84200401C47
:1005A0004620BCBE4CCA1B0E5AAEC59D7400407A94
:1005B00010F35A00A0724E18090010A5D4E80000EC
:1005C000E87648170000E40B54020000CA9A3B008A
:1005D0000000E1F505000080969800000040420F01
:1005E000000000A08601000000102700000000E8C5
:1005F00003000000006400000000000A000000008A
:10060000000100000000002C76D888DC674F08232A
:10061000DFC1DFAE59E1B1B796E5E3E453C63AE690
:1006200051997696E8E6C28426EB898C9B62ED4070
:100630007C6FFCEFBC9C9F40F2BAA56FA5F49005BF
:100640005A2AF75C936B6CF9676DC11BFCE0E40DF3
:1006500047FEF520E6B500D0ED902E0300943577E7
:10066000050080841E080000204E0A000000C80C0F
:10067000333333330F986E12831141EF8D21148978
:100680003BE65516CFFEE6DB18D1844B381BF77CD2
:100690001D901DA4BBE424203284725E228100C917
:1006A000F124ECA1E53D27434F4D4D554E494341C3
:1006B00054494F4E0044525952554E004552524FE4
:1006C0005253004543484F0047322F473320626161
:1006D0006420706172616D65746572730A00536C99
:1006E0006565702E2E2E00486F6D6520257325736D
:1006F0002573204669727374004D302053746F70F7
:10070000004D312053746F7000436C69636B20742B
:100710006F20526573756D652E2E2E004E6F204D25
:100720006F76652E00456E642066696C65206C6985
:1007300073740A00426567696E2066696C65206C97
:100740006973740A004E6F206D656469610A005216
:100750006573756D696E6720534400286E6F20665F
:10076000696C65290043757272656E742066696CE8
:10077000653A200044656C6574696F6E2066616936
:100780006C65642C2046696C653A200046696C658E
:100790002064656C657465643A005072696E7420FB
:1007A00074696D653A2000496E76616C6964205009
:1007B000696E204D6F64650A000A53746174733A60
:1007C0002046696C616D656E7420757365643A20AE
:1007D000002C204C6F6E67657374206A6F623A203C
:1007E00000546F74616C2074696D653A20002C2090
:1007F0004661696C65643A20002C2046696E697315
:100800006865643A20005072696E74733A20005330
:10081000746174733A2000452025530044454255C5
:10082000473A004D31313320530043522D313020AF
:100830005632204F46462E004348414D4245525FB6
:1008400054454D504552415455524500424142593C
:100850005354455050494E470041524353004D4F69
:1008600054494F4E5F4D4F44455300544845524DF7
:10087000414C5F50524F54454354494F4E004C4FEA
:100880004E475F46494C454E414D45004155544FFA
:100890005245504F52545F53445F53544154555343
:1008A000005344434152440050524F4D50545F5303
:1008B0005550504F525400454D455247454E4359AF
:1008C0005F50415253455200434153455F4C4947A5
:1008D00048545F4252494748544E45535300544F81
:1008E00047474C455F4C494748545300534F465483
:1008F000574152455F504F574552004255494C446D
:100900005F50455243454E54004C4556454C494E68
:10091000475F44415441005A5F50524F42450041A5
:1009200055544F4C4556454C005052494E545F4A21
:100930004F420050524F4752455353004155544F78
:100940005245504F52545F54454D5000564F4C55F0
:100950004D45545249430042494E4152595F464920
:100960004C455F5452414E534645520053455249FF
:10097000414C5F584F4E5F584F4646004649524DD6
:10098000574152455F4E414D453A4D61726C696E1B
:1009900020322E302E3720285365702033302032FD
:1009A0003032302031363A35363A30362920534FFE
:1009B000555243455F434F44455F55524C3A687426
:1009C0007470733A2F2F6769746875622E636F6D48
:1009D0002F4D61726C696E4669726D776172652F19
:1009E0004D61726C696E2050524F544F434F4C5FB3
:1009F00056455253494F4E3A312E30204D414348CF
:100A0000494E455F545950453A43522D3130205696
:100A1000322045585452554445525F434F554E5429
:100A20003A3120555549443A63656465326132660E
:100A30002D343161322D343734382D396231322D35
:100A40006335356336326633363766660A002F2FD4
:100A500020004D31343520533C696E6465783E206A
:100A60006F7574206F662072616E67652028302D67
:100A700031290A00416363656C65726174696F6E48
:100A80003A20500046523A0020466C6F773A2000D8
:100A900050726F7465637465642050696E0A00203B
:100AA000643A0020693A0020703A00496E76616C21
:100AB00069642065787472756465720A006469738C
:100AC0000043290A0061626C656420286D696E200C
:100AD00074656D702000436F6C6420657874727566
:100AE00064657320617265200046696C616D656E96
:100AF000742072756E6F75742064697374616E63AF
:100B00006520286D6D293A200046696C616D656E1F
:100B1000742072756E6F75742000454550524F4DAC
:100B2000204F4B0A002028302D31302900207661DB
:100B30006C7565206F7574206F662072616E6765D5
:100B400000416476616E6365204B3D00446F6E65C5
:100B5000207072696E74696E672066696C650A0040
:100B60004D3737004D333100C306860BBC06B50642
:100B7000A706554E4B4E4F574E20535441544500F7
:100B800047434F44455F494E464F004C43445F50F6
:100B9000415553455F524553554D450046494C41DB
:100BA0004D454E545F52554E4F55545F434F4E5432
:100BB000494E55450046494C414D454E545F5255AE
:100BC0004E4F5554004D38373620526573706F6E56
:100BD00064696E672050524F4D50545F00457272E9
:100BE0006F722077726974696E6720746F20454553
:100BF00050524F4D210A0053544F505045442E201F
:100C0000005072696E7465722073746F70706564E1
:100C10002064756520746F206572726F72732E2068
:100C200046697820746865206572726F7220616E03
:100C30006420757365204D39393920746F207265D1
:100C400073746172742E202854656D7065726174BE
:100C50007572652069732072657365742E20536503
:100C600074206974206166746572207265737461A2
:100C70007274696E67290A004E6F20436865636B62
:100C800073756D2077697468206C696E65206E7568
:100C90006D6265722C204C617374204C696E653AEC
:100CA0002000636865636B73756D206D69736D619A
:100CB0007463682C204C617374204C696E653A2013
:100CC000004C696E65204E756D62657220697320F7
:100CD0006E6F74204C617374204C696E65204E7584
:100CE0006D6265722B312C204C617374204C696EDF
:100CF000653A20004D313130005344207265616403
:100D0000206572726F720A002121204B494C4C20E1
:100D1000636175736564206279204B494C4C206295
:100D20007574746F6E2F70696E0A002121204B4913
:100D30004C4C2063617573656420627920746F6F19
:100D4000206D75636820696E6163746976652074CF
:100D5000696D65202D2063757272656E7420636FF6
:100D60006D6D616E643A2000627573793A2070612E
:100D70007573656420666F7220696E7075740A0001
:100D8000627573793A2070617573656420666F725D
:100D900020757365720A00627573793A2070726FFC
:100DA00063657373696E670A004D656469612052FB
:100DB000656D6F766564004D6564696120496E7389
:100DC0006572746564007061757365004D3630300E
:100DD000002066696C616D656E745F72756E6F750B
:100DE00074200066696C616D656E745F72756E6FFC
:100DF000757420540046696C616D656E7452756E31
:100E00006F7574205400363726033C3D380E2E3063
:100E10003E121A1C180AFF4308090708440001443F
:100E20006966663A2020200046726F6D5374703AEE
:100E300000537465707065723A005261773A2020F1
:100E40002020000A4C6F676963616C3A00436F753C
:100E50006E7420453A004361703A00656E717565A5
:100E60007565696E672022006F6B00526573656E51
:100E7000643A200025697920256964202569682065
:100E800025696D202569730042656420436F6F6C8E
:100E9000696E672E2E2E0042656420486561746974
:100EA0006E672E2E2E0023646566696E65204445AC
:100EB0004641554C545F004B6420004B6920004B69
:100EC000702000504944204175746F74756E652020
:100ED00066696E6973686564212050757420746852
:100EE00065206C617374204B702C204B6920616EFF
:100EF00064204B6420636F6E7374616E747320663C
:100F0000726F6D2062656C6F7720696E746F20431D
:100F10006F6E66696775726174696F6E2E680A001C
:100F2000504944204175746F74756E65206661691F
:100F30006C6564212074696D656F75740A000A2000
:100F4000436C617373696320504944200A00204B4D
:100F5000643A2000204B693A2000204B703A200070
:100F60000A204E6F206F76657273686F6F740A0087
:100F70002054753A2000204B753A2000206D61788E
:100F80003A2000206D696E3A200020643A2000204B
:100F9000626961733A2000504944204175746F744E
:100FA000756E652073746172740A00504944204163
:100FB00075746F74756E65206661696C6564212057
:100FC00054656D706572617475726520746F6F2001
:100FD000686967680A00504944204175746F7475E8
:100FE0006E6500504944204175746F74756E6520BC
:100FF0006661696C65642120426164206578747261
:1010000075646572206E756D6265720A0045727254
:101010003A207574663820666F6E74206E6F742087
:10102000696E697469616C697A65642E00000C0FE1
:1010300000FE07022503BB017FFE08FE08FE05082F
:101040000806000040F0C88888987810050808064F
:101050000000C0F88888888888F805050506000122
:101060002030F830200508080600002070F8202005
:101070002020E00509090600FF2070A8A8B888888C
:101080007020070505070001D86C366CD8050909E2
:101090000600FFF8A88888888888A8F8050A0A0644
:1010A00000FE205050505088A8A888700303030603
:1010B000000340A040FFFFFFFFFFFFFFFFFFFFFF18
:1010C000FFFFFFFFFFFFFFFFFFFFFF000000060520
:1010D000FF010707060200808080808000800303F4
:1010E00003060105A0A0A005060606000050F85062
:1010F00050F8500509090600FF2070A8A07028A824
:101100007020050707060000C8C810204098980501
:10111000070706000040A0A040A89068010303064E
:1011200002058080800309090601FF20404080807D
:10113000804040200309090601FF80404020202014
:1011400040408005070706000020A8702070A820F6
:101150000505050600012020F820200203030601F2
:10116000FFC04080050101060003F80202020601EB
:1011700000C0C0050707060000081010204040808E
:10118000050707060000708898A8C888700307073D
:1011900006010040C040404040E00507070600004F
:1011A000708808102040F8050707060000F80810AE
:1011B0003008887005070706000010305090F810BE
:1011C00010050707060000F880F00808887005077A
:1011D00007060000304080F0888870050707060089
:1011E00000F808101020202005070706000070886E
:1011F000887088887005070706000070888878085E
:101200001060020505060100C0C000C0C00206064D
:101210000601FFC0C000C040800305050601012093
:1012200040804020050303060002F800F80305058E
:1012300006010180402040800507070600007088F5
:1012400010202000200507070600007088B8A8B805
:101250008070050707060000708888F88888880570
:101260000707060000F04848704848F005070706E1
:10127000000070888080808870050707060000F0F5
:101280004848484848F0050707060000F88080F005
:101290008080F8050707060000F88080F0808080D5
:1012A000050707060000708880809888700507078A
:1012B000060000888888F8888888030707060100E8
:1012C000E04040404040E0050707060000381010AD
:1012D000101090600507070600008890A0C0A0903D
:1012E00088050707060000808080808080F8050759
:1012F0000706000088D8A8888888880507070600A0
:10130000008888C8A89888880507070600007088A4
:101310008888888870050707060000F08888F080B4
:10132000808005070706000070888888A8906805F7
:101330000707060000F08888F0A0908805070706D8
:10134000000070888070088870050707060000F8A4
:101350002020202020200507070600008888888894
:101360008888700507070600008888888850502004
:1013700005070706000088888888A8A85005070781
:10138000060000888850205088880507070600005E
:1013900088885020202020050707060000F8081044
:1013A000204080F80309090601FFE08080808080EA
:1013B0008080E005070706000080404020101008EC
:1013C0000309090601FFE020202020202020E0055D
:1013D00003030600052050880501010600FEF803FE
:1013E000030306010580402005050506000070087E
:1013F0007888780507070600008080F0888888F0E4
:101400000505050600007080808870050707060046
:101410000008087888888878050505060000708827
:10142000F08070050707060000304840E04040406B
:101430000507070600FE708888887808700507078A
:101440000600008080F0888888880307070601006E
:101450004000C0404040E00409090601FE10003091
:10146000101010109060050707060000808088901B
:10147000E09088030707060100C04040404040E07C
:10148000050505060000D0A8A8A8A80505050600C2
:1014900000B0C8888888050505060000708888881F
:1014A000700507070600FEF0888888F08080050731
:1014B000070600FE78888888780808050505060074
:1014C00000B0C8808080050505060000788070089F
:1014D000F00507070600002020F820202018050549
:1014E00005060000888888986805050506000088BC
:1014F000888850200505050600008888A8A85005A2
:10150000050506000088502050880507070600FEE4
:1015100088888850204080050505060000F81020C6
:1015200040F80309090601FF204040408040404048
:10153000200109090602FF808080808080808080F1
:101540000309090601FF80404040204040408005DB
:10155000030306000248A890FF20746F6F206C6F91
:101560006E6720657874727573696F6E207072652E
:1015700076656E7465640A0020636F6C642065781C
:1015800074727573696F6E2070726576656E7465BE
:10159000640A00DB0FC93F45BCDA3F8FB30240FC51
:1015A000F0274056946140FE4B9B4084A5D840E014
:1015B000231841346A5641E859974164DBD5416E9E
:1015C000271742B4B75542CE1A9742C8AED542B596
:1015D000885A43D40684BFA65FA7BF7443E0BF10F8
:1015E000B11AC01C2C58C0E8F697C0B849D6C04EF6
:1015F0004E17C124D355C1802497C1A0B5D5C112BF
:101600001A17C244AE55C2781797C26CACD5C267E0
:10161000885AC368747470733A2F2F6D61726C6945
:101620006E66772E6F726700322E302E37002020C4
:10163000506C616E6E657242756666657242797451
:1016400065733A20002046726565204D656D6F72A6
:10165000793A2000436F6D70696C65643A20536578
:101660007020333020323032300A00204C617374E5
:1016700020557064617465643A20323032302D3008
:10168000392D3239207C20417574686F723A2033CD
:10169000313533442E636F6D2C2043522D31302071
:1016A0005632290A00322E302E370A004D61726CF4
:1016B000696E0020536F667477617265205265739E
:1016C00065740A00205761746368646F672052650F
:1016D0007365740A002042726F776E206F757420F4
:1016E00052657365740A002045787465726E616C8A
:1016F0002052657365740A00506F77657255700AE1
:10170000006175746F25632E6700473238585900A1
:101710004D31303031006572726F722077726974AA
:10172000696E6720746F2066696C650A00446F6E8D
:101730006520736176696E672066696C652E0A00A4
:101740004D32390025532025632025632025632051
:10175000256300656E6473746F7073206869743AF2
:1017600020001FFFFFFFFFFFFF600000000001FFE0
:10177000400000000000FF8000000000007F83CFD9
:1017800000000C303F87FF80000C301F86798000FE
:101790000C000F8C30C7838C30E78C30CFC7CC3136
:1017A000F38C30DCECEC33B98C30D86C6C33198CA6
:1017B00030D06C0C33198C30D86C0C33198C30DC75
:1017C0006C0E3B198C30CF7C079F198C30C77C0383
:1017D0008F194000000000000260000000000006B9
:1017E0001FFFFFFFFFFFF870012C0190012701B0E0
:1017F000012201C0011D01F0011801100213013086
:10180000020E016002090190020401C002FF000003
:1018100003FA004003F5008003F000D003EB002042
:1018200004E6007004E100E004DC004005D700C0DD
:1018300005D2004006CD00D006C8008007C30030A6
:1018400008BE00F008B900C009B400B00AAF00B08B
:101850000BAA00D00CA500000EA000500F9B00C0EA
:101860001096005012910000148C00C0158700B033
:10187000178200B0197D00D01B7800001E73004055
:10188000206E0090226900F024640040275F0090E1
:10189000295A00E02B5500102E500020304B00102C
:1018A000324600E033410090353C0010373700707D
:1018B000383200A0392D00B03A2800A03B23006048
:1018C0003C1E00103D1900903D1400103E0F0070AA
:1018D0003E0A00C03E0500003F0000403FFBFF8085
:1018E0003FF6FFC03FF1FF52756E6F75742044697B
:1018F0007374206D6D004C6F6164206D6D00556ECA
:101900006C6F6164206D6D0046696C2E20446961C6
:101910002E004520696E206D6DC2B3004D3330330B
:101920002055312045256920532569005049442020
:101930004175746F74756E65202A005049442D44BA
:10194000202A005049442D49202A005049442D5056
:10195000202A0020082046616374002008204D6181
:1019600078002008204D696E004175746F74656DB4
:1019700070002062797465733B2063726320004EAF
:101980006F20454550524F4D2E0A002052004545CC
:1019900050524F4D206461746173697A652065729D
:1019A000726F722E0A002073746F72656420736503
:1019B0007474696E677320726574726965766564A4
:1019C000202800202863616C63756C61746564294C
:1019D000210A0020213D2000454550524F4D204313
:1019E0005243206D69736D61746368202D202873E4
:1019F000746F726564292000496E6465783A20002E
:101A0000204D61726C696E3D563831290A0045459A
:101A100050524F4D2076657273696F6E206D6973F9
:101A20006D617463682028454550524F4D3D004814
:101A3000617264636F6465642044656661756C748B
:101A40002053657474696E6773204C6F61646564BC
:101A50000A003B200020204D363033200020204D4E
:101A600034313220530046696C616D656E742072AA
:101A7000756E6F75742073656E736F723A002055C2
:101A80000046696C616D656E74206C6F61642F75C2
:101A90006E6C6F6164206C656E677468733A0020C9
:101AA000204D393030204B004C696E656172204109
:101AB0006476616E63653A0020204D3330342050E7
:101AC0000020490020204D3330312050005049443F
:101AD0002073657474696E67733A0020460020486D
:101AE0000020204D3134352053004D6174657269FA
:101AF000616C2068656174757020706172616D65DC
:101B0000746572733A00204A0020204D323035202F
:101B10004200416476616E6365643A20423C6D69BF
:101B20006E5F7365676D656E745F74696D655F7513
:101B3000733E20533C6D696E5F66656564726174C7
:101B4000653E20543C6D696E5F74726176656C5FB2
:101B500066656564726174653E204A3C6A756E63B1
:101B60005F6465763E0020204D32303420500041C5
:101B70006363656C65726174696F6E2028756E6948
:101B800074732F7332293A20503C7072696E745FFF
:101B9000616363656C3E20523C726574726163746C
:101BA0005F616363656C3E20543C74726176656C62
:101BB0005F616363656C3E0020204D3230312058F8
:101BC000004D6178696D756D20416363656C657268
:101BD0006174696F6E2028756E6974732F73322972
:101BE0003A0020204D3230332058004D6178696D25
:101BF000756D206665656472617465732028756E05
:101C00006974732F73293A0053746570732070657B
:101C10007220756E69743A0020440020204D3230E5
:101C2000302053002044697361626C65640A004689
:101C3000696C616D656E742073657474696E677329
:101C40003A0020204D3134392043203B20556E6925
:101C5000747320696E2043656C736975730A002084
:101C6000286D6D29002020473231202020203B2084
:101C7000556E69747320696E206D6D0000803B4461
:101C800000803B4400007041000096420000A042EA
:101C90000000A0420000C8430000C242D00700007C
:101CA000D00700006400000088130000506C6561DC
:101CB0007365205265736574005052494E54455205
:101CC0002048414C5445440025533A202553007088
:101CD0006F7765726F6666004B494C4C45442E2009
:101CE000005072696E7465722068616C7465642E50
:101CF000206B696C6C28292063616C6C6564210A17
:101D0000006563686F3A004572726F723A005072F4
:101D1000696E74696E67204F626A6563740025534B
:101D2000202569002F2F616374696F6E3A00626528
:101D300067696E00656E640070726F6D70745F002D
:101D400073686F770044697361626C6552756E6F7A
:101D500075740050757267654D6F726500486F74D9
:101D6000656E6420746F6F20636F6C640A00536546
:101D70006E64204D31303820746F20726573756D3C
:101D8000650A0052656865617420446F6E65005293
:101D90006568656174696E672E2E2E0052656865F0
:101DA0006174004865617465722054696D656F7572
:101DB000740053656E64204D31303820746F206894
:101DC000656174206E6F7A7A6C650A004E6F7A7A5C
:101DD0006C65205061726B65640070617573656439
:101DE00000726573756D656400526573756D696E1B
:101DF0006700436F6E66696775726174696F6E0024
:101E000043616E63656C204F626A65637400256C84
:101E1000642E25696D00457874727564656420547C
:101E20006F74616C004C6F6E67657374204A6F62EB
:101E30002054696D65003E2000546F74616C205021
:101E400072696E742054696D6500436F6D706C65C6
:101E5000746564005072696E7420436F756E74000F
:101E6000313330004245443A204550434F532031EE
:101E700030304B0052756E61776179205761746321
:101E8000683A204F4E004D61782054656D700033E4
:101E90003030004D696E2054656D7000350045315D
:101EA0003A204550434F53203130304B005053556A
:101EB0000047656E657269630050726F746F636F7F
:101EC0006C00312E300042617564003235303030A4
:101ED0003000437265616C69747933442052414D1E
:101EE0005053004578747275646572730043522DC7
:101EF000313020563200323032302D30392D3239E7
:101F0000005072696E74657220537461747300546A
:101F10006865726D6973746F727300426F61726489
:101F200020496E666F005072696E74657220496E4A
:101F3000666F004368616E6765204D656469610086
:101F40004D32310041626F7574205072696E746554
:101F50007200526573756D65205072696E7400541D
:101F6000756E650053746F70205072696E74005006
:101F700061757365205072696E74004E6F204D65F7
:101F800064696100496E666F2053637265656E0017
:101F9000486F6D696E67204661696C6564006F709B
:101FA000656E005452494747455245440066696C86
:101FB000616D656E74007A5F6D696E00795F6D6941
:101FC0006E00785F6D696E005265706F7274696E35
:101FD0006720656E6473746F7020737461747573B9
:101FE0000A005761726E696E673A20486F6D696EBC
:101FF000672042756D702044697669736F72203C6A
:1020000020310A0000004842000048420000C04061
:102010000202040000A0400000A04000000040FFB9
:10202000FFFF20436F756E7420583A0045310062FF
:102030006564002C2073797374656D2073746F7000
:1020400070656421204865617465725F49443A2077
:102050000048656174696E67204661696C6564005B
:1020600048656174696E67206661696C6564004DDE
:102070003131322053687574646F776E00202D20E3
:10208000496E76616C6964206578747275646572F6
:10209000206E756D62657220210A00544845524DCC
:1020A000414C2052554E4157415900546865726D5C
:1020B000616C2052756E61776179004572723A20C9
:1020C0004D415854454D50004D415854454D5020B8
:1020D000747269676765726564004572723A204D73
:1020E000494E54454D50004D494E54454D50207475
:1020F000726967676572656400202F002042403A6C
:102100000020403A0020573A007C3C3E5E2B3D3F89
:102110002F5B5D3B2C2A225C0054656D70657261FB
:102120007475726500416476616E6365204B004E84
:102130006F7A7A6C65004D61696E005072656865F2
:102140006174202420456E64005072656865617476
:1021500020242042656400436F6F6C646F776E00CB
:1021600046616E205370656564207E00466C6F7713
:102170000000009B4300009B430000C84300000098
:1021800000000000000000000053657474696E6771
:10219000732053746F7265640053657474696E675D
:1021A000732053746F7265642028001FE020102094
:1021B0001020101020102020102010303008400473
:1021C0008003001FE03FF03FF03FF01FE01FE03FC3
:1021D000F03FF03FF00FC0078003003FFFF03800F2
:1021E0007030FC3020FC102078102030102C00D0F3
:1021F0002E31D02F7BD02F7BD02E31D02C00D02071
:10220000301020781020FC1030FC303800703FFF78
:10221000F03FFFF038007031863023871027879019
:102220002F87D02F03D02030102078102078102056
:1022300030102F03D02F87D0278790238710318627
:10224000303800703FFFF01FFFF81FFFF804104008
:1022500002082002082004104008208010410010CD
:1022600041000820800410400000001FFFF81FFFFD
:10227000F82568753A253032687500253032687562
:102280003A2530326875002020202020202000418F
:102290006476616E6365642053657474696E6773F8
:1022A00000554E4C4F41442046494C414D454E54FB
:1022B0000046494C414D454E54204348414E474508
:1022C00000526573746F72652044656661756C7445
:1022D00073004C6F61642053657474696E6773009A
:1022E00053746F72652053657474696E6773005020
:1022F000726568656174202420436F6E66005275B4
:102300006E6F75742053656E736F72004D37303287
:1023100020542564004D363030204230205425644E
:10232000004D373032203B2564004D37303120548A
:102330002564004D373032004D373031004D363096
:1023400030204230005075726765206D6F726500F5
:10235000524553554D45204F5054494F4E533A0026
:102360005052494E54205041555345440020204E70
:102370006F7A7A6C653A20005061726B696E672ED5
:102380002E2E0000005761697420666F7200666926
:102390006C616D656E74206368616E676500746F53
:1023A000207374617274005761697420666F7200E3
:1023B00066696C616D656E7420756E6C6F6164002A
:1023C000004E6F7A7A6C652068656174696E67008B
:1023D000506C6561736520776169742E2E2E000044
:1023E000507265737320627574746F6E00746F2021
:1023F00068656174206E6F7A7A6C650000496E734F
:102400006572742066696C616D656E7400616E64DE
:1024100020707265737320627574746F6E00746FD0
:1024200020636F6E74696E7565005761697420660C
:102430006F720066696C616D656E74206C6F6164AB
:102440000000507265737320427574746F6E00746F
:102450006F20726573756D65207072696E7400000F
:102460005761697420666F72207072696E740074AF
:102470006F20726573756D652E2E2E000057616991
:102480007420666F720066696C616D656E74207091
:10249000757267650000496E6974004A756E6374F1
:1024A000696F6E2044657600416363656C65726197
:1024B00074696F6E0056656C6F63697479004E4F76
:1024C000005945530043616E63656C204F626A6535
:1024D0006374203D0046616E20537065656400564C
:1024E00054726176204D696E00566D696E00566DAE
:1024F0006178204500566D6178205A00566D6178EC
:10250000205900566D6178205800416D6178204552
:1025100000416D6178205A00416D61782059004179
:102520006D6178205800412D54726176656C0041D0
:102530002D5265747261637400416363656C00457C
:102540002073746570732F6D6D005A20537465701D
:10255000732F6D6D00592053746570732F6D6D006E
:10256000582053746570732F6D6D0043616E636501
:102570006C004F6666004F6E004D6F74696F6E00A1
:102580004D3834005374617274205072696E740057
:1025900043616E6E6F7420656E7465722073756230
:1025A0006469723A2000022E2E00536F6674204533
:1025B0006E6473746F70730044697361626C65203C
:1025C000537465707065727300486F6D65205A00B2
:1025D0004732385A00486F6D6520590047323859E4
:1025E00000486F6D652058004732385800417574B7
:1025F0006F20486F6D6500473238002053697A6557
:102600003A20004D3233202573006F70656E2066CE
:1026100061696C65642C2046696C653A20004669E6
:102620006C652073656C65637465640A0046696C4B
:1026300065206F70656E65643A2000454E442053F6
:102640005542524F5554494E450A002220706F732F
:10265000002220706172656E743A22005355425216
:102660004F5554494E452043414C4C20746172678C
:1026700065743A220053756263616C6C204F766515
:1026800072666C6F77004578636565646564206D7C
:10269000617820535542524F5554494E4520646548
:1026A0007074683A310A0057726974696E672074F1
:1026B0006F2066696C653A20005344207072696E21
:1026C00074696E67206279746520004E6F742053C0
:1026D00044207072696E74696E670A006672657371
:1026E0006800646F696E67004E6F77200024F4D431
:1026F0003050C38E20C2A24017828B7011127A9183
:102700000D816CD90AA861E108C758660761514379
:10271000061E4B5D05C145A7041A411104093D98E9
:1027200003713931034036DB0265339102D43054F2
:1027300002802E1D02632CEE01752AC501B028A06F
:1027400001102781018F2564012B244B01E02234E5
:1027500001AC211F018D200D01801FFC00841EEDA6
:1027600000971DDF00B81CD200E61BC600201BBC72
:1027700000641AB200B219A8000A19A0006A1899D8
:1027800000D117910040178B00B516840031167EDA
:1027900000B31579003A157300C7146F0058146A16
:1027A00000EE1366008813630025135E00C7125BFA
:1027B000006C12570015125400C111510070114FD6
:1027C0000021114B00D61049008D104700461044DF
:1027D0000002104200C00F4000800F3E00420F3C3C
:1027E00000060F3B00CB0E3800930E37005C0E3511
:1027F00000270E3400F30D3200C10D3100900D3072
:1028000000600D2E00320D2D00050D2C00D90C2B73
:1028100000AE0C2900850C29005C0C2700350C2724
:10282000000E0C2600E80B2400C40B2400A00B2390
:10283000007D0B23005A0B2100390B2100180B20BF
:1028400000F80A1F00D90A1E00BB0A1E009D0A1DBF
:1028500000800A1D00630A1C00470A1B002C0A1B8B
:1028600000110A1A00F7091A00DD091900C4091934
:1028700000AB091900920917007B091800630917BA
:10288000004C09160036091600200916000A091521
:1028900000F5081500E0081400CC081400B808146E
:1028A00000A4081400900813007D0812006B0813A0
:1028B00000580812004608120034081100230811BD
:1028C000001208110001081100F0071000E00710C5
:1028D00000D0071000C0071000B0070F00A10710BC
:1028E0000091070E0083070F0074070F0065070EA5
:1028F0000057070E0049070E003B070D002E070E7C
:102900000020070D0013070D0006070D00F9060C47
:1029100000ED060D00E0060C00D4060C00C8060C05
:1029200000BC060C00B0060C00A4060B0099060CB7
:10293000008D060B0082060B0077060B006C060B61
:102940000061060A0057060B004C060A0042060A00
:102950000038060A002E060A0024060A001A060A93
:10296000001006090007060A00FD050900F4050924
:1029700000EB050900E2050900D9050900D00509A9
:1029800000C7050900BE050900B5050800AD05082A
:1029900000A50509009C050800940508008C0508A1
:1029A00000840508007C050800740508006C050714
:1029B00000650508005D050700560508004E05077F
:1029C00000470507004005080038050700310507E6
:1029D000002A050700230507001C05060016050749
:1029E000000F0507000805060002050700FB0406A6
:1029F00000F5040700EE040600E8040600E2040700
:102A000000DB040600D5040600CF040600C9040656
:102A100000C3040600BD040600B7040600B10405A7
:102A200000AC040600A6040600A00405009B0406F2
:102A30000095040500900406008A0405008504053D
:102A400000800406007A0405007504050070040582
:102A5000006B04050066040500610405005C0405C4
:102A60000057040500520405004D04050048040504
:102A700000430405003E0404003A04050035040543
:102A800000300404002C040500270404002304057E
:102A9000001E0404001A04040016040500110404B6
:102AA000000D0404000904050004040400000404EB
:102AB00000FC030400F8030400F4030400F0030422
:102AC00000EC030400E8030400E4030400E0030452
:102AD00000DC030400D8030400D4030400D0030482
:102AE00000CC030400C8030300C503030024F4045E
:102AF000D9201BC40C5C0E9804C4095F02650771E1
:102B000001F405F900FB04B30048048700C1036920
:102B1000005803550003034500BE023A0084023109
:102B20000053022A002902250004022000E4011CAF
:102B300000C8011900AF01170098011400840113A7
:102B400000710110006101100051010E0043010DE0
:102B50000036010B002B010B0020010B00150109B1
:102B6000000C01090003010800FB000800F3000845
:102B700000EB000700E4000600DE000600D80006B7
:102B800000D2000600CC000500C7000500C2000509
:102B900000BD000400B9000400B5000400B1000449
:102BA00000AD000400A9000400A5000300A200037A
:102BB000009F0004009B00030098000300950002A2
:102BC0000093000300900003008D0002008B0003BF
:102BD00000880002008600020084000300810002D9
:102BE000007F0002007D0002007B000200790002ED
:102BF00000770001007600020074000200720001FC
:102C000000710002006F0002006D0001006C000204
:102C1000006A00010069000200670001006600010F
:102C20000065000100640002006200010061000113
:102C300000600001005F0002005D0001005C000117
:102C4000005B0001005A000100590001005800011A
:102C5000005700010056000100550001005400011A
:102C60000053000000530001005200010051000118
:102C700000500001004F0001004E0000004E000116
:102C8000004D0001004C0001004B0000004B000112
:102C9000004A00010049000100480000004800010E
:102CA000004700010046000000460001004500000A
:102CB0000045000100440001004300000043000102
:102CC00000420000004200010041000000410001FC
:102CD00000400001003F0000003F0001003E0000F6
:102CE000003E0001003D0000003D0001003C0000EE
:102CF000003C0000003C0001003B0000003B0001E4
:102D0000003A0000003A00010039000000390001DB
:102D100000380000003800000038000100370000D3
:102D200000370001003600000036000000360001C8
:102D300000350000003500000035000100340000BF
:102D400000340000003400010033000000330000B4
:102D500000330001003200000032000000320001A8
:102D6000003100000031000000310001003000009F
:102D70000030000000300001002F0000002F000094
:102D8000002F0000002F0001002E0000002E000088
:102D9000002E0001002D0000002D0000002D00007D
:102DA000002D0001002C0000002C0000002C000071
:102DB000002C0001002B0000002B0000002B000065
:102DC000002B0001002A0000002A0000002A000059
:102DD000002A00010029000000290000002900004D
:102DE0000029000000290001002800000028000040
:102DF0000028000000280000002800010027000033
:102E00000027000000270000002700000027000125
:102E1000002600000026000000260000002600001A
:102E2000002600010025000000250000002500000C
:102E300000250000002500000025000100240000FE
:102E400000240000002400000024000000240001F1
:102E500000230000002300000023000000230000E6
:102E600000230000002300000023000100220000D6
:102E700000220000002200000022000000220000CA
:102E800000220001002100000021000000210000BC
:102E900000210000002100000021000000210001AD
:102EA00000200000002000000020000000200000A2
:102EB0000020000000200000002000000020000191
:102EC000001F0000001F0000001F0000001F000086
:102ED000001F0000001F0000001F0001001E000076
:102EE000001E0000001E0000001E000000C2310095
:102EF000001C260000F4190000D80F0000EB0800A9
:102F000000C00400007502000040010000456E632F
:102F10006C6F73757265005072696E742066726FA3
:102F20006D204D65646961005072696E7420506156
:102F30007573656400627574746F6E00436F6E74B0
:102F4000696E7565004C6F61642046696C616D65E2
:102F50006E74205400496E736572742066696C61EA
:102F60006D656E7420616E642073656E64204D31F2
:102F700030380A00220A00556E6B6E6F776E206340
:102F80006F6D6D616E643A20220043522D31302006
:102F900056322052656164792E005072696E7469F0
:102FA0006E672E2E2E00205A3A0020593A003F4AD2
:102FB000206F7574206F662072616E6765202830FF
:102FC0002E303120746F20302E33290A00204D39E5
:102FD0003220580020204D61783A200020204D6991
:102FE0006E3A2000536F667420656E6473746F7060
:102FF000733A200020496E76616C696420657874AC
:10300000727564657220005045544700504C410071
:103010004D6F76652025736D6D004D6F76652030A0
:103020002E316D6D004D6F766520316D6D004D6FE9
:1030300076652031306D6D004D6F76652041786981
:103040007300486F74656E6420746F6F20636F6CDB
:1030500064004578747275646572004D6F76652002
:103060005A004D6F76652059004D6F7665205800E7
:103070004368616E67652046696C616D656E7400BA
:10308000556E6C6F61642046696C616D656E74008D
:103090004C6F61642046696C616D656E740050729E
:1030A000656865617420437573746F6D0050726557
:1030B000686561742024004261636B000000210098
:1030C000240027002A002D003000330001010000F9
:1030D000040107010A0100002200250028002B003E
:1030E0002E003100340002010000050108010B012F
:1030F000000020002300260029002C002F003200B1
:103100000001000003010601090105050505070589
:1031100008080808020202020A0A08080404040453
:10312000010101010101010103030303030303037F
:10313000040707070C0C0C0C0C0C0C0C020202020E
:1031400006060606060606060B0B0B0B0B0B0B0BF7
:1031500001021020200808102040102040800201A9
:10316000020108040201010204081020408080408E
:10317000201008040201800402018040201008048D
:10318000020108040201010204081020408001022B
:1031900004081020408000000A0B02090C0D0E08E4
:1031A0000703040100000000000000000000000010
:1031B000000000000000000000000000000000000F
:1031C00000001211100000000000000000000000CC
:1031D0000000000000000000000000000C3007307C
:1031E0003F00496E697469616C697A652045455094
:1031F000524F4D006E6F74696669636174696F6EDA
:10320000200063616E63656C005072696E742041CA
:10321000626F72746564004469736D6973730055FD
:10322000492041626F72746564004D323520500A46
:103230004D323400526573756D65005549205061FB
:103240007573650050617573696E672E2E2E00725E
:103250006573756D6500454550524F4D205665723A
:1032600073696F6E204572726F7200454550524F00
:103270004D20496E646578204572726F7200454535
:1032800050524F4D20435243204572726F72004995
:10329000676E6F72650043616E6E6F74206F70654C
:1032A0006E207375626469722000534420496E6910
:1032B00074204661696C0053442063617264206F1E
:1032C0006B0A006F70656E526F6F74206661696C77
:1032D00065640A00766F6C756D652E696E69742081
:1032E0006661696C65640A004E6F20534420636117
:1032F00072640A0083027D0111241FBECFEFD1E268
:10330000DEBFCDBF00E00CBF13E0A0E0B2E0E6E519
:10331000F0E502E00BBF02C007900D92A230B107AA
:10332000D9F725E1A2E0B3E001C01D92A835B207AC
:10333000E1F719E1CBE7D9E100E006C021970109E7
:10334000802FFE010F946224CA37D10780E008075E
:10335000A9F70F94C00F0D9419280C9400002F9218
:103360003F924F925F926F927F928F929F92AF9215
:10337000BF92CF92DF92EF92FF920F931F93CF9362
:10338000DF93CDB7DEB7E3970FB6F894DEBF0FBE7D
:10339000CDBF8AAB2091471428AB21E0209347147E
:1033A0008091BE038D3409F48EC2843511F40C94DF
:1033B0003C2A873411F00C94612A8091BC039091CF
:1033C000BD038531910511F40C94632A74F48430A3
:1033D00091053CF4823091050CF0F9C097FF26C0AE
:1033E0006EC2049709F48EC16AC28A35910509F448
:1033F00014C244F48B31910509F4C3C14C9709F40C
:10340000FCC15DC28B35910509F40BC28C35910569
:1034100009F055C29CECC92E92E0D92E2BE9E22E80
:1034200024E1F22E00E0312C10E025C280912D0C19
:10343000813011F00C94632A0E9437F583E79CE0F9
:103440000E94CD848091F40983FD85C02091A7144A
:103450003091A8144091A9145091AA1460917F0C46
:103460007091800C8091810C9091820C0F946F1D53
:10347000882309F470C080917C0481111BC0609185
:10348000000E7091010E8091020E9091030E0F9428
:10349000F12520910E0230910F022150310962175F
:1034A000730744F40E94E87588E795E10E94E4748C
:1034B00011E001C010E02091A7143091A8144091B0
:1034C000A9145091AA1460917F0C7091800C809186
:1034D000810C9091820C0F9484246B017C0120E07C
:1034E00030E0A9010F94E52687FF04C0F7FAF094B5
:1034F000F7F8F09420910A0230910B0240910C02EF
:1035000050910D02C701B6010F94D51D20E030E89F
:1035100049ED53E40F94E52618163CF40E94E87533
:1035200089E595E10E94E47402C01123A1F0809125
:103530007F0C9091800CA091810CB091820C8093B3
:10354000A7149093A814A093A914B093AA148FE77A
:103550009CE00E94ACAA2AE037ED43E25CE3609174
:1035600006027091070280910802909109020F945F
:10357000D51D6B017C016091530270915402072E9E
:10358000000C880B990B0F94761D9B01AC01C701B1
:10359000B6010F94D51D69837A838B839C838E013A
:1035A0000F5F1F4F2FE73CE04BE75CE067E77CE0F5
:1035B00083E79CE00E94FBEF80E1E3E7FCE0ABE9FE
:1035C000B4E101900D928A95E1F70C94632A209161
:1035D0002D0C213011F00C94632A11E0029709F0B0
:1035E00010E00E9437F519821A821B821C821D820C
:1035F0001E821F82188682E50E94D173882309F4F7
:103600004BC00E9451736B017C0120E030E0A901A6
:103610000F946F1D882309F455C080919B149091DD
:103620009C14A0919D14B0919E148CA39DA3AEA355
:10363000BFA380919F149091A014A091A114B09168
:10364000A2148CA79DA7AEA7BFA78090730C9090E3
:10365000740CA090750CB090760C4090770C509044
:10366000780C6090790C70907A0CA50194016CA193
:103670007DA18EA19FA10F946F1D81110C946C2AC6
:10368000A30192016CA57DA58EA59FA50F946F1D2A
:103690008823C1F00C946C2A89E40E94D17388239A
:1036A00031F00E94517369837A838B839C838AE40F
:1036B0000E94D173882331F00E9451736D837E8301
:1036C0008F83988720E030E0A90169817A818B811E
:1036D0009C810F946F1D81110C94202B20E030E011
:1036E000A9016D817E818F8198850F946F1D811155
:1036F0000C94202B0E94E47588EC96E00E94E47400
:103700000C94632A80E50E94D173882329F00E94DB
:1037100033F76B017C0103C0C12CD12C760183E50A
:103720000E94D173882361F00E94517320E030E041
:103730004AE754E40F94D51D0F94F8256B017C01E2
:103740000E949BAA8091DE14811105C060E08EED7D
:1037500096E00F949D020E9469FEC60ED71EE81ED9
:10376000F91E0E9469FEDC01CB018C199D09AE098E
:10377000BF09B7FD02C00C94632A80E00E94383173
:10378000F0CF0E9417F28E010F5F1F4F882311F4B4
:103790000C94472B82FF03C04EEE52E002C041E082
:1037A00053E081FF03C020EF32E002C021E033E0AC
:1037B00080FF03C082EF92E002C081E093E05F935C
:1037C0004F933F932F939F938F9387EE96E09F9312
:1037D0008F931F930F930F94071D0E94E875C801E4
:1037E0000E94173160E0C8010F9454030FB6F8949B
:1037F000DEBF0FBECDBF0C94632A80914314877047
:10380000873011F00C94582B60E08FE40E9436FB57
:1038100081110C94632A0C94582B109211030C9470
:10382000632A8FE0809311030C94632A0E945173E2
:103830004B015C01F70120813181428153810F945A
:1038400084242B013C012DEB37E346E855EB0F9424
:10385000E52687FD18C02DEB37E346E855E3C301A5
:10386000B2010F946F1D181674F01F5FB4E0EB0ED9
:10387000F11C1430A9F0D6018D916D010E94D17315
:10388000882399F3D3CF133011F401E002C033241D
:103890003394D7018D929D92AD92BC921397E5CF50
:1038A000332019F00E94058606C0002321F087EA24
:1038B00094E10E94ACAA0E9447860C94632A0E945D
:1038C00010F10C94632A8091BC039091BD0385375D
:1038D000910509F4E4C70CF05CC18B34910509F43F
:1038E000DAC40CF05AC08931910509F45DC31CF5A6
:1038F0008431910509F4C7C27CF48131910509F442
:10390000A1C22CF4029708F453C20C94392A4297AE
:1039100009F4DFC60C94392A8631910509F4E8C20E
:103920000CF4E2C28731910509F4ECC2489709F41E
:1039300000C30C94392A8E31910509F4B6C3ACF456
:103940008B31910509F442C30CF432C38C319105DB
:1039500009F4A3C34D9711F00C94392A80915712A2
:103960008E7F809357120C94632A8132910509F45B
:1039700034C44CF48F31910509F441C4809709F4A3
:10398000F7C30C94392A8A32910509F458C4893452
:10399000910509F46DC40C94392A8936910509F40E
:1039A00069C50CF044C08235910509F484C634F52C
:1039B0008D34910509F477C40CF471C48E349105EB
:1039C00009F475C48135910511F00C94392A0E94CF
:1039D000658C0E9476A90E94AAAD0E94732F68EEA2
:1039E00073E080E090E00E94C0740E94782F60E055
:1039F0008AE298E00F949D020C94632A8535910524
:103A000009F49DC654F48335910509F45BC68435E9
:103A1000910509F45EC60C94392A8C35910509F498
:103A2000B1C68836910509F4D4C40C94392A8E366F
:103A3000910509F481C58CF48B36910509F470C5A4
:103A40000CF42CC58C36910511F40C94632A8D3638
:103A5000910509F4E5C40C94392A8137910509F4DC
:103A6000C0C55CF48F36910509F477C580379105A0
:103A700011F40C94632A0C94392A8237910509F4C5
:103A80000BC78337910511F00C94392A8CE799E024
:103A90000E94E47460E08CE699E00E94964360E046
:103AA00087E599E00E94964361E08DEE91E30E94E4
:103AB000964361E08CE499E00E94964361E08CE3D8
:103AC00099E00E94964360E083E399E00E94964368
:103AD00061E089E299E00E94964360E08FE199E01D
:103AE0000E94964361E08EEB9BE00E94964360E06B
:103AF00087E199E00E94964360E089E099E00E94A6
:103B0000964361E08BEF98E00E94964360E08CEE74
:103B100098E00E94964360E08EED98E00E94964304
:103B200060E088EC98E00E94964361E087EB98E0C3
:103B30000E94964361E088EA98E00E94964361E023
:103B400081EA98E00E94964361E08CE898E00E9448
:103B5000964361E08EE798E00E94964361E08BE631
:103B600098E00E94964360E08EE598E00E949643BC
:103B700061E089E598E00E94964360E08CE498E07B
:103B80000E94964360E088E398E00E9496430C947C
:103B9000632A8E32E1E09E0711F40C9486270CF024
:103BA00073C0883C910509F444C7A4F58D3791058D
:103BB00009F47EC5BCF48737910509F4BBC60CF443
:103BC0007FC68837910509F4B8C68937910511F089
:103BD0000C94392A1092630A1092620A0E94F186AC
:103BE0000C94632A8139910509F4AFC634F48C38FA
:103BF000910509F418C50C94392A8B39910509F4FB
:103C000031C58E3B910511F00C94392A0E94603920
:103C10000C94632A833D910509F4A5C7C4F48B3C39
:103C2000910509F473C734F4893C910509F448C738
:103C30000C94392A8C3C910509F487C78D3C910579
:103C400011F00C94392A0E9443F70C94632A823EA7
:103C5000910511F40C94332654F48C3D910509F42C
:103C600085C78D3D910509F4A8C70C94392A8C327B
:103C700021E0920711F40C947F268D32914011F4CB
:103C80000C9494260C94392A883FA1E09A0711F4E9
:103C90000C944D280CF048C08C39E1E09E0711F4DB
:103CA0000C94D027B4F4803321E0920711F40C94E3
:103CB000132714F40C94CA278039A1E09A0711F451
:103CC0000C94CD278A39914011F40C94632A0C94FA
:103CD000392A853FE1E09E0711F40C9447287CF4D3
:103CE000863E21E0920711F40C94DB27843F91403B
:103CF00011F00C94392A0E949FA40C94632A863FE9
:103D0000A1E09A0711F40C944A28873F914011F0E2
:103D10000C94392A61E083E50E9436FB91E0892703
:103D20000E94336B0C94632A8E3BE2E09E0711F4F1
:103D30000C94E628ECF4883522E0920711F40C94F8
:103D40006A283CF48C30924011F40C945D280C9459
:103D5000392A8B35B2E09B0711F40C946D288D3B0A
:103D6000924011F00C94392A0E9428F80C94632A8E
:103D7000803AF3E09F0709F434C26CF48C3633E0E8
:103D8000930711F40C94632A8438934011F40C9433
:103D9000A5290C94392A873EB3E09B0711F40C94B3
:103DA0000E2A893E934011F40C941C2A0C94392A53
:103DB00080E50E94D173882329F00E9433F76B01BC
:103DC0007C0103C0C12CD12C760183E50E94D17304
:103DD000882361F00E94517320E030E04AE754E408
:103DE0000F94D51D0F94F8256B017C010E949BAAAE
:103DF0008091470490914804009721F061E00F946E
:103E0000540305C060E089E097E00F949D02809123
:103E1000BC039091BD03892B19F061E077E002C0EB
:103E200069EF76E020E030E04CE35FE282E00E9460
:103E3000657540E0C701B6010E94C3370E94D3F008
:103E40000C94632A8091B80384FF02C00C94092D5E
:103E50008091BA0387FF02C00C94092D8091BB03A7
:103E6000837011F00C94092D60E08CE197E00F94C1
:103E70009D025F988A988091080181708093060165
:103E800012980C94632A8091571283FF25C084E313
:103E900097E00E94E4748091571283FF17C087E770
:103EA00090E10E94C8978BE1E7E7F0E1DE0111960F
:103EB00001900D928A95E1F760E070E0CE010196E5
:103EC0000F94780BCE0101960E94CD9785E297E082
:103ED0000E94E4740C94632A0E94E87585E497E0DC
:103EE0000E94E4740C94632A0F94E8060C94632AED
:103EF0000E94ACD480915712877F806280935712C2
:103F00000C94632AE0914704F0914804808188234F
:103F100029F0803209F410823196F8CF60E0809168
:103F20004704909148040E9407D51092200D0C94EC
:103F3000632A80915C0D8823F9F080E090E0A0EA8C
:103F4000B1E488A399A3AAA3BBA31C8E1D8E1E8EC9
:103F50001F8E19821A821B821C8200E010E020E072
:103F6000AE01405E5F4FBE01645E7F4FCE010196A1
:103F70000E948F760C94632A0E943C2F882321F0A4
:103F80000E9420D60E94602F61E08FE492E30E949D
:103F9000F37447E152E36FE477E085E00E940EF2AC
:103FA0000E94D3F00C94632A0E940DF60C94632AAD
:103FB0008091571283FD02C00C94632A83E50E940E
:103FC000D17381110C94252D0C94632A83E40E94F3
:103FD00088738823C1F185E697E00E94E47480919C
:103FE0002110882339F1BE016F5F7F4F8EE190E190
:103FF0000E948F968E010F5F1F4FD8018D918D010A
:10400000882319F00E940C30F8CFCE0101960E944F
:10401000BAD280915814882389F080E20E940C3033
:1040200008E514E1F80181918F01882339F00E949D
:104030000C30F8CF8BE597E00E94E4748AE00E9490
:104040000C300C94632A83E50E94D173882309F114
:104050000E94EBF7182F90E0CD970CF01CE3109323
:1040600006030E9469FE6B017C01212F30E0A8EE5F
:10407000B3E00F94F223C60ED71EE81EF91EC092BD
:104080000203D0920303E0920403F09205030C9420
:10409000632A0E947CD40C94632A809147049091F7
:1040A00048040E94BDD40C94632A8091571283FD6A
:1040B00002C00C94632A0E94F6F08091571283FD8F
:1040C00002C00C94632A4091470450914804BE01F9
:1040D000645E7F4F80E00E9451DB8C01009711F4F9
:1040E0000C94632A6C8D7D8D19821C8222E0AC01B8
:1040F000CE0101960E94FD9B811102C0F12C14C0DB
:10410000CE0101960E94BFDA8823C1F361E0CE019F
:1041100001960E947396009789F325EEDC012C939B
:104120001C820F943C08F82ECE0101960E94CD9778
:10413000B801FF2099F08CE897E00E94D1758AE0E1
:104140000E940C3010925312109254121092551279
:10415000109256120E942FD30C94632A84E797E0A2
:104160000E94D17588E899E10E94E4740C94632A56
:104170008091571282FD0E949BAA8091571283FD65
:1041800002C00C94632A60E080E50E9436FB182F81
:10419000682F80914704909148040E9407D583E5D9
:1041A0000E94D173882381F00E944173AB01BC014E
:1041B00040935312509354126093551270935612B9
:1041C0008EE190E10F94620A0E9420D611110C94A6
:1041D000632A0E94602F0C94632A0E94373C0C943F
:1041E000632A2091470430914804909157129260BD
:1041F00090935712C9010E94BDD40C94632A0E9467
:104200008B886C8F7D8F8E8F9F8FBE016F5F7F4FEE
:10421000CE014C960E94583B60E0CE0101960F946F
:1042200054030E94E875BE016F5F7F4F8AE997E0F3
:104230000E94D1758AE00E940C300C94632A6DE0D4
:1042400070E080E50E9424F78C0197FF02C00C9477
:10425000632AE82E60E089E40E9436FB81110C9409
:10426000362D802F0F949B0F81111AC50C94362D7B
:1042700080E50E948873882311F40C94632A0E94BD
:10428000EBF790E08536910510F084E690E080939E
:10429000200D0C94632A0E94602F0C94632A0E94C4
:1042A000DA880C94632A0E9476A90C94632A60E051
:1042B00070E083E50E9424F78E34910531F40E946A
:1042C000E7A90E94D3F00C94632A8FE098E00E9443
:1042D000E4746091520A7091530A86E098E00E945B
:1042E000A6756091540A7091550A89EF97E00E9473
:1042F000A6756091520A7091530A8091540A909168
:10430000550A681B790B80919A14815021E030E0A6
:10431000823010F020E030E0621B730B8EEE97E0ED
:104320000E94A6758AE00E940C308FE098E00E94FF
:10433000E4748091560A9091570AA091580AB0915E
:10434000590A8C8F9D8FAE8FBF8FBE016F5F7F4FDD
:10435000CE014C960E94583BBE016F5F7F4F81EEAD
:1043600097E00E94D17580915A0A90915B0AA091C2
:104370005C0AB0915D0A8C8F9D8FAE8FBF8FBE019E
:104380006F5F7F4FCE014C960E94583BBE016F5F1E
:104390007F4F81ED97E00E94D17520E030E04AE741
:1043A00054E460915E0A70915F0A8091600A909176
:1043B000610A0F947F25AB01BC0189EB97E00E9455
:1043C000B3758DE60E940C308AE00E940C300C948C
:1043D000632A8091F40983FF02C00C94632A0E942F
:1043E000FFF787FF02C00C94632A89E40E94D1730F
:1043F000882311F40C94732D0E94EBF790E01816AB
:10440000190614F481E090E026E0289FF001299F2E
:10441000F00D1124EE5BF34F808191810C947D2D82
:104420008091F40983FF02C00C94632A0E94FFF775
:10443000F82E87FF02C00C94632A89E40E94D1738E
:10444000082F882311F40C94862D0E94EBF790E03E
:104450001816190614F481E090E026E0289FF00178
:10446000299FF00D1124EE5BF34F8081918110E0C4
:104470000C94962D0E94FFF7182F87FD0AC088E63E
:104480009EE00E94E474812F0E94FE9C8AE00E94BC
:104490000C30F8A9F09347140C94F62E80E50E9496
:1044A00023F2F82E21E0281710F40C94632A81E4FB
:1044B0000E948873882329F060916A04062F10E017
:1044C00002C00FEF10E089E40E94D173882399F0B5
:1044D0000E94EBF790E01816190614F481E090E0C2
:1044E00026E0289FF001299FF00D1124EE5BF34F89
:1044F0000481158108C083E50E94D173882319F0D7
:104500000E9441738B01EF2DF0E0E659FB4FB8019B
:104510000F3F110519F010F06FEF70E06083D3C703
:1045200080E50E9423F2823008F0CDC7E82FF0E04A
:10453000E659FB4F1082C7C78EE40E94D1738823CF
:1045400009F4C1C70E94417360934304709344040B
:104550008093450490934604B6C783E50E94887310
:10456000882329F083E50E9423F28093F4090E94B6
:10457000E8758CE198E00E94E4748091F409882346
:1045800069F188E6E82E8BE0F82E00E010E020E0EC
:104590008091F40990E0A0E0B0E0002E04C0B69550
:1045A000A795979587950A94D2F780FF0EC0DD24D2
:1045B000D394D20E222319F08CE20E940C30F70122
:1045C000859194910E94E4742D2D0F5F1F4F32E06E
:1045D000E30EF11C05301105D9F630CD84ED9CE1D8
:1045E0002BCD83E50E94D173882371F00E94EBF7F5
:1045F000282F30E02D3331051CF48093000263C76F
:104600008CE3809300025FC70E94E875409100022E
:1046100050E060E070E083E298E00E9495758AE0E7
:104620000E940C3050C78091F40983FD4CC789E487
:104630000E94D173882311F40C94DF2D0E94EBF7B4
:1046400090E01816190614F481E090E026E0289F07
:10465000F001299FF00D1124EE5BF34F628173810D
:104660000C94E92D83E50E94D173882309F42BC7AC
:104670000E94EBF7182F90E0CD970CF01CE31093FD
:104680000B030E9469FE6B017C01212F30E0A8EE34
:10469000B3E00F94F223C60ED71EE81EF91EC09297
:1046A0000703D0920803E0920903F0920A030BC7B4
:1046B0000E940DF608C7809111038F7D8061809361
:1046C000110301C7809111038F7E806280931103D3
:1046D000FAC683E50E94D1738823E9F00E9469FE3F
:1046E0006093FE0C7093FF0C8093000D9093010D6E
:1046F0000E94517320E030E04AE754E40F94D51D46
:104700000F94F825609301027093020280930302D4
:1047100090930402D8C68091B80384FF02C00C9421
:10472000FC2D8091BA0387FF02C00C94FC2D809170
:10473000BB03837011F00C94FC2D0C942D2E83E59B
:104740000E948873882309F4BEC60E9469FE6093A4
:10475000FE0C7093FF0C8093000D9093010D0E944E
:10476000517320E030E04AE754E40F94D51D0F94D4
:10477000F82560930C0370930D0380930E039093C0
:104780000F03A1C60E94FFF787FD9DC69091B80355
:1047900094FD04C09091BA0397FF0AC01CECC12E8F
:1047A00012E0D12E05EFE02E09E0F02E10E009C056
:1047B0009091BB03937091F7682F81E00E94E5F61A
:1047C00082C6D6018D916D010E94D173882309F4B0
:1047D00059C0133009F04FC00E9451734B015C0166
:1047E00020E030E040EA51E40F946F1D87FF3AC0AB
:1047F000A50194016091150A7091160A8091170A1B
:104800009091180A0F947F252B013C019B01AC016C
:104810006091250A7091260A8091270A9091280AB2
:104820000F94D51D6093250A7093260A8093270A5A
:104830009093280A60915A0470915B0480915C0403
:1048400090915D040F94741DA30192010F94D51DE6
:104850000F94F82560935A0470935B0480935C0472
:1048600090935D048092150A9092160AA092170AFE
:10487000B092180A07C00E945173F701648B758BC0
:10488000868B978B1F5FF4E0EF0EF11C143009F05C
:1048900098CF0E9431AC17C60E94B04314C68091D5
:1048A000470490914804009741F0DC012C912223A9
:1048B00021F060E00F94540306C60E94D3F003C6B3
:1048C000009147041091480494E0F12C40E091508D
:1048D00021F1F8018081282F2B7F213421F42181BF
:1048E0002133D9F407C08035C1F4818180538A30E7
:1048F00048F013C0813421F0853421F441E002C036
:10490000FF24F39498012E5F3F4F89012F5F3F4FA3
:10491000F80180818032C9F3DACF41110E94E87535
:10492000FF2021F08EE49AE00E94E474C8010E9406
:104930001731C9C50E94CE86C6C581E08093630A3F
:104940008093620A0E94F186BEC560E070E083E554
:104950000E9424F7823038F00E94E47582E59AE0E4
:104960000E94E474B0C58C01112788E40E94D173C1
:104970008823E1F00E9420F78A3A910544F00E94D2
:1049800020F78E31914034F40E9420F705C08AEA66
:1049900090E002C08DE191E026E0209FF001219F90
:1049A000F00D1124EE5BF34F9183808382E40E942B
:1049B000D1738823D9F00E9420F7059744F00E9414
:1049C00020F78937910534F40E9420F705C085E06F
:1049D00090E002C088E790E026E0209FF001219F50
:1049E000F00D1124EE5BF34F9383828386E40E94E3
:1049F000D173882309F467C50E9420F797FD09C089
:104A00000E9420F78F3F910509F034F40E9420F7AF
:104A100005C080E090E002C08FEF90E026E0209F8C
:104A2000F001219FF00D1124EE5BF34F95838483F9
:104A30004AC50E94FFF7182F87FD45C50091520C0B
:104A400084E40E94D173882311F40C94302E0E94C8
:104A500051736B017C0120E030E0A9010F946F1DC0
:104A6000882341F124E01202F0011124E25BF34FAC
:104A7000C082D182E282F38220E030E0A90160911D
:104A80004E0C70914F0C8091500C9091510C0F94E2
:104A90006F1D81110CC080E090E0A0EEBFE3809319
:104AA0004E0C90934F0CA093500CB093510C01E01E
:104AB0000C94302E80E08093520C0E94418103C5FB
:104AC0000E94FFF787FDFFC4ACECEA2EA2E0FA2EAD
:104AD00005EF19E0B5E0CB2EBAE0DB2ED7018D91C2
:104AE0007D010E948873882359F00E9451730F94AE
:104AF000F825F80160837183828393830E9424AA3E
:104B00000C5F1F4FC016D10649F7DDC40E94FFF7A6
:104B100087FDD9C4FCECEF2EF2E0FF2E05EF19E083
:104B2000D7018D917D010E948873882339F00E94FE
:104B30005173F80164A375A386A397A30C5F1F4F5D
:104B4000FAE005301F0761F7BEC48091B90387FF03
:104B500002C00C94362E8091BA038E7011F00C9422
:104B6000362E0C947C2E0E947DFAADC483E50E9403
:104B7000D173882331F00E9420F7909354028093E0
:104B800053028091B8039091B903A091BA03B091F8
:104B9000BB03892B8A2B8B2B09F095C460915302A0
:104BA0007091540284E89AE00E94C47585E20E94E4
:104BB0000C308AE00E940C3086C40E94FFF7F82E69
:104BC00087FD81C483E50E94D1730F2D0F2C000C4B
:104BD000110B882369F10E9420F7F801EE0FFF1FE7
:104BE000EC5DFD4F91838083000F111F000F111F9B
:104BF0009801265F3D4F7901BC01990F880B990BF5
:104C00000F94761D2AE037ED43E25CE30F94D51D47
:104C1000F801ED57F34F20813181428153810F9488
:104C2000D51DD7016D937D938D939C9313974BC4A2
:104C30000E94E87585E40E940C3080E38F0D0E948D
:104C40000C30000F111FF801EC5DFD4F6081718188
:104C500088E89AE00E94C47585E20E940C308AE0E0
:104C60000E940C3030C480E50E948873882309F4C8
:104C70002AC460E070E080E50E9424F7F82E6FEF10
:104C80007FEF83E50E9424F78C010196039708F0DB
:104C90001AC4F7FC18C48F2D0F949B0F882339F08A
:104CA0000E94E47580E99AE00E94E4740CC40E94BA
:104CB0009BAA60E08F2D0E942AFD0F3FBFEF1B07CC
:104CC00031F00130110571F000E010E00DC08F2DC2
:104CD0000E94D2FC31E020E0892B09F030E0032F64
:104CE000122F02C001E010E08F2D0E94D2FC80172D
:104CF000910709F4E8C380E00E943831F5CF64E001
:104D000071E083E50E94D2F68C0168EE73E080E5E5
:104D10000E94D2F68938E3E19E0710F088E893E11B
:104D2000B8010F946602CFC385E40E9423F281117B
:104D300073C080E50E948873882351F00E945173EC
:104D40006093070E7093080E8093090E90930A0EDD
:104D500089E40E948873882381F00E9451732CEAB1
:104D600035EC47E25EE30F94D51D60930B0E709314
:104D70000C0E80930D0E90930E0E84E40E948873A7
:104D8000882381F00E9451732CEA35EC47E25EE300
:104D90000F947F2560930F0E7093100E8093110E69
:104DA0009093120E0E94E8754091070E5091080EE4
:104DB0006091090E70910A0E87EA9AE00E94B3751D
:104DC0002CEA35EC47E25EE360910B0E70910C0E1D
:104DD00080910D0E90910E0E0F947F25AB01BC01BA
:104DE00083EA9AE00E94B3752CEA35EC47E25EE371
:104DF00060910F0E7091100E8091110E9091120E15
:104E00000F94D51DAB01BC018FE99AE00E94B375E8
:104E10008AE00E940C3057C30E94E4758BEA9AE046
:104E20000E94E47450C380E50E948873882351F087
:104E30000E9451736093F20C7093F30C8093F40C06
:104E40009093F50C89E40E948873882381F00E9476
:104E500051732CEA35EC47E25EE30F94D51D609365
:104E6000F60C7093F70C8093F80C9093F90C84E493
:104E70000E948873882381F00E9451732CEA35ECDC
:104E800047E25EE30F947F256093FA0C7093FB0C6E
:104E90008093FC0C9093FD0C0E94E8754091F20CFD
:104EA0005091F30C6091F40C7091F50C87EA9AE044
:104EB0000E94B3752CEA35EC47E25EE36091F60C94
:104EC0007091F70C8091F80C9091F90C0F947F255C
:104ED000AB01BC0183EA9AE00E94B3752CEA35EC81
:104EE00047E25EE36091FA0C7091FB0C8091FC0C40
:104EF0009091FD0C0F94D51DAB01BC018FE99AE098
:104F00000E94B3758AE00E940C30DDC283E50E94E6
:104F10008873182F882371F00E9451730F94F12524
:104F200070930F0260930E0221E0672B09F020E0DE
:104F300020937C0480E50E948873882359F0209197
:104F40000E0230910F02232B11F00E946DFA809314
:104F50007C04B9C21111B7C20E94E87586ED9AE0CF
:104F60000E94E47480917C04882319F08DE89FE10D
:104F700002C08DEB9AE00E94E47460910E02709181
:104F80000F0285EC9AE00E94C47581EC9AE00E94C1
:104F9000E47499C20E946D4A96C20E949BAA93C271
:104FA0008091B803887809F0CFC68091BA038670E3
:104FB00009F0CAC6F7C684E50E9488738823A1F069
:104FC0001092550D1092560D1092570D1092580DCB
:104FD0001092590D8FEF0E94807461E070E084E5BB
:104FE0000E9424F78093590D83E50E9488738823DB
:104FF00021F00E9420F70E94807483E40E9488734D
:10500000882331F080915602803210F40E9454744B
:1050100080E50E948873882331F00E9420F7803257
:1050200010F40E94547485E50E948873882309F463
:105030004AC20E9420F7803208F045C241E050E0A9
:10504000082E02C0440F551F0A94E2F74095509570
:10505000052E000C660B770B0091550D1091560D27
:105060002091570D3091580D402351236223732313
:105070004093550D5093560D6093570D7093580DF6
:105080009091560289131FC21092F3091CC20E940C
:10509000207319C20E94F96916C22093390C0E942C
:1050A0009D6D1092390C882309F40DC20E94E87599
:1050B0008AE19BE00E94E47406C28091571282FF4D
:1050C00004C0806480935712FEC183FFFCC10E941C
:1050D000F6F0F9C10E9456F9F6C10E94FFF7082FB9
:1050E00087FDF1C185E50E9488738823B1F1E02E28
:1050F000002E000CFF080E9451734B015C0120E060
:1051000030E0A9010F94E52687FF04C0B7FAB094F8
:10511000B7F8B094C70153E0880F991F5A95E1F78B
:105120009C01265C334F7901D9018D929D92AD92FD
:10513000BC92139720E030E849ED53E4C501B40177
:105140000F94E52618164CF480E090E8A9EDB3E43E
:10515000F70180839183A283B3838CE40E948873D8
:10516000882309F4B0C1002E000C110B0E9451736A
:105170006B017C0120E030E0A9010F94E52687FF58
:1051800004C0F7FAF094F7F8F09420E030E849ED25
:1051900053E4C701B6010F94E526980143E0220FBE
:1051A000331F4A95E1F7F901E65CF34F18162CF02E
:1051B000C482D582E682F78286C180E090E8A9EDBC
:1051C000B3E484839583A683B7837DC10E94FFF7F0
:1051D000182F87FD78C18AE50E94D173882349F092
:1051E00040E050E0BA018AE50E94564A4B015C015A
:1051F00006C0812C912C90E2A92E91E4B92E412F6A
:1052000064E083E00E9483BB20E030E0A901C50197
:10521000B4010F94E52618167CF580E090E0A0EA32
:10522000B0E489839A83AB83BC832091A31430912B
:10523000A4144091A5145091A614C501B4010F9473
:1052400085246B017C0120E030E048EC53E40F94AE
:105250006F1D87FD06C0C12CD12C88ECE82E83E49D
:10526000F82ECC8EDD8EEE8EFF8EBE016F5F7F4FEF
:10527000CE014C960E94908585E50E948873882314
:1052800029F00E9451736B017C010AC028E01202D0
:10529000F0011124E65CF34FC080D180E280F380FE
:1052A00020E030E0A901C701B6010F94E52687FF91
:1052B00004C0F7FAF094F7F8F094F7FAF094F7F8DE
:1052C000F094C982DA82EB82FC8244E061E0CE0194
:1052D00001960E94617820E030E0A901C501B40187
:1052E0000F94E52618165CF580E090E0A0EAB0E4A3
:1052F00089839A83AB83BC83A50194016091A31435
:105300007091A4148091A5149091A6140F948424F4
:105310006B017C0120E030E0A9010F94E52618160E
:105320001CF0C12CD12C7601CC8EDD8EEE8EFF8E42
:10533000BE016F5F7F4FCE014C960E94908540E08A
:1053400060E089E00E9483BBBEC0A0907D04B09065
:105350007E04C0907F04D09080048BE40E94D173BF
:10536000882339F10E9451737B018C0120E030E0E9
:10537000A9010F94E52687FD0AC020E030E040E255
:1053800051E4B701C8010F946F1D1816A4F48FE300
:105390000E940C308BE40E940C308DE29BE00E9456
:1053A000E47485E29BE00E94E47488E899E10E943D
:1053B000E474750186019701A801B501C6010F9437
:1053C0006F1D882361F00E949BAAC701D8018093BA
:1053D0007D0490937E04A0937F04B0938004809119
:1053E000B8039091B903A091BA03B091BB03892B84
:1053F0008A2B8B2B09F067C00E94E87540917D04D1
:1054000050917E0460917F047091800481E49BE060
:105410000E94B3758AE00E940C3055C081E08093F1
:105420002D0C1092331560E083E50E9436FB81114C
:105430004AC00E94883D47C00E948B886D33710529
:105440008105910520F084E69BE00E94254580E6D9
:105450009BE00E94254584EE8093200D8CE49BE028
:105460000E94E47480E895E29093690A8093680A48
:105470002AC00E9410F127C00091BC031091BD0307
:105480000E9469FE6093FE0C7093FF0C8093000DE8
:105490009093010D0023B9F00E94E87584E50E9405
:1054A0000C30B8017727072E000C880B990B0E944F
:1054B000803080E20E940C308BEA9AE00E94E47413
:1054C00002C00E9410F13AA9311102C00E94423D6F
:1054D00088A9809347148AC420E030E0A901C7015D
:1054E000B6010F946F1D881F8827881F181709F4AD
:1054F000A2C080E090E0A0E8BFEB88A799A7AAA788
:10550000BBA72CA13DA14EA15FA1C501B4010F9481
:10551000842420E030E040E05FE30F94D51D6CA3CD
:105520007DA38EA39FA32CA53DA54EA55FA5C3017A
:10553000B2010F94842420E030E040E05FE30F9458
:10554000D51D2B013C012CA13DA14EA15FA1CA019B
:10555000B9010F94D51D4B015C01A3019201C30158
:10556000B2010F94D51D9B01AC01C501B4010F948C
:1055700085240F9433274B015C019B01AC01C701CB
:10558000B6010F9484246CA77DA78EA79FA7A501C1
:105590009401C701B6010F9485249B01AC016CA551
:1055A0007DA58EA59FA50F94D51D6B017C0120E0E4
:1055B00030E0A9010F94E52687FD07C0C701B601B9
:1055C0000F9433276B017C0103C0C12CD12C7601D1
:1055D000C301B2019058A50194010F947F2528A51D
:1055E00039A54AA55BA50F94D51DA70196010F9477
:1055F000D51D2CA13DA14EA15FA10F9485246983E7
:105600007A838B839C83A50194016CA17DA18EA1DB
:105610009FA10F947F2528A539A54AA55BA50F94C6
:10562000D51DA70196010F94D51DA30192010F94DA
:1056300085240C945E1B80E090E0A0E8BFE35DCF82
:1056400080E50E9423F2082F853630F00E94E47531
:1056500088EC96E00E94E474412FBE016F5F7F4F9B
:10566000002331F08BE994E10E94A93F0150F4CF6F
:1056700083E79CE00E94A93F0E9469FE6093FE0CB4
:105680007093FF0C8093000D9093010D1CCF8CE064
:10569000E9E7F2E0D80101900D928A95E1F760E028
:1056A00070E080E50E94D2F6B8010F9459010BCF4B
:1056B0000E949BAA0E9469FE6093FE0C7093FF0CEF
:1056C0008093000D9093010D809106029091070246
:1056D000A0910802B09109028093140390931503DE
:1056E000A0931603B0931703809153029091540234
:1056F000909313038093120384E690E090935402F6
:105700008093530281E08093630A0E94F1868AE5C8
:105710000E948873082F88E50E948873182F89E5F6
:105720000E948873181372C1011711F0312E6FC1D6
:105730003324339411E091E09CA782E50E94D17359
:10574000882369F00E9451736B017C0120E030E0F6
:10575000A9010F946F1D882309F453C006C0C12C02
:10576000D12C30E8E32E30E4F32E111103C03320A6
:1057700009F422C120E030E0A901C701B6010F946D
:105780008524962EA72EB82EC92ED090A314E09073
:10579000A414F090A5140091A6142D2D3E2D4F2D8C
:1057A000502F0F946F1D87FD03C0D92C75010C2D50
:1057B00080E090E0A0ECB0E48C8F9D8FAE8FBF8F27
:1057C00020E030E048EC53E46D2D7E2D8F2D902F9E
:1057D0000F946F1D87FF02C08F2D04C0D12CE12CC8
:1057E00088EC03E44D2D5E2D682F702F49835A837A
:1057F0006B837C83BE01645E7F4FCE0101960E9465
:105800009085112309F4D3C0332009F4CDC0109240
:105810009B1410929C1410929D1410929E1410923E
:105820009F141092A0141092A1141092A2140E941E
:105830000586EFE1F0E2A491ABABE1E7F1E2C590C0
:10584000D590E590F490E5E7F1E285909590A590EC
:10585000B490A7019601C501B4010F946F1D87FF95
:1058600005C0A7019601C501B40104C0A5019401BA
:10587000C701B6010F947F252B013C01E8E0F0E25F
:1058800085919591A591B4918CA39DA3AEA3BFA33F
:10589000E4E0F0E285919591A591B49188A799A74C
:1058A000AAA7BBA79C01AD016CA17DA18EA19FA160
:1058B0000F94E526181634F428A499A599AB0AA5E7
:1058C0001BA505C02CA0ADA1A9AB0EA11FA1A301D2
:1058D0009201C301B2010F94D51D20E030E040E8F1
:1058E0005FE30F9485240F943327222D39A9A80153
:1058F0000F94D51D68A379A38AA39BA3E0E2F0E2ED
:10590000149120E030E040EC5FE3C501B4010F9456
:10591000D51D4B015C01612F110F770B880B990B83
:105920000F94761D9B01AC01C501B4010F94D51DE8
:1059300069837A838B839C8320E030E040EC5FE3D3
:10594000C701B6010F94D51D6B017C01BBA96B2F5C
:10595000BB0F770B880B990B0F94761D9B01AC0145
:10596000C701B6010F94D51D6C8F7D8F8E8F9F8FD1
:10597000AE01405E5F4FBE016F5F7F4FCE014C9620
:105980000E946E850E94FC8610929B1410929C14BB
:1059900010929D1410929E1410929F141092A014B5
:1059A0001092A1141092A21480E00E94C5873320A7
:1059B00019F081E00E94C587ECA5EE2319F082E082
:1059C0000E94C5870E9405868091620A8093630ABF
:1059D0008091140390911503A0911603B0911703C1
:1059E0008093060290930702A0930802B0930902E5
:1059F0008091120390911303909354028093530269
:105A000083E0809373020E9447865DCD382E0CA7F9
:105A100094CE88E50E94887381115F9889E50E9481
:105A2000887381118A988AE50E948873882329F0F7
:105A30008091080181708093060185E40E9488733B
:105A4000882309F440CD12983ECD0E944173AB01EA
:105A5000BC014093531250935412609355127093AB
:105A600056128EE190E10F94620A2DCD8DE40E94D2
:105A7000D1738823A9F00E94EBF7813039F020F030
:105A8000823049F462E003C060E001C061E0802F31
:105A90000E942AFD05C087EA97E00E94E47413CDB6
:105AA00083E50E94D173882309F40DCD0E94EBF7A2
:105AB000F82EB7E0EB1631F0E9E0EE1206C0809365
:105AC0006A0401CD80936B04FECC61E0802F0E94BC
:105AD0002AFD6F2D802F0E94FBFC6F2D70E0802F20
