:100000000C94861B0C94B71B0C94B71B0C94B71B59
:100010000C94B71B0C94B71B0C94B71B0C94B71B18
:100020000C94B71B0C94B71B0C94B71B0C94B71B08
:100030000C94B71B0C9478930C94B71B0C94B71BBF
:100040000C94B71B0D94A0100C94B71B0C94B71B09
:100050000C94B71B0C94B71B0C9450F10D94053500
:100060000C94B71B0C94893B0C947F3B0C94B71BEE
:100070000C94B71B0C94B71B0C94B71B0C94B71BB8
:100080000C94B6340C94B71B0C94B71B0C94B71B90
:100090000C94B71B0C94B71B0C94B71B0C94B71B98
:1000A0000C94B71B0C94B71B0C9488340C94B71B9E
:1000B0000C94B71B0C94B71B0C94B71B0C94B71B78
:1000C0000C94B71B0C94B71B0C94B71B0C94B71B68
:1000D0000C94B71B0C94B71B0C94B71B0C94B71B58
:1000E0000C94B71BBC3BCC3BDD3BE83BF03B073CF7
:1000F000F43B073CF83BFC3B073C023C2F5B9E5922
:10010000D7596B5BD759D759D759D759D759D759D9
:10011000D759D759D759D759D759D759D759D7595F
:10012000D759D759D759D759D759D759D759D7594F
:10013000D759D759D759D759655BD759D759D759AF
:10014000D759D759D759D759D7593E5BD759D759C6
:10015000D759D759D759D759D759D759D759D7591F
:10016000825BD459E1D4BAD4BDD4E4D4C0D4C3D4CE
:10017000C6D4D2D4C9D4DFD4CCD4CFD44401D8018E
:1001800064028A0118016C0184011C01980140017C
:100190006A01E801F4016C026C01A402B00144029E
:1001A00072011E025A02AA011201320246017E02A7
:1001B0003E0266017401F601580220013202B201CA
:1001C00086027E01084AD73B3BCE016E84BCBFFD50
:1001D000C12F3D6C74319ABD56833DDA3D00C77F17
:1001E00011BED9E4BB4C3E916BAAAABE00000080B0
:1001F0003F05A84CCDB2D44EB93836A9020C50B93F
:10020000918688083CA6AAAA2ABE000000803F006A
:100210000C94E4D40C94B6750C9445750C9425D9C3
:100220000C942B590D94031D0C944FD10C94E83B66
:100230000D9479190C94D7590D9488190C94D1CD3B
:100240000D94541D0C9440870C9476790C94D25BD9
:100250000D946D050C9429770C9443D10C943FD1E7
:100260000D940A060C94F7750D9436050C94F2CD96
:100270000C94DA920C947FDC0C9484EA0C94E4CD18
:100280000D9492190C94D2760D947D190D940D1D38
:100290000C94E7D40C9411770C94F8740C949E5938
:1002A0000C9437D10C940B770C942ED60C94206EB2
:1002B0000C943DF40C94E1760C9405770C94C67183
:1002C0000C94CB7C0C94FAD70C9499E10D94271DD7
:1002D0000C94C3760D9496190D94B7190C9436D6D8
:1002E0000C9447D10D94E51C0D94311D0C94F43BF6
:1002F0000D94DC020C94C5750C9465DC0D94721D94
:100300000C9484750C942AA50D9484190D94E3061D
:100310000C949C6F0D9473190C9415CF0C948FDC76
:100320000C94F0760C942A590C94016E0C94976CF2
:100330000D948E190C94C6D40C946B5B0C94BC3B3E
:100340000D9402060C940D6E0C94CE750C945B5CAF
:100350000C94E1D40D94F91C0C94B67C0D94D70246
:100360000D94AE190D945E1D0C9493F90C94EF75D9
:100370000C9423770C947BDC0C94DFD40C94CCD4B9
:100380000D9467050C9460F90C9417770D94B007E1
:100390000C9458750D94D2020D9490370C9434D669
:1003A0000C94036D0D94AE050C94E6CD0C94A7DD72
:1003B0000D9480190C94BA710D9461050C94BC7C59
:1003C0000C94E86C0C945D6C0C94F83B0C94A3DFDB
:1003D0000D949C190C94CD6C0C94D2D40C942F7762
:1003E0000C94073C0C94E7E20D94A0190D943B1D6E
:1003F0000C94F6CE0C9402760C94B26C0C943E5B8A
:100400000C9441F40C94DD3B0C94BDD40C94706CB2
:100410000C946B750D945B050C94F03B0C949D75DE
:100420000C943BD10C9456920C94825B0C94B47C4B
:100430000D94E1020D94E93E0C94BC580D94EA1C15
:100440000C9433D10C942FD10C9421760C94FED3C0
:100450000C944CD00C94D4590C94D7F30C94A1DD8B
:100460000C94A2760D947C1D0C94F95B0C94A88CD2
:100470000C94C0D40C948C7A0D94CD020D941D1D57
:100480000C9432D60C9440760D94B2190C94C3D4CB
:100490000C9430D60C94FF760C947DDC0C94896C13
:1004A0000C94898C0C94BAD40C9480920C9492E1A4
:1004B0000D944A1D0D94EF1C0C9425D10C94B3CFD0
:1004C0000C942C6E0D9455050D946F190C94CC3B27
:1004D0000C94AE920C942E590D94A4190C94655B57
:1004E0000D9431050C94CFD40C94D2710C941175E9
:1004F0000C941E6D0C942BD10C9401870D94151D3A
:100500000C942F5B0C9428F40C9445F40D94681D06
:100510000C9470DC0C94FC3B0C9442DC0C944BD19E
:100520000C94C9D40C94B9580C942A750C94B87CCA
:100530000C942CF40C94BA7C0C94023C0C94266E13
:100540000C941D770D943B050D94AA190C9453D16E
:100550004E414E494E495459494E46CDCCCC3D0AA8
:10056000D7233C17B7D13877CC2B329595E6241F8B
:10057000B14F0A000020410000C84200401C462044
:10058000BCBE4CCA1B0E5AAEC59D7400407A10F317
:100590005A00A0724E18090010A5D4E80000E876B1
:1005A00048170000E40B54020000CA9A3B00000008
:1005B000E1F505000080969800000040420F000021
:1005C00000A08601000000102700000000E80300E2
:1005D0000000006400000000000A000000000001AC
:1005E00000000000002C76D888DC674F0823DFC1AC
:1005F000DFAE59E1B1B796E5E3E453C63AE6519967
:100600007696E8E6C28426EB898C9B62ED407C6F8F
:10061000FCEFBC9C9F40F2BAA56FA5F490055A2A46
:10062000F75C936B6CF9676DC11BFCE0E40D47FE52
:10063000F520E6B500D0ED902E0300943577050047
:1006400080841E080000204E0A000000C80C3333CE
:1006500033330F986E12831141EF8D2114893BE6DD
:100660005516CFFEE6DB18D1844B381BF77C1D9066
:100670001DA4BBE424203284725E228100C9F124CF
:10068000ECA1E53D27434F4D4D554E49434154495B
:100690004F4E0044525952554E004552524F5253FC
:1006A00000494E464F004543484F0047322F4733DD
:1006B0002062616420706172616D65746572730A95
:1006C00000536C6565702E2E2E005A2050726F629A
:1006D000652050617374204265640A005A2050728C
:1006E0006F6265205061737420426564004D6573CC
:1006F0006820706F696E74206F7574206F66207249
:10070000616E67650A00436C69636B20746F2052E9
:100710006573756D652E2E2E004E6F204D6F7665BC
:100720002E00456E642066696C65206C6973740ADE
:1007300000426567696E2066696C65206C69737438
:100740000A004E6F206D656469610A00286E6F2093
:1007500066696C65290043757272656E74206669FE
:100760006C653A20005344207072696E74696E673C
:10077000206279746520004E6F742053442070729B
:10078000696E74696E670A0044656C6574696F6EA2
:10079000206661696C65642C2046696C653A2000AE
:1007A00046696C652064656C657465643A0025690A
:1007B0007920256964202569682025696D202569CF
:1007C00073005072696E742074696D653A20004937
:1007D0006E76616C69642050696E204D6F64650AA5
:1007E0000045202553006F66660044454255473A50
:1007F000004D31313320530042656420436F6F6CEC
:10080000696E672E2E2E004265642048656174690A
:100810006E672E2E2E0043522D3130205632204F3F
:1008200046462E002F2F20004D31343520533C6991
:100830006E6465783E206F7574206F662072616EFD
:1008400067652028302D31290A0046523A0020469B
:100850006C6F773A200050726F7465637465642022
:1008600050696E0A0020536572766F200020643A4A
:100870000020693A0020703A006469730043290A35
:100880000061626C656420286D696E2074656D700E
:100890002000436F6C642065787472756465732002
:1008A000617265200046696C616D656E74207275B9
:1008B0006E6F757420004D34323120696E636F7233
:1008C0007265637420706172616D65746572207504
:1008D000736167650A004F666673657473204170C3
:1008E000706C696564004572723A20546F6F2066BF
:1008F00061722100546F6F206661722066726F6DA5
:10090000207265666572656E636520706F696E74CE
:100910000A00454550524F4D204F4B0A00202830C9
:100920002D313029002076616C7565206F7574203B
:100930006F662072616E676500416476616E636503
:10094000204B3D00446F6E65207072696E74696E55
:10095000672066696C650A004D3737004D333100FA
:10096000A606A1069A06930685064572726F722046
:1009700077726974696E6720746F20454550524FD5
:100980004D210A004E6F20436865636B73756D20BF
:1009900077697468206C696E65206E756D6265722A
:1009A0002C204C617374204C696E653A200063689A
:1009B00065636B73756D206D69736D617463682C0D
:1009C000204C617374204C696E653A20004C696E4E
:1009D00065204E756D626572206973206E6F74209C
:1009E0004C617374204C696E65204E756D62657242
:1009F0002B312C204C617374204C696E653A2000B9
:100A00004D3131300053442072656164206572724B
:100A10006F720A002121204B494C4C206361757391
:100A20006564206279204B494C4C20627574746F68
:100A30006E2F70696E0A002121204B494C4C2063B7
:100A4000617573656420627920746F6F206D7563C2
:100A50006820696E6163746976652074696D6520CC
:100A60002D2063757272656E7420636F6D6D616E9B
:100A7000643A2000627573793A2070617573656419
:100A800020666F7220696E7075740A0062757379E2
:100A90003A2070617573656420666F7220757365A6
:100AA000720A00627573793A2070726F63657373AE
:100AB000696E670A004D656469612052656D6F76E5
:100AC0006564004D6564696120496E736572746583
:100AD00064004D36303000506C656173652052659E
:100AE000736574005052494E5445522048414C544D
:100AF00045440025533A202553004B494C4C45446E
:100B00002E20005072696E7465722068616C746585
:100B1000642E206B696C6C28292063616C6C6564A1
:100B2000210A00363726033C3D380E2E303E131A7C
:100B30001C180AFF43080907084400014732362001
:100B400043616E63656C65640047323620486561B9
:100B500074696E67204E6F7A7A6C65004732362072
:100B600048656174696E6720426564005761697405
:100B7000696E6720666F72206865617475702E0AF1
:100B8000004669786564204C656E67746820507211
:100B9000696D6500446F6E65205072696D696E679E
:100BA000004D616E75616C207072696D696E672EA3
:100BB0002E2E004C656176696E6720473236003F05
:100BC00053706563696669656420582C5920636FAA
:100BD0006F7264696E617465206F7574206F662032
:100BE000626F756E64732E0A003F28522965706526
:100BF00061742076616C7565206E6F7420706C6115
:100C0000757369626C653B206D7573742062652035
:100C10006174206C6561737420312E0A003F53703B
:100C200065636966696564206E6F7A7A6C652074A5
:100C3000656D7065726174757265206E6F74207079
:100C40006C61757369626C652E0A003F5370656351
:100C500069666965642066696C616D656E74207390
:100C6000697A65206E6F7420706C61757369626C4F
:100C7000652E0A003F53706563696669656420707C
:100C800072696D65206C656E677468206E6F742084
:100C9000706C61757369626C652E0A003F537065F4
:100CA000636966696564206E6F7A7A6C6520736922
:100CB0007A65206E6F7420706C61757369626C6503
:100CC0002E0A003F52657472616374696F6E204D25
:100CD000756C7469706C696572206D7573742062CF
:100CE00065207370656369666965642E0A003F5309
:100CF00070656369666965642052657472616374C6
:100D0000696F6E204D756C7469706C696572206EC8
:100D10006F7420706C61757369626C652E0A003F98
:100D2000537065636966696564206C6179657220DA
:100D3000686569676874206E6F7420706C61757384
:100D400069626C652E0A0043292E0A003F537065C4
:100D5000636966696564206265642074656D7065A9
:100D6000726174757265206E6F7420706C6175733A
:100D700069626C65202834302D0047323620737448
:100D8000617274696E672E2E2E0A006563686F3A71
:100D9000004572726F723A0042696C696E656172E9
:100DA000204C6576656C696E6720477269643A0A03
:100DB0000053544F505045442E20005072696E74B9
:100DC00065722073746F707065642064756520743B
:100DD0006F206572726F72732E2046697820746876
:100DE00065206572726F7220616E64207573652074
:100DF0004D39393920746F20726573746172742EA5
:100E0000202854656D706572617475726520697310
:100E10002072657365742E20536574206974206197
:100E2000667465722072657374617274696E672985
:100E30000A0021212053544F502063616C6C65647B
:100E40002062656361757365206F6620424C546F44
:100E5000756368206572726F72202D2072657374DD
:100E60006172742077697468204D3939390A0048F5
:100E70006F74656E6420746F6F20636F6C640A001A
:100E800053656E64204D31303820746F2072657365
:100E9000756D650A0053656E64204D3130382074DD
:100EA0006F2068656174206E6F7A7A6C650A0049FC
:100EB0006E736572742066696C616D656E74206115
:100EC0006E642073656E64204D3130380A004572BF
:100ED000723A207574663820666F6E74206E6F7477
:100EE00020696E697469616C697A65642E00000C12
:100EF0000F00FE07022503BB017FFE08FE08FE056A
:100F0000080806000040F0C888889878100508088E
:100F1000060000C0F88888888888F805050506005E
:100F2000012030F830200508080600002070F82065
:100F3000202020E00509090600FF2070A8A8B88835
:100F4000887020070505070001D86C366CD80509A4
:100F5000090600FFF8A88888888888A8F8050A0A82
:100F60000600FE205050505088A8A8887003030344
:100F700006000340A040FFFFFFFFFFFFFFFFFFFF52
:100F8000FFFFFFFFFFFFFFFFFFFFFFFF0000000667
:100F900005FF010707060200808080808000800333
:100FA0000303060105A0A0A005060606000050F8F0
:100FB0005050F8500509090600FF2070A8A07028BD
:100FC000A87020050707060000C8C81020409898A0
:100FD00005070706000040A0A040A8906801030391
:100FE0000602058080800309090601FF2040408039
:100FF00080804040200309090601FF8040402020F6
:101000002040408005070706000020A8702070A837
:10101000200505050600012020F820200203030614
:1010200001FFC04080050101060003F8020202062C
:101030000100C0C00507070600000810102040404E
:1010400080050707060000708898A8C88870030705
:101050000706010040C040404040E0050707060089
:1010600000708808102040F8050707060000F808FF
:10107000103008887005070706000010305090F8FF
:101080001010050707060000F880F00808887005B2
:101090000707060000304080F088887005070706C3
:1010A0000000F80810102020200507070600007037
:1010B000888870888870050707060000708888781F
:1010C000081060020505060100C0C000C0C002068D
:1010D000060601FFC0C000C04080030505060101EF
:1010E0002040804020050303060002F800F80305B5
:1010F00005060101804020408005070706000070BA
:101100008810202000200507070600007088B8A876
:10111000B88070050707060000708888F8888888FE
:10112000050707060000F04848704848F005070723
:101130000600007088808080887005070706000020
:10114000F04848484848F0050707060000F8808046
:10115000F08080F8050707060000F88080F08080A6
:101160008005070706000070888080988870050752
:1011700007060000888888F8888888030707060122
:1011800000E04040404040E00507070600003810FE
:1011900010101090600507070600008890A0C0A0FE
:1011A0009088050707060000808080808080F80511
:1011B000070706000088D8A88888888805070706DA
:1011C00000008888C8A8988888050707060000706E
:1011D000888888888870050707060000F08888F0EE
:1011E00080808005070706000070888888A89068BE
:1011F000050707060000F08888F0A090880507071B
:1012000006000070888070088870050707060000D7
:10121000F820202020202005070706000088888865
:1012200088888870050707060000888888885050DD
:101230002005070706000088888888A8A8500507A9
:101240000706000088885020508888050707060098
:101250000088885020202020050707060000F80895
:1012600010204080F80309090601FFE0808080809B
:10127000808080E0050707060000804040201010B5
:10128000080309090601FFE020202020202020E09B
:101290000503030600052050880501010600FEF83D
:1012A00003030306010580402005050506000070C4
:1012B000087888780507070600008080F08888880D
:1012C000F005050506000070808088700507070698
:1012D00000000808788888887805050506000070F1
:1012E00088F08070050707060000304840E0404065
:1012F000400507070600FE70888888780870050793
:10130000070600008080F0888888880307070601A8
:10131000004000C0404040E00409090601FE100002
:1013200030101010109060050707060000808088BC
:1013300090E09088030707060100C040404040400D
:10134000E0050505060000D0A8A8A8A80505050623
:101350000000B0C8888888050505060000708888E8
:1013600088700507070600FEF0888888F0808005F1
:1013700007070600FE7888888878080805050506AE
:101380000000B0C8808080050505060000788070E8
:1013900008F00507070600002020F8202020180587
:1013A0000505060000888888986805050506000080
:1013B00088888850200505050600008888A8A85060
:1013C000050505060000885020508805070706001F
:1013D000FE88888850204080050505060000F8102A
:1013E0002040F80309090601FF20404040804040AA
:1013F00040200109090602FF808080808080808073
:10140000800309090601FF804040402040404080A1
:1014100005030306000248A890FF4348414D42459A
:10142000525F54454D50455241545552450042413A
:1014300042595354455050494E470041524353007E
:101440004D4F54494F4E5F4D4F444553005448450E
:10145000524D414C5F50524F54454354494F4E00FA
:101460004C4F4E475F46494C454E414D4500415516
:10147000544F5245504F52545F53445F535441545C
:101480005553005344434152440050524F4D505421
:101490005F535550504F525400454D455247454EAD
:1014A00043595F50415253455200434153455F4CAD
:1014B000494748545F4252494748544E45535300A8
:1014C000544F47474C455F4C494748545300534F8E
:1014D0004654574152455F504F5745520042554977
:1014E0004C445F50455243454E54004C4556454C84
:1014F000494E475F44415441005A5F50524F424564
:101500000052554E4F5554004155544F4C45564589
:101510004C005052494E545F4A4F420050524F4780
:1015200052455353004155544F5245504F52545F0A
:1015300054454D5000564F4C554D4554524943006B
:1015400042494E4152595F46494C455F5452414EC3
:10155000534645520053455249414C5F584F4E5FE8
:10156000584F4646004649524D574152455F4E41FD
:101570004D453A4D61726C696E20322E302E372007
:101580002853657020333020323032302031343AE5
:1015900031333A30342920534F555243455F434F3E
:1015A00044455F55524C3A68747470733A2F2F67F4
:1015B00069746875622E636F6D2F4D61726C696E10
:1015C0004669726D776172652F4D61726C696E202C
:1015D00050524F544F434F4C5F56455253494F4E14
:1015E0003A312E30204D414348494E455F545950C1
:1015F000453A43522D3130205632204558545255E9
:101600004445525F434F554E543A31205555494455
:101610003A63656465326132662D343161322D344E
:101620003734382D396231322D63353563363266C1
:1016300033363766660A003F5A206F7574206F662E
:101640002072616E67652028003F59206F757420F5
:101650006F662072616E676520282D0020746F20F0
:10166000003F58206F7574206F662072616E676549
:1016700020282D0050726F6265204F666673657476
:10168000205800656E7175657565696E672022006A
:101690006F6B00526573656E643A20002364656663
:1016A000696E652044454641554C545F004B6420AB
:1016B000004B6920004B7020005049442041757454
:1016C0006F74756E652066696E6973686564212044
:1016D00050757420746865206C617374204B702C95
:1016E000204B6920616E64204B6420636F6E7374BD
:1016F000616E74732066726F6D2062656C6F772007
:10170000696E746F20436F6E666967757261746984
:101710006F6E2E680A00504944204175746F7475CD
:101720006E65206661696C6564212074696D656F02
:1017300075740A000A20436C617373696320504911
:1017400044200A00204B643A2000204B693A2000D4
:10175000204B703A20002054753A2000204B753AF7
:101760002000206D61783A2000206D696E3A2000DB
:1017700020643A200020626961733A200050494495
:10178000204175746F74756E652073746172740A8C
:1017900000504944204175746F74756E6520666110
:1017A000696C6564212054656D7065726174757231
:1017B0006520746F6F20686967680A00504944208B
:1017C0004175746F74756E6500504944204175749D
:1017D0006F74756E65206661696C65642120426175
:1017E00064206578747275646572206E756D6265CB
:1017F000720A004C6F61642053657474696E67737C
:101800000053746F72652053657474696E6773005A
:1018100050726F6265205A204F666673657400418E
:101820006476616E6365642053657474696E677372
:10183000004F6666004F6E00554E4C4F41442046A7
:10184000494C414D454E540046494C414D454E543E
:10185000204348414E47450053746F7700446570FC
:101860006C6F790053572D4D6F64650053656C663E
:101870002D546573740046616E2053706565640075
:10188000526573746F72652044656661756C74731C
:101890000050726568656174202420436F6E660095
:1018A00052756E6F75742053656E736F7200424C83
:1018B000546F756368004D37303220542564004DF5
:1018C00036303020423020542564004D37303220ED
:1018D0003B2564004D37303120542564005075722B
:1018E0006765206D6F726500436F6E74696E756514
:1018F00000524553554D45204F5054494F4E533A91
:10190000005052494E542050415553454400202028
:101910004E6F7A7A6C653A20004520737465707357
:101920002F6D6D005A2053746570732F6D6D0059C3
:101930002053746570732F6D6D005820537465705B
:10194000732F6D6D00496E6974004D34323800504C
:10195000726F6265204F666673657473004A756EB8
:101960006374696F6E2044657600416363656C65DE
:10197000726174696F6E0056656C6F63697479008B
:1019800053657420486F6D65204F66667365747388
:10199000004E65787420436F726E657200446F6EFE
:1019A00065004E65787400486F6D696E6720585900
:1019B0005A004C6576656C20436F726E65727300D9
:1019C0004661646520486569676874004C657665A2
:1019D0006C20426564004732380A47323900486F4C
:1019E0006D696E67204661696C6564006F70656E35
:1019F000005452494747455245440066696C616D41
:101A0000656E74007A5F6D696E00795F6D696E0056
:101A1000785F6D696E005265706F7274696E6720D1
:101A2000656E6473746F70207374617475730A00EB
:101A3000486F6D6520257325732573204669727381
:101A400074005761726E696E673A20486F6D696EF7
:101A5000672042756D702044697669736F72203C0F
:101A600020310A000000804000000040000000001B
:101A70000000204200002042000000410202040059
:101A800000A0400000A04000000040FFFFFF456EA6
:101A9000636C6F73757265004C6F6164206D6D00CF
:101AA000556E6C6F6164206D6D0046696C2E20442C
:101AB00069612E004520696E206D6DC2B300205310
:101AC000697A653A2000534420496E697420466162
:101AD000696C0053442063617264206F6B0A006F6D
:101AE00070656E526F6F74206661696C65640A0080
:101AF000766F6C756D652E696E6974206661696CB0
:101B000065640A004E6F20534420636172640A00CA
:101B10004D3233202573006F70656E206661696CED
:101B200065642C2046696C653A200046696C652026
:101B300073656C65637465640A0046696C65206F43
:101B400070656E65643A2000454E442053554252FC
:101B50004F5554494E450A002220706F73002220D1
:101B6000706172656E743A2200535542524F55545B
:101B7000494E452043414C4C207461726765743A6C
:101B8000220053756263616C6C204F766572666CDF
:101B90006F77004578636565646564206D617820C2
:101BA000535542524F5554494E45206465707468F0
:101BB0003A310A0057726974696E6720746F206643
:101BC000696C653A2000667265736800646F696EBF
:101BD00067004E6F772000022062797465733B20A6
:101BE00063726320004E6F20454550524F4D2E0AC0
:101BF00000205200454550524F4D2064617461737E
:101C0000697A65206572726F722E0A002073746F94
:101C10007265642073657474696E6773207265748D
:101C2000726965766564202800202863616C63759D
:101C30006C6174656429210A0020213D200045451E
:101C400050524F4D20435243206D69736D61746350
:101C500068202D202873746F726564292000496EF6
:101C60006465783A2000204D61726C696E3D56388B
:101C700031290A00454550524F4D207665727369EF
:101C80006F6E206D69736D617463682028454550DF
:101C9000524F4D3D0048617264636F646564204437
:101CA000656661756C742053657474696E67732022
:101CB0004C6F616465640A003B200020204D363083
:101CC00033200020204D34313220530046696C61AE
:101CD0006D656E742072756E6F75742073656E73AA
:101CE0006F723A0020550046696C616D656E742014
:101CF0006C6F61642F756E6C6F6164206C656E67CC
:101D00007468733A0020204D393030204B004C6904
:101D10006E65617220416476616E63653A002020D1
:101D20004D3835312058005A2D50726F6265204F62
:101D300066667365740020204D33303120500050AA
:101D400049442073657474696E67733A00204600D5
:101D500020480020204D3134352053004D617465FA
:101D60007269616C20686561747570207061726160
:101D70006D65746572733A00202047323920572010
:101D8000490020204D3432302053004175746F20BB
:101D9000426564204C6576656C696E673A00202068
:101DA0004D323036205800486F6D65206F6666737F
:101DB00065743A00204A0020204D32303520420020
:101DC000416476616E6365643A20423C6D696E5F82
:101DD0007365676D656E745F74696D655F75733E7D
:101DE00020533C6D696E5F66656564726174653E23
:101DF00020543C6D696E5F74726176656C5F6665D8
:101E00006564726174653E204A3C6A756E635F6406
:101E100065763E0020540020204D323034205000A2
:101E2000416363656C65726174696F6E2028756EBD
:101E30006974732F7332293A20503C7072696E7442
:101E40005F616363656C3E20523C726574726163CE
:101E5000745F616363656C3E20543C7472617665A7
:101E60006C5F616363656C3E0020204D3230312031
:101E700058004D6178696D756D20416363656C65CF
:101E8000726174696F6E2028756E6974732F733276
:101E9000293A0020204D3230332058004D617869B6
:101EA0006D756D2066656564726174657320287553
:101EB0006E6974732F73293A0053746570732070C0
:101EC000657220756E69743A0020440020204D32FE
:101ED00030302053002044697361626C65640A00ED
:101EE00046696C616D656E742073657474696E67A4
:101EF000733A0020204D3134392043203B20556E69
:101F000069747320696E2043656C736975730A0088
:101F100020286D6D29002020473231202020203BD1
:101F200020556E69747320696E206D6D0000401C31
:101F30004500401C450000C8420000C8410000A008
:101F4000420000A0420000C8430000BE42F401006D
:101F500000F4010000640000008813000000809875
:101F600043008098430000C84300000000000000C8
:101F7000000000000053657474696E677320537429
:101F80006F7265640053657474696E67732053746F
:101F90006F7265642028007C3C3E5E2B3D3F2F5BCA
:101FA0005D3B2C2A225C0043616E6E6F74206F7063
:101FB000656E20737562646972200020746F6F20F3
:101FC0006C6F6E6720657874727573696F6E2070C0
:101FD000726576656E7465640A0020636F6C6420B8
:101FE000657874727573696F6E2070726576656E50
:101FF0007465640A00DB0FC93F45BCDA3F8FB3024A
:1020000040FCF0274056946140FE4B9B4084A5D88D
:1020100040E0231841346A5641E859974164DBD5C2
:10202000416E271742B4B75542CE1A9742C8AED573
:1020300042B5885A43D40684BFA65FA7BF7443E065
:10204000BF10B11AC01C2C58C0E8F697C0B849D6CA
:10205000C04E4E17C124D355C1802497C1A0B5D519
:10206000C1121A17C244AE55C2781797C26CACD5CC
:10207000C267885AC3436F6E666967757261746917
:102080006F6E00313330004245443A204550434F93
:1020900053203130304B0052756E61776179205793
:1020A000617463683A204F4E004D61782054656D2D
:1020B0007000333030004D696E2054656D7000350E
:1020C0000045313A204550434F53203130304B00CA
:1020D0005053550047656E657269630050726F74A6
:1020E0006F636F6C00312E300042617564003131D6
:1020F0003532303000437265616C69747933442045
:1021000052414D50530042696C696E656172204CBA
:102110006576656C696E6700457874727564657282
:10212000730043522D313020563200323032302D80
:1021300030392D323900546865726D6973746F726D
:102140007300426F61726420496E666F005072695D
:102150006E74657220496E666F0053746F70004331
:1021600068616E67652046696C616D656E740050CC
:1021700072656865617420437573746F6D004261A8
:10218000636B004368616E6765204D65646961003B
:102190004D32310041626F7574205072696E746502
:1021A00072004D36303020423000526573756D65D7
:1021B000205072696E740054756E650053746F70B0
:1021C000205072696E740050617573652050726999
:1021D0006E74004E6F204D6564696100496E666FD4
:1021E0002053637265656E005061726B696E672E75
:1021F0002E2E0000005761697420666F72006669B8
:102200006C616D656E74206368616E676500746FE4
:10221000207374617274005761697420666F720074
:1022200066696C616D656E7420756E6C6F616400BB
:10223000004E6F7A7A6C652068656174696E67001C
:10224000506C6561736520776169742E2E2E0000D5
:10225000507265737320627574746F6E00746F20B2
:1022600068656174206E6F7A7A6C650000496E73E0
:102270006572742066696C616D656E7400616E6470
:1022800020707265737320627574746F6E00746F62
:1022900020636F6E74696E7565005761697420669E
:1022A0006F720066696C616D656E74206C6F61643D
:1022B0000000507265737320427574746F6E007401
:1022C0006F20726573756D65207072696E740000A1
:1022D0005761697420666F72207072696E74007441
:1022E0006F20726573756D652E2E2E000057616923
:1022F0007420666F720066696C616D656E74207023
:1023000075726765000068747470733A2F2F6D6181
:10231000726C696E66772E6F726700322E302E37C0
:10232000002020506C616E6E657242756666657243
:1023300042797465733A20002046726565204D65C8
:102340006D6F72793A2000436F6D70696C65643A05
:102350002053657020333020323032300A00204C58
:1023600061737420557064617465643A2032303250
:10237000302D30392D3239207C20417574686F72D0
:102380003A202833313533442E636F6D2C2043526D
:102390002D3130205632290A00322E302E370A00D5
:1023A0004D61726C696E0020536F6674776172655F
:1023B0002052657365740A00205761746368646F06
:1023C000672052657365740A002042726F776E2031
:1023D0006F75742052657365740A002045787465C2
:1023E000726E616C2052657365740A00506F776578
:1023F0007255700A006175746F25632E670047324D
:1024000037004D31303031006572726F7220777253
:102410006974696E6720746F2066696C650A004490
:102420006F6E6520736176696E672066696C652ED4
:102430000A004D323900456E6473746F7073002565
:102440005320256320256320256320256300656EC6
:102450006473746F7073206869743A200001FFFF21
:10246000FFFFFFFFFFFFFFFFFFFFFF0FFFFFFFFF6C
:10247000FFFFFFFFFFFFFFFFFF1E00000000000047
:102480000000000007FFFF3800000000000000000F
:10249000000003FFFF7000000000000000000000CB
:1024A00001FFFF600000000000000000000000FFCE
:1024B000FF6000000000000000000000007FFFC07F
:1024C00000000000000000007800003FFFC00FC0C7
:1024D000FC00000000007818001FFFC03FE1FF0073
:1024E00000000000783C000FFFC07FF3FF80000079
:1024F0000000783C0007FFC0FFFFFFC000000000A5
:10250000783C0003FFC1F87F87E0000000007800FE
:102510000001FFC1F03F03E0000000007800000070
:10252000FFC1E01E01E01F0003E0783C03F07FC123
:10253000E01E01E07FC00FF8783C07FC3FC1E01EC1
:1025400001E1FFE01FFC783C0FFE1FC1E01E01E32C
:10255000FFF03FFE783C1FFE0FC1E01E01E3F3F8E1
:102560003F3E783C3F3F07C1E01E01E7E0FC7C1F97
:10257000783C3E1F07C1E01E01E7C07C7C0F783C21
:102580003C0F03C1E01E01E7807C780F783C3C0FD4
:1025900003C1E01E01E7803C7800783C3C0F03C19A
:1025A000E01E01E7803C7800783C3C0F03C1E01E50
:1025B00001E7803C7800783C3C0F03C1E01E01E756
:1025C000C03C7800783C3C0F03C1E01E01E3E03CD6
:1025D00078007C3C3C0F03C1E01E01E3FF3FF800A4
:1025E0007FBC3C0F03C1E01E01E1FF3FF8003FBF8D
:1025F000FC0F03C1E01E01E0FF3FF8001FBFFC0F0E
:1026000003C1E01E01E07F3FF8000FBFFC0F036035
:102610000000000000000000000000000760000053
:102620000000000000000000000006700000000034
:1026300000000000000000000E3800000000000054
:102640000000000000001C1E000000000000000050
:1026500000000000780FFFFFFFFFFFFFFFFFFFFFFD
:10266000FFFFF001FFFFFFFFFFFFFFFFFFFFFFFF87
:102670008070012C0190012701B0012201C0011DD1
:1026800001F00118011002130130020E016002096D
:102690000190020401C002FF000003FA004003F5AC
:1026A000008003F000D003EB002004E6007004E19A
:1026B00000E004DC004005D700C005D2004006CD94
:1026C00000D006C8008007C3003008BE00F008B97B
:1026D00000C009B400B00AAF00B00BAA00D00CA52E
:1026E00000000EA000500F9B00C0109600501291E9
:1026F0000000148C00C0158700B0178200B0197D4F
:1027000000D01B7800001E730040206E00902269EC
:1027100000F024640040275F0090295A00E02B5508
:1027200000102E500020304B0010324600E03341A4
:102730000090353C001037370070383200A0392D3A
:1027400000B03A2800A03B2300603C1E00103D1959
:1027500000903D1400103E0F00703E0A00C03E0580
:1027600000003F0000403FFBFF803FF6FFC03FF10D
:10277000FF20082046616374002008204D61780026
:102780002008204D696E004175746F74656D70008E
:102790005654726176204D696E00566D696E005612
:1027A0006D6178204500566D6178205A00566D6144
:1027B00078205900566D6178205800416D6178206D
:1027C0004500416D6178205A00416D6178205900C3
:1027D000416D6178205800412D54726176656C001E
:1027E000412D5265747261637400416363656C00CE
:1027F00050726F62652059204F6666736574005091
:10280000726F62652058204F666673657400546568
:102810006D706572617475726500504300504C4173
:102820000050726568656174202400416476616EB1
:102830006365204B004D61696E005072656865618B
:1028400074202420456E64005072656865617420B0
:10285000242042656400436F6F6C646F776E00469E
:10286000616E205370656564207E004261627973F9
:10287000746570205A00466C6F77001D281A281F57
:10288000E0201020102010102010202010201030E8
:10289000300840048003001FE03FF03FF03FF01F8E
:1028A000E01FE03FF03FF03FF00FC0078003003F24
:1028B000FFF038007030FC3020FC10207810203001
:1028C000102C00D02E31D02F7BD02F7BD02E31D0AA
:1028D0002C00D020301020781020FC1030FC303834
:1028E00000703FFFF03FFFF03800703186302387E3
:1028F000102787902F87D02F03D0203010207810FA
:102900002078102030102F03D02F87D027879023D6
:1029100087103186303800703FFFF01FFFF81FFF2F
:10292000F80410400208200208200410400820800B
:102930001041001041000820800410400000001FDA
:10294000FFF81FFFF82568753A25303268750025B5
:102950006875642025303268753A25303268750014
:102960002020202020202000496E76616C696420A0
:1029700065787472756465720A00202D20496E7640
:10298000616C6964206578747275646572206E7517
:102990006D62657220210A00544845524D414C2019
:1029A00052554E4157415900546865726D616C2013
:1029B00052756E61776179004572723A204D4158C7
:1029C00054454D50004D415854454D502074726946
:1029D000676765726564004572723A204D494E54CE
:1029E000454D50004D494E54454D50207472696715
:1029F000676572656400202F002042403A00204045
:102A00003A0020573A003F00496E697469616C6969
:102A10007A6520454550524F4D005072696E7420C2
:102A200041626F72746564004D323520500A4D3238
:102A3000340050617573696E672E2E2E0045455027
:102A4000524F4D2056657273696F6E204572726FDA
:102A50007200454550524F4D20496E6465782045BF
:102A600072726F7200454550524F4D2043524320C1
:102A70004572726F720049676E6F72650043616ED6
:102A800063656C004D6F74696F6E004D38340041A2
:102A900075746F20486F6D650053746172742050B7
:102AA00072696E740043616E6E6F7420656E74653A
:102AB00072207375626469723A2000022E2E0044FF
:102AC000697361626C652053746570706572730020
:102AD000473238005072696E742066726F6D204DF7
:102AE0006564696100205A3A200020593A2000426A
:102AF000656420583A20005072696E7420506175E8
:102B00007365640050726F62696E67204661696C1C
:102B100065640A0050726F62696E67204661696C75
:102B200065640043522D3130205632205265616475
:102B3000792E005072696E74696E672E2E2E0022F7
:102B40000A00556E6B6E6F776E20636F6D6D616EF0
:102B5000643A202200205A3A0020593A0024F4D442
:102B60003050C38E20C2A24017828B7011127A910E
:102B70000D816CD90AA861E108C758660761514305
:102B8000061E4B5D05C145A7041A411104093D9875
:102B900003713931034036DB0265339102D430547E
:102BA00002802E1D02632CEE01752AC501B028A0FB
:102BB00001102781018F2564012B244B01E0223471
:102BC00001AC211F018D200D01801FFC00841EED32
:102BD00000971DDF00B81CD200E61BC600201BBCFE
:102BE00000641AB200B219A8000A19A0006A189964
:102BF00000D117910040178B00B516840031167E66
:102C000000B31579003A157300C7146F0058146AA1
:102C100000EE1366008813630025135E00C7125B85
:102C2000006C12570015125400C111510070114F61
:102C30000021114B00D61049008D1047004610446A
:102C40000002104200C00F4000800F3E00420F3CC7
:102C500000060F3B00CB0E3800930E37005C0E359C
:102C600000270E3400F30D3200C10D3100900D30FD
:102C700000600D2E00320D2D00050D2C00D90C2BFF
:102C800000AE0C2900850C29005C0C2700350C27B0
:102C9000000E0C2600E80B2400C40B2400A00B231C
:102CA000007D0B23005A0B2100390B2100180B204B
:102CB00000F80A1F00D90A1E00BB0A1E009D0A1D4B
:102CC00000800A1D00630A1C00470A1B002C0A1B17
:102CD00000110A1A00F7091A00DD091900C40919C0
:102CE00000AB091900920917007B09180063091746
:102CF000004C09160036091600200916000A0915AD
:102D000000F5081500E0081400CC081400B80814F9
:102D100000A4081400900813007D0812006B08132B
:102D20000058081200460812003408110023081148
:102D3000001208110001081100F0071000E0071050
:102D400000D0071000C0071000B0070F00A1071047
:102D50000091070E0083070F0074070F0065070E30
:102D60000057070E0049070E003B070D002E070E07
:102D70000020070D0013070D0006070D00F9060CD3
:102D800000ED060D00E0060C00D4060C00C8060C91
:102D900000BC060C00B0060C00A4060B0099060C43
:102DA000008D060B0082060B0077060B006C060BED
:102DB0000061060A0057060B004C060A0042060A8C
:102DC0000038060A002E060A0024060A001A060A1F
:102DD000001006090007060A00FD050900F40509B0
:102DE00000EB050900E2050900D9050900D0050935
:102DF00000C7050900BE050900B5050800AD0508B6
:102E000000A50509009C050800940508008C05082C
:102E100000840508007C050800740508006C05079F
:102E200000650508005D050700560508004E05070A
:102E30000047050700400508003805070031050771
:102E4000002A050700230507001C050600160507D4
:102E5000000F0507000805060002050700FB040631
:102E600000F5040700EE040600E8040600E204078B
:102E700000DB040600D5040600CF040600C90406E2
:102E800000C3040600BD040600B7040600B1040533
:102E900000AC040600A6040600A00405009B04067E
:102EA0000095040500900406008A040500850405C9
:102EB00000800406007A040500750405007004050E
:102EC000006B04050066040500610405005C040550
:102ED0000057040500520405004D04050048040590
:102EE00000430405003E0404003A040500350405CF
:102EF00000300404002C040500270404002304050A
:102F0000001E0404001A0404001604050011040441
:102F1000000D040400090405000404040000040476
:102F200000FC030400F8030400F4030400F00304AD
:102F300000EC030400E8030400E4030400E00304DD
:102F400000DC030400D8030400D4030400D003040D
:102F500000CC030400C8030300C503030024F404E9
:102F6000D9201BC40C5C0E9804C4095F026507716C
:102F700001F405F900FB04B30048048700C10369AC
:102F8000005803550003034500BE023A0084023195
:102F90000053022A002902250004022000E4011C3B
:102FA00000C8011900AF0117009801140084011333
:102FB00000710110006101100051010E0043010D6C
:102FC0000036010B002B010B0020010B001501093D
:102FD000000C01090003010800FB000800F30008D1
:102FE00000EB000700E4000600DE000600D8000643
:102FF00000D2000600CC000500C7000500C2000595
:1030000000BD000400B9000400B5000400B10004D4
:1030100000AD000400A9000400A5000300A2000305
:10302000009F0004009B000300980003009500022D
:103030000093000300900003008D0002008B00034A
:103040000088000200860002008400030081000264
:10305000007F0002007D0002007B00020079000278
:103060000077000100760002007400020072000187
:1030700000710002006F0002006D0001006C000290
:10308000006A00010069000200670001006600019B
:10309000006500010064000200620001006100019F
:1030A00000600001005F0002005D0001005C0001A3
:1030B000005B0001005A00010059000100580001A6
:1030C00000570001005600010055000100540001A6
:1030D00000530000005300010052000100510001A4
:1030E00000500001004F0001004E0000004E0001A2
:1030F000004D0001004C0001004B0000004B00019E
:10310000004A000100490001004800000048000199
:103110000047000100460000004600010045000095
:10312000004500010044000100430000004300018D
:103130000042000000420001004100000041000187
:1031400000400001003F0000003F0001003E000081
:10315000003E0001003D0000003D0001003C000079
:10316000003C0000003C0001003B0000003B00016F
:10317000003A0000003A0001003900000039000167
:10318000003800000038000000380001003700005F
:103190000037000100360000003600000036000154
:1031A000003500000035000000350001003400004B
:1031B0000034000000340001003300000033000040
:1031C0000033000100320000003200000032000134
:1031D000003100000031000000310001003000002B
:1031E0000030000000300001002F0000002F000020
:1031F000002F0000002F0001002E0000002E000014
:10320000002E0001002D0000002D0000002D000008
:10321000002D0001002C0000002C0000002C0000FC
:10322000002C0001002B0000002B0000002B0000F0
:10323000002B0001002A0000002A0000002A0000E4
:10324000002A0001002900000029000000290000D8
:1032500000290000002900010028000000280000CB
:1032600000280000002800000028000100270000BE
:1032700000270000002700000027000000270001B1
:1032800000260000002600000026000000260000A6
:103290000026000100250000002500000025000098
:1032A000002500000025000000250001002400008A
:1032B000002400000024000000240000002400017D
:1032C0000023000000230000002300000023000072
:1032D0000023000000230000002300010022000062
:1032E0000022000000220000002200000022000056
:1032F0000022000100210000002100000021000048
:103300000021000000210000002100000021000138
:10331000002000000020000000200000002000002D
:10332000002000000020000000200000002000011C
:10333000001F0000001F0000001F0000001F000011
:10334000001F0000001F0000001F0001001E000001
:10335000001E0000001E0000001E000000C2310020
:10336000001C260000F4190000D80F0000EB080034
:1033700000C00400007502000040010000000021B0
:1033800000240027002A002D003000330001010036
:1033900000040107010A0100002200250028002B7B
:1033A000002E003100340002010000050108010B6D
:1033B00001000020002300260029002C002F0032ED
:1033C00000000100000301060109010505050507CC
:1033D0000508080808020202020A0A080804040490
:1033E00004010101010101010103030303030303BC
:1033F00003040707070C0C0C0C0C0C0C0C0202024B
:103400000206060606060606060B0B0B0B0B0B0B3D
:103410000B010210202008081020401020408002DC
:10342000010201080402010102040810204080800A
:10343000402010080402018004020180402010088E
:103440000402010804020101020408102040800166
:103450000204081020408000000A0B02090C0D0E27
:103460000807030401000000000000000000000045
:10347000000000000000000000000000000000004C
:103480000000001211100000000000000000000009
:10349000000000000000000000000000004D6F76FA
:1034A000652025736D6D004D6F766520302E316D72
:1034B0006D004D6F766520316D6D004D6F76652026
:1034C00031306D6D004D6F7665204178697300482D
:1034D0006F74656E6420746F6F20636F6C64004559
:1034E00078747275646572004D6F7665205A004D70
:1034F0006F76652059004D6F7665205800416363F3
:10350000656C65726174696F6E3A2050003F4A20A5
:103510006F7574206F662072616E67652028302E8B
:10352000303120746F20302E33290A00204D39327B
:1035300020580020204D61783A200020204D696EEF
:103540003A2000536F667420656E6473746F7073F5
:103550003A200020496E76616C6964206578747247
:103560007564657220004F46460A00466164652016
:103570004865696768742000426564204C6576651B
:103580006C696E6720004661696C656420746F2009
:10359000656E61626C6520426564204C6576656C81
:1035A000696E670A00496E76616C6964206D6573A7
:1035B000682E0A0050726F62696E6720506F696EE4
:1035C000740025532025692F25690050726F6269A8
:1035D0006E67206D65736820706F696E74200020BF
:1035E0002844525952554E290047323920417574AA
:1035F0006F20426564204C6576656C696E67003F9C
:1036000020284C2C522C462C4229206F7574206F98
:103610006620626F756E64732E0A003F2856296516
:1036200072626F7365206C6576656C20696D706C75
:1036300061757369626C652028302D34292E0A006B
:10364000426164205A2076616C75650A004E6F20D5
:1036500062696C696E65617220677269640A002034
:10366000436F756E7420583A0045310062656400FE
:103670002C2073797374656D2073746F707065643A
:1036800021204865617465725F49443A20004865AD
:103690006174696E67204661696C656400486561A4
:1036A00074696E67206661696C6564004D31313202
:1036B0002053687574646F776E00446966663A20BB
:1036C00020200046726F6D5374703A005374657019
:1036D0007065723A00556E4C6576656C3A004C65C3
:1036E00076656C65643A005261773A2020202000AC
:1036F0000A4C6F676963616C3A00436F756E7420A2
:10370000453A004361703A001A02CC0111241FBEF1
:10371000CFEFD1E2DEBFCDBF00E00CBF13E0A0E0F1
:10372000B2E0ECEEF1EA02E00BBF02C007900D92AE
:10373000A634B107D9F726E1A6E4B3E001C01D9293
:10374000AF36B207E1F71BE1C5E8DBE100E006C0F8
:1037500021970109802FFE010F943A4DC438D107FB
:1037600080E00807A9F70F94E9370D94E4500C9412
:1037700000002F923F924F925F926F927F928F92B2
:103780009F92AF92BF92CF92DF92EF92FF920F93F0
:103790001F93CF93DF93CDB7DEB7E7970FB6F894BB
:1037A000DEBF0FBECDBF8EAB209150032CAB21E00E
:1037B0002093500380914F048D3409F45BC384350A
:1037C00011F40C947A2C873411F00C948C2C809189
:1037D0004D0490914E048B31910509F420C1B4F44D
:1037E0008430910534F482309105DCF597FF2DC0CB
:1037F0003DC38531910511F40C948E2C8A319105CD
:1038000009F409C1049709F031C3C6C08A32910591
:1038100009F44CC254F48D31910509F42BC10CF418
:1038200019C14E9709F445C121C38B35910509F49F
:10383000BAC18C35910509F4BBC18A35910509F0EF
:1038400015C310924F030C948E2C8091300E813052
:1038500011F00C948E2C0F943E200E94167E0C9436
:103860008E2C2091300E213011F00C948E2C11E012
:10387000029709F010E00F943E2019821A821B82F1
:103880001C821D821E821F82188682E50E942240B1
:10389000882309F44BC00E94A23F6B017C0120E009
:1038A00030E0A9010F943F46882309F455C0809168
:1038B0006F0290917002A0917102B091720288A77C
:1038C00099A7AAA7BBA78091730290917402A091B7
:1038D0007502B091760288AB99ABAAABBBAB809076
:1038E000381590903915A0903A15B0903B1540903E
:1038F0003C1550903D1560903E1570903F15A50108
:10390000940168A579A58AA59BA50F943F468111CE
:103910000C94972CA301920168A979A98AA99BA963
:103920000F943F468823C1F00C94972C89E40E94A1
:103930002240882331F00E94A23F69837A838B83DF
:103940009C838AE40E942240882331F00E94A23F97
:103950006D837E838F83988720E030E0A9016981A1
:103960007A818B819C810F943F4681110C944B2D61
:1039700020E030E0A9016D817E818F8198850F94D0
:103980003F4681110C944B2D0E94EB538BEA96E03D
:103990000E9402530C948E2C80E50E9422408823C2
:1039A00029F00F9413256B017C0103C0C12CD12C8D
:1039B000760183E50E942240882361F00E94A23FA5
:1039C00020E030E04AE754E40F94A5460F94C84E37
:1039D0006B017C010E9413AC8091940E811105C093
:1039E00060E081EC96E00E9427F90F94BF1DC60E9F
:1039F000D71EE81EF91E0F94BF1DDC01CB018C19E8
:103A00009D09AE09BF09B7FD02C00C948E2C80E061
:103A10000E941036F0CF0E9453400C948E2C87E009
:103A20000E941F7D81110C948E2C8CE0E7E9F2E05E
:103A3000DE01119601900D928A95E1F760E070E049
:103A400080E50F940023BE016F5F7F4F0E9488F4D2
:103A50000C948E2C809102058770873011F00C94A5
:103A60005E2D60E08FE40E943E4081110C948E2C0C
:103A70000C945E2D0F94BF1D6093780E7093790E99
:103A800080937A0E90937B0E87E00E941F7D8111B8
:103A90000C948E2C80913B06882311F40C94402FBB
:103AA00060E08FE40E943E4081110C948E2C0C94B7
:103AB000402F20914A1530914B1540914C15509153
:103AC0004D1560916F02709170028091710290911A
:103AD00072020F94554DAB01BC0188E50E94FF5F57
:103AE00069837A838B839C8320914E1530914F1587
:103AF000409150155091511560917302709174026C
:103B000080917502909176020F94554DAB01BC01E6
:103B100089E50E94FF5F6D837E838F839887BE0156
:103B20006B5F7F4FCE0101960F94DA25882311F445
:103B30000C948E2C80E00E94DD4E0E94EE8061E0AD
:103B400085E40E943E4021E0482FBE016B5F7F4F1D
:103B5000CE0101960F94360C6B017C019B01AC01E8
:103B60000F944750811119C049815A816B817C8122
:103B70008FEE9AE20E94BA534D815E816F81788503
:103B80008AEE9AE20E94BA53B701A60185EE9AE244
:103B90000E94BA538AE00E94E4340E94D5800E94B9
:103BA00059830C948E2C8FE080934F030C948E2CB1
:103BB00024E2222E23E0322E36EFE32E34E0F32EE1
:103BC0002FE632E039A728A749EAC42E45E1D42ED2
:103BD00000E010E0D1018D911D010E942240882358
:103BE00009F44BC00E94A23F2B013C01133049F065
:103BF000F60120813181428153810F94544D2B0174
:103C00003C01A8A5B9A52D913D914D915C91C301B1
:103C1000B2010F94544D4B015C012DEB37E346E8A4
:103C200055EB0F94B54F87FD0AC02DEB37E346E8FF
:103C300055E3C501B4010F943F461816F4F4133050
:103C400051F440927B0250927C0260927D0270920D
:103C50007E0201E012C0A5019401F701608171812B
:103C6000828193810F94554DD7016D937D938D93F0
:103C70009C931397812F0E94EC7C1F5FB4E0EB0EA6
:103C8000F11CE8A5F9A53496F9A7E8A7F4E0CF0E52
:103C9000D11C143009F09ECF002321F08BE792E075
:103CA0000E942DAF0E9459830C948E2C8091300E6F
:103CB000813011F00C948E2C89E40E942240E82E71
:103CC000882321F00E949E3F082F01C000E08AE473
:103CD0000E942240F82E882321F00E949E3F182F38
:103CE00001C010E0EE2011F0033020F4FF2041F07D
:103CF000133030F08DEE96E00E9402530C948E2C1F
:103D000080E1EFE6F2E0A8E3B5E101900D928A953B
:103D1000E1F7EE2019F1602F000F770B880B990B5C
:103D20000F9446462091F7053091F8054091F9052A
:103D30005091FA050F94A5462091E9053091EA05C6
:103D40004091EB055091EC050F94554D609338155B
:103D50007093391580933A1590933B15FF2019F114
:103D6000612F110F770B880B990B0F94464620910A
:103D7000FB053091FC054091FD055091FE050F9427
:103D8000A5462091ED053091EE054091EF0550914B
:103D9000F0050F94554D60933C1570933D1580933D
:103DA0003E1590933F1560E080E50E943E408823D9
:103DB000C1F1EE20D1F020914A1530914B15409180
:103DC0004C1550914D1560913815709139158091B1
:103DD0003A1590913B150F94544D6093381570939C
:103DE000391580933A1590933B15FF20D1F020911F
:103DF0004E1530914F1540915015509151156091CD
:103E00003C1570913D1580913E1590913F150F9492
:103E1000544D60933C1570933D1580933E159093DF
:103E20003F1540E050E0BA0186E40E94FF5F6B015D
:103E30007C0120E030E0A9010F94B54F18164CF436
:103E400020E030E040E752E4C701B6010F944F4E46
:103E500003C060E070E0CB0169837A838B839C832D
:103E6000CE0101960E940D810C948E2C0F943D0B77
:103E70000C948E2C80914D0490914E0488379105BE
:103E800009F452C70CF0E8C08D34910509F4A5C4BB
:103E90000CF05DC08931910509F4C4C21CF5843170
:103EA000910509F43CC27CF48131910509F423C2E7
:103EB0002CF4029708F4E7C10C94772C429709F48C
:103EC00036C60C94772C8631910509F45DC20CF44A
:103ED00057C28731910509F461C2489709F473C24A
:103EE0000C94772C8E31910509F409C3ACF48B3115
:103EF000910509F4A9C20CF499C28C31910509F419
:103F0000F6C24D9711F00C94772C8091D2138E7FCE
:103F10008093D2130C948E2C8A32910509F440C4FC
:103F20004CF48F31910509F490C3809709F44AC38A
:103F30000C94772C8B34910509F44BC48C34910587
:103F400011F00C94772C0E94C7840C948E2C8C3624
:103F5000910511F40C948E2C0CF049C08535910517
:103F600009F4E8C55CF58235910509F4D2C5E4F49D
:103F70008135910511F00C94772C0E9488F10E94F4
:103F8000DC840E9424AC0E94443268EE73E080E03E
:103F900090E00E9442520E94493260E086E198E03F
:103FA0000E9427F90C948E2C8335910509F4B8C52D
:103FB0008435910509F4BBC50C94772C893691059D
:103FC00009F460C454F48C35910509F4D6C58836DB
:103FD000910509F406C40C94772C8A36910509F4EE
:103FE00065C48B36910509F4A5C40C94772C8137F0
:103FF000910509F404C58CF48E36910509F4A9C421
:104000000CF416C48F36910509F4B4C480379105B9
:1040100011F40C948E2C0C94772C8537910509F4AF
:1040200039C66CF48237910509F431C6833791059E
:1040300011F00C94772C0E94DC6B0C948E2C86373C
:10404000910509F437C68737910511F00C94772C48
:104050000E94EE830C948E2C8F3221E0920711F493
:104060000C944E2A0CF081C08D3C910509F466C772
:10407000ECF58B39910509F423C5E4F48D379105EE
:1040800009F444C56CF48937910511F00C94772C30
:1040900010925C0C10925B0C0E9445840C948E2C48
:1040A0008C38910509F4CDC48139910509F443C6D2
:1040B0000C94772C893C910509F4F8C654F48E3B96
:1040C000910509F4DDC4883C910509F4A8C60C9457
:1040D000772C8B3C910509F40FC78C3C910511F0AE
:1040E0000C94772C0F949D240C948E2C823E910579
:1040F00009F4C1C7D4F4833D910509F43CC75CF4CD
:104100008E3C910511F00C94772C7EE5E72E7CE037
:10411000F72E10E01EC78C3D910509F42FC78D3D89
:10412000910509F452C70C94772C8C32A1E09A07C0
:1041300011F40C94752964F48831E1E09E0709F4C8
:10414000E6C78232914011F40C941E290C94772C0E
:104150008D3221E0920711F40C948A298E3291401D
:1041600011F40C940A2A0C94772C863FA1E09A074C
:1041700011F40C94402B0CF047C08C39E1E09E0701
:1041800011F40C94602AECF4813921E0920711F4C7
:104190000C94512A4CF48039914011F00C94772CF6
:1041A0000E9413AC0C948E2C8239B1E09B0711F461
:1041B0000C945B2A8A39914011F40C948E2C0C9447
:1041C000772C8C3AF1E09F0711F40C94E02A6CF400
:1041D000843A31E0930711F40C94662A853A9140B1
:1041E00011F40C94692A0C94772C843FB1E09B075E
:1041F00011F40C943D2B853F914011F00C94772CD9
:104200000E941CA50C948E2C8B35F2E09F0711F4B4
:104210000C946A2BC4F4883F31E0930711F40C949A
:104220004C2B14F40C94432B8C30B2E09B0711F40C
:104230000C945D2B8835924011F00C94772C0F94E0
:1042400018210C948E2C803AF3E09F0709F4EFC1FB
:104250006CF4833533E0930711F40C94E32B84382A
:10426000934011F40C94E62B0C94772C873EB3E02A
:104270009B0711F40C944F2C893E934011F40C943D
:104280005D2C0C94772C80E50E942240882329F035
:104290000F9413256B017C0103C0C12CD12C760136
:1042A00083E50E942240882361F00E94A23F20E023
:1042B00030E04AE754E40F94A5460F94C84E6B01D2
:1042C0007C010E9413AC80914B0490914C040097A8
:1042D00021F061E00E94C0F905C060E086E097E04F
:1042E0000E9427F940E0C701B6010E94413B0F94AC
:1042F0004B0B0C948E2C8091500484FF02C00C94C4
:10430000432F8091520487FF02C00C94432F809169
:104310005304837011F00C94432F0C945F2F809101
:10432000D21383FF25C081E397E00E94025380915E
:10433000D21383FF17C086EA91E10E945FB78BE139
:10434000E6EAF1E1DE01119601900D928A95E1F71E
:1043500060E070E0CE0101960E944ABACE0101965B
:104360000E9453B982E297E00E9402530C948E2C73
:104370000E94BB5482E497E00E9402530C948E2C5E
:104380000E94099A0C948E2C0E94E7978091D21378
:10439000877F80628093D2130C948E2CE0914B0423
:1043A000F0914C048081882329F0803209F4108236
:1043B0003196F8CF60E080914B0490914C040E94BC
:1043C00042980C948E2C80914B058823F9F080E064
:1043D00090E0A0EAB1E488A399A3AAA3BBA31C8E92
:1043E0001D8E1E8E1F8E19821A821B821C8200E077
:1043F00010E020E0AE01405E5F4FBE01645E7F4F83
:10440000CE0101960E9463550C948E2C0E9420329E
:10441000882321F00E945B990E94A3840F944B0B88
:104420000C948E2C0F942B220C948E2C8091D213F2
:1044300083FD02C00C948E2C83E50E9422408111E2
:104440000C946D2F0C948E2C83E40E94D93F88230A
:1044500019F186E597E00E9402538091501188235C
:1044600091F0BE016F5F7F4F8DE491E10E9426B60F
:104470008E010F5F1F4FD8018D918D01882339F078
:104480000E94E434F8CF8CE497E00E9402538AE063
:104490000E94E4340C948E2C8091D21382FF21C0B0
:1044A00085E697E00E9402536091CE137091CF137E
:1044B0008091D0139091D1134AE00E94EB348FE2A7
:1044C0000E94E4346091CA137091CB138091CC1395
:1044D0009091CD134AE00E94EB340E94E9350C9490
:1044E0008E2C87E797E00E9402530C948E2C8091CB
:1044F0004B0490914C040E94F8970C948E2C809160
:10450000D21383FD02C00C948E2C0F94230B809148
:10451000D21383FD02C00C948E2C40914B04509119
:104520004C04BE01645E7F4F80E00F94C3018C0198
:10453000009711F40C948E2C6C8D7D8D19821C8249
:1045400022E0AC01CE0101960E9459B9811102C04E
:10455000F12C14C0CE0101960F9431018823C1F3D0
:1045600061E0CE0101960E94CEB5009789F325EE59
:10457000FC0120831C820E9456B1F82ECE010196C8
:104580000E9453B9B801FF2099F080EA97E00E9499
:10459000D8538AE00E94E4341092CE131092CF13C5
:1045A0001092D0131092D1130E9491960C948E2CDD
:1045B00088E897E00E94D8538DE396E30E94025367
:1045C0000C948E2C8091D21382FD0E9413AC8091AA
:1045D000D21383FD02C00C948E2C60E080E50E9413
:1045E0003E40182F682F80914B0490914C040E94FC
:1045F000429883E50E942240882381F00E946A3F0E
:10460000AB01BC014093CE135093CF136093D013F2
:104610007093D1138DE491E10E9449B30E945B999C
:1046200011110C948E2C0E94A3840C948E2C20913A
:104630004B0430914C049091D21392609093D2131A
:10464000C9010E94F8970C948E2C0E9454847B011F
:104650008C0120E831E541E050E00F94954CC90110
:104660006DE671E00F94124D4B015C01C801B7017A
:1046700020E13EE040E050E00F94954CCA01B901C2
:1046800028E130E040E050E00F94954C762E672E04
:10469000C62ED72E9CE3292E312C412C512CC8013B
:1046A000B701A20191010F94954CF62EE72ECA0195
:1046B000B901A20191010F94954CCB018E010F5FBE
:1046C0001F4F8114910499F0EF92FF927F936F93A3
:1046D0006F927F92BF92AF929F928F928EEA97E0F5
:1046E0009F938F931F930F930F94D74513C0A114DB
:1046F000B104B1F0EF92FF927F936F936F927F922C
:10470000BF92AF9282EB97E09F938F931F930F938B
:104710000F94D7450FB6F894DEBF0FBECDBF30C0A3
:10472000CD2879F0EF92FF927F936F936F927F92F3
:1047300086EB97E09F938F931F930F930F94D7452A
:10474000E9CF892B69F0EF92FF927F936F938AEB09
:1047500097E09F938F931F930F930F94D745DACFD2
:10476000EF92FF928EEB97E09F938F931F930F939F
:104770000F94D7450F900F900F900F900F900F90C0
:1047800060E0C8010E94C0F90E94BB54B80182ECED
:1047900097E00E94D8538AE00E94E4340C948E2C57
:1047A0006DE070E080E50E942F408C0197FF02C011
:1047B0000C948E2CE82E60E089E40E943E4081112A
:1047C0000C947E2F802F0F944F35811171C40C945F
:1047D0007E2F0E94A3840C948E2C0E94DC840C9467
:1047E0008E2C8091FA0B83FF02C00C948E2C0F94B8
:1047F000EF2087FF02C00C948E2C89E40E94224097
:10480000882311F40C94BB2F0E947A3F90E0181675
:10481000190614F481E090E026E0289FF001299F1A
:10482000F00D1124E95FF94F808191810C94C52F1F
:104830008091FA0B83FF02C00C948E2C0F94EF2012
:10484000F82E87FF02C00C948E2C89E40E9422402F
:10485000082F882311F40C94CE2F0E947A3F90E009
:104860001816190614F481E090E026E0289FF00164
:10487000299FF00D1124E95FF94F8081918110E0AB
:104880000C94DE2F0F94EF20182F87FD0AC080E9CB
:1048900096E10E940253812F0E9431EC8AE00E942F
:1048A000E4343CA9309350030C94133160E080E56C
:1048B0000F948927F82E81E08F1510F40C948E2C1C
:1048C00081E40E94D93F882329F060917106062F68
:1048D00010E002C00FEF10E089E40E94224088231C
:1048E00099F00E947A3F90E01816190614F481E0BE
:1048F00090E026E0289FF001299FF00D1124E95F48
:10490000F94F0481158108C083E50E942240882365
:1049100019F00E946A3F8B01EF2DF0E0EF58F94F3C
:10492000B8010F3F110519F010F06FEF70E06083D0
:104930000C948E2C60E080E50F948927823010F073
:104940000C948E2CE82FF0E0EF58F94F10820C9465
:104950008E2C8EE40E942240882309F4DFC70E9437
:104960006A3F6093D8047093D9048093DA049093DB
:10497000DB04D4C783E50E94D93F882331F060E08F
:1049800083E50F9489278093FA0B0E94BB548AEE2B
:1049900097E00E9402538091FA0B882369F180E628
:1049A000E82E89E0F82E00E010E020E08091FA0B7C
:1049B00090E0A0E0B0E0002E04C0B695A7959795D2
:1049C00087950A94D2F780FF0EC0DD24D394D20ECF
:1049D000222319F08CE20E94E434F701859194912E
:1049E0000E9402532D2D0F5F1F4F92E0E90EF11C24
:1049F00005301105D9F64BCD86EE97E046CD83E51F
:104A00000E942240882371F00E947A3F282F30E0D4
:104A10002D3331051CF48093000280C78CE3809312
:104A200000027CC70E94BB544091000250E060E04D
:104A300070E081EF97E00E949C538AE00E94E4348A
:104A40006DC78091FA0B83FD69C789E40E942240FB
:104A5000882311F40C9428300E947A3F90E01816B5
:104A6000190614F481E090E026E0289FF001299FC8
:104A7000F00D1124E95FF94F828193810C9433305A
:104A80008091FA0B83FD4AC789E40E942240882363
:104A900011F40C943A300E947A3F90E018161906EF
:104AA00014F481E090E026E0289FF001299FF00DAA
:104AB0001124E95FF94F8281938110E00C944B300F
:104AC00083E50E942240882309F428C70E947A3F88
:104AD000182F90E0CD970CF01CE310934A030F942D
:104AE000BF1D6B017C01212F30E0A8EEB3E00F94D5
:104AF000E94CC60ED71EE81EF91EC0924603D0929E
:104B00004703E0924803F092490308C70F942B2211
:104B100005C780914F038F7D806180934F03FEC650
:104B200080914F038F7E806280934F03F7C60F946E
:104B30000224F4C683E50E94D93F882309F4EEC617
:104B40000F94BF1D6093780E7093790E80937A0E48
:104B500090937B0E0E94A23F20E030E04AE754E4AD
:104B60000F94A5460F94C84E60934B0370934C036B
:104B700080934D0390934E03D1C60F94EF2087FD91
:104B8000CDC69091500494FD04C09091520497FFBB
:104B90000AC014E2C12E13E0D12E0BEFE02E0BE081
:104BA000F02E10E009C090915304937091F7682F94
:104BB00081E00F946224B2C6D6018D916D010E94EE
:104BC0002240882309F459C0133009F04FC00E94D5
:104BD000A23F4B015C0120E030E040EA51E40F9439
:104BE0003F4687FF3AC0A501940160911B0C70916C
:104BF0001C0C80911D0C90911E0C0F944F4E2B019C
:104C00003C019B01AC0160912B0C70912C0C8091AC
:104C10002D0C90912E0C0F94A54660932B0C709345
:104C20002C0C80932D0C90932E0C6091610670914A
:104C3000620680916306909164060F944446A30136
:104C400092010F94A5460F94C84E6093610670932D
:104C50006206809363069093640680921B0C909288
:104C60001C0CA0921D0CB0921E0C07C00E94A23F0B
:104C7000F701648B758B868B978B1F5FF4E0EF0ECB
:104C8000F11C143009F098CF0E94F4AA47C60F9483
:104C9000E43244C680914B0490914C04009709F48F
:104CA000BDCBDC012C91222309F4B8CB60E00E943B
:104CB000C0F934C600914B0410914C0494E0F12CDF
:104CC00040E0915021F1F8018081282F2B7F213481
:104CD00021F421812133D9F407C08035C1F48181C9
:104CE00080538A3048F013C0813421F0853421F498
:104CF00041E002C0FF24F39498012E5F3F4F8901E9
:104D00002F5F3F4FF80180818032C9F3DACF411124
:104D10000E94BB54FF2021F084E298E00E940253DD
:104D2000C8010E94EF35FAC520935C0C20935B0C00
:104D30000E944584F3C560E070E083E50E942F4047
:104D4000823038F00E94EB5388E298E00E940253D0
:104D5000E5C58C01112788E40E9422408823E1F0F8
:104D60000E949E3F8A3A910544F00E949E3F8E31F8
:104D7000914034F40E949E3F05C08AEA90E002C050
:104D80008DE191E026E0209FF001219FF00D11249C
:104D9000E95FF94F9183808382E40E942240882357
:104DA000D9F00E949E3F059744F00E949E3F8937AC
:104DB000910534F40E949E3F05C085E090E002C05A
:104DC00088E790E026E0209FF001219FF00D11245C
:104DD000E95FF94F9383828386E40E94224088230F
:104DE00009F49CC50E949E3F97FD09C00E949E3F0A
:104DF0008F3F910509F034F40E949E3F05C080E08A
:104E000090E002C08FEF90E026E0209FF001219F0C
:104E1000F00D1124E95FF94F958384837FC50F94CA
:104E2000EF20182F87FD7AC50091400684E40E9488
:104E30002240882311F40C9474300E94A23F6B012D
:104E40007C0120E030E0A9010F943F46882341F126
:104E500024E01202F0011124E45CF94FC082D182F7
:104E6000E282F38220E030E0A90160913C0670917B
:104E70003D0680913E0690913F060F943F4681117A
:104E80000CC080E090E0A0EEBFE380933C069093DE
:104E90003D06A0933E06B0933F0601E00C947430AB
:104EA00080E0809340060E942AA538C50F94EF2029
:104EB00087FD34C5A4E2EA2EA3E0FA2E0BEF1BE037
:104EC000BBE0CB2EBCE0DB2ED7018D917D010E9493
:104ED000D93F882359F00E94A23F0F94C84EF80191
:104EE00060837183828393830E947DAA0C5F1F4F2E
:104EF000C016D10649F712C50F94EF2087FD0EC5E5
:104F0000E4E2EE2EE3E0FE2E0BEF1BE0FBE0CF2E03
:104F1000FCE0DF2ED7018D917D010E94D93F8823CF
:104F200039F00E94A23FF80164A375A386A397A35A
:104F30000C5F1F4FC016D10669F7F0C40F942325EC
:104F4000EDC41F5FB4E0EB0EF11C133011F40C94B0
:104F5000521E88E5810F0E94D93F882391F30E9459
:104F6000A23FD7016D937D938D939C931397812FCF
:104F70000E94EC7CE6CF0F941323D0C483E50E94FB
:104F80002240882331F00E949E3F9093120280932A
:104F900011028091500490915104A0915204B0915B
:104FA0005304892B8A2B8B2B09F0B8C46091110212
:104FB000709112028AE498E00E94CB5385E20E942D
:104FC000E4348AE00E94E434A9C40F94EF20F82E60
:104FD00087FDA4C483E50E9422400F2D0F2C000CF6
:104FE000110B882369F10E949E3FF801EE0FFF1F0D
:104FF000EB5EFD4F91838083000F111F000F111F87
:10500000F801E55CFD4F7F01BC01990F880B990BFE
:105010000F9446462AE037ED43E25CE30F94A54641
:10502000F801EF5BF94F20813181428153810F9468
:10503000A546D7016D937D938D939C9313976EC472
:105040000E94BB5485E40E94E43480E38F0D0E94EB
:10505000E434000F111FF801EB5EFD4F6081718198
:105060008EE498E00E94CB5385E20E94E4348AE00B
:105070000E94E43453C480E50E94D93F882309F498
:105080004DC460E070E080E50E942F40F82E6FEF85
:105090007FEF83E50E942F408C010196039708F073
:1050A0003DC4F7FC3BC48F2D0F944F35882339F056
:1050B0000E94EB5386E598E00E9402532FC40E94A1
:1050C00013AC60E08F2D0F94801C0F3FBFEF1B07C8
:1050D00031F00130110571F000E010E00DC08F2DAE
:1050E0000F94281C31E020E0892B09F030E0032FD9
:1050F000122F02C001E010E08F2D0F94281C8017A2
:10510000910709F40BC480E00E941036F5CF80E5CA
:105110000E94D93F882309F401C40E949E3F8C015C
:10512000892B09F07FC083E50E94D93F882389F04D
:105130000E949E3F8F3FEFEF9E0729F48CE192E1A2
:105140000E94DA32EBC3BC018CE192E10E949A33F7
:10515000E5C30E94BB5460E070E085E698E00E94E1
:10516000CB5380911E1228E532E06901C81AD1089C
:1051700087FDD394CC0CDD1CCC0CDD1C0D2C000C5D
:10518000EE08FF0880911D1228E830E04901881AD6
:10519000910887FD9394880C991C880C991C092C04
:1051A000000CAA08BB0880911C128F3FC1F090E050
:1051B000FC01EE0FFF1F8E0F9F1FFC01ED52FE4EF4
:1051C0002181328183E0220F331F8A95E1F794E039
:1051D000369527959A95E1F72E5F3F4F02C020E064
:1051E00030E02F5F3F4FC901330FAA0BBB0B9C016F
:1051F000AD01281939094A095B09A4EBB0E00F9405
:10520000D64CA7019601281939094A095B090F9460
:10521000B74CB9018BE896E30E94CB538AE00E9419
:10522000E4347CC30E94EB53B80186E698E00E9408
:10523000CB5387EF96E00E94025370C38AE50E9429
:105240002240811106C083E50E942240882309F490
:1052500040C00E94A23F20E030E040E050EC0F94BC
:105260003F4687FD4DC70E94A23F20E030E040E06E
:1052700050E40F94B54F18160CF43CC70E94A23F9F
:105280006B017C0184E00E940C7D811122C0209181
:10529000170C3091180C4091190C50911A0CC70141
:1052A000B6010F94A5460F94C14E2091350E309152
:1052B000360E260F371F3093360E2093350E209171
:1052C000750E3091760E620F731F7093760E609399
:1052D000750E8091520487FD19C780915304837025
:1052E00009F014C70E94BB5419C364E071E083E560
:1052F0000F9400238C0168EE73E080E50F94002387
:105300008938F3E19F0710F088E893E1B8010E9423
:10531000F0F804C360E085E40F948927811173C01D
:1053200080E50E94D93F882351F00E94A23F6093FC
:10533000360F7093370F8093380F9093390F89E4AD
:105340000E94D93F882381F00E94A23F2CEA35ECCD
:1053500047E25EE30F94A54660933A0F70933B0FCC
:1053600080933C0F90933D0F84E40E94D93F8823A3
:1053700081F00E94A23F2CEA35EC47E25EE30F94F5
:105380004F4E60933E0F70933F0F8093400F90936A
:10539000410F0E94BB544091360F5091370F6091DE
:1053A000380F7091390F85E798E00E94BA532CEAC4
:1053B00035EC47E25EE360913A0F70913B0F8091CC
:1053C0003C0F90913D0F0F944F4EAB01BC0181E714
:1053D00098E00E94BA532CEA35EC47E25EE3609114
:1053E0003E0F70913F0F8091400F9091410F0F94AD
:1053F000A546AB01BC018DE698E00E94BA538AE055
:105400000E94E4348BC20E94EB5388E699E20E942A
:10541000025384C283E50E94D93F182F882371F07C
:105420000E94A23F0F94C14E7093400260933F02CE
:1054300021E0672B09F020E02093830680E50E949D
:10544000D93F882359F020913F0230914002232B0D
:1054500011F00E948E3F8093830660C211115EC2DC
:105460000E94BB5482E998E00E9402538091830617
:10547000882319F085EE91E202C089E798E00E9446
:10548000025360913F027091400281E898E00E94CF
:10549000CB538DE798E00E94025340C20E941660F1
:1054A0003DC28091491581110C94521E81E00E94E9
:1054B000BAA90C94521E0F94D1250E9459832EC272
:1054C00080915204867009F03CC626C60F946C2C5D
:1054D00025C26FEF7FEF89E40E942F40082F6FEF06
:1054E0007FEF8AE40E942F40182F8AE50E94224015
:1054F000811108C081E50E942240B82E882309F45A
:1055000037C601C0B12CA02E81E0800F843008F096
:1055100050C0912E81E0810F843008F04AC00E9473
:10552000A23F2B013C01F02E07FDF12C07FF02C02A
:10553000A2E0AA2E812E17FD812C17FF02C0F2E0F7
:105540009F2EAF1408F4EAC1E82C8F2D90E06C0177
:10555000CC0CDD1CC80ED91E9E1448F10E2D10E097
:10556000BB2071F0F601E00FF11FEE0FFF1FEE0FF1
:10557000FF1FED5EF94F208131814281538103C0CD
:1055800020E030E0A9010C0D1D1D000F111F000FC0
:10559000111F0D5E194FC301B2010F94554DD80173
:1055A0006D937D938D939C931397E394D5CFF39450
:1055B000C8CF0E94EB538DEE96E00E940253AEC11D
:1055C00087E00E941F7D8111A9C104E61AE1EFE680
:1055D000F2E0F9A7E8A79E012F5F3F4F19014BE8C2
:1055E000C42E4AE1D42E7901C8010F94CB25A8A579
:1055F000B9A58D909D90AD90BD90B9A7A8A7A50124
:1056000094010F94544D2B013C01F7016083718389
:105610008283938320E030E040EA51EC0F94B54F51
:1056200087FD0AC020E030E040EA51E4C301B20146
:105630000F943F4618162CF4F601849118160CF4BA
:105640009EC5D7018D909D90AD90BD907D0120E0CD
:1056500030E040EA51ECC501B4010F94B54F87FD2D
:1056600099C520E030E040EA51E4C501B4010F944F
:105670003F4618160CF0A2C58DC50E948FA54EC1DD
:105680000E94489B4BC161E083E50E943E4091E04F
:1056900089270E94A09C42C181E08093F2050E946C
:1056A0009F9F1092F205882309F438C10E94BB54D1
:1056B00082E199E00E94025331C18091D21382FFAE
:1056C00004C080648093D21329C183FF27C10F9443
:1056D000230B24C10F94EF20082F87FD1FC185E500
:1056E0000E94D93F8823B1F1E02E002E000CFF0864
:1056F0000E94A23F4B015C0120E030E0A9010F9421
:10570000B54F87FF04C0B7FAB094B7F8B094C7019B
:1057100023E0880F991F2A95E1F79C0121503A4F09
:105720007901D9018D929D92AD92BC92139720E0A0
:1057300030E849ED53E4C501B4010F94B54F181694
:105740004CF480E090E8A9EDB3E4F7018083918305
:10575000A283B3838CE40E94D93F882309F4DEC07E
:10576000002E000C110B0E94A23F6B017C0120E077
:1057700030E0A9010F94B54F87FF04C0F7FAF09409
:10578000F7F8F09420E030E849ED53E4C701B601A2
:105790000F94B54F980193E0220F331F9A95E1F7CC
:1057A000F901E150FA4F18162CF0C482D582E68236
:1057B000F782B4C080E090E8A9EDB3E484839583D8
:1057C000A683B783ABC00E942B65A8C0A0908406B7
:1057D000B0908506C0908606D09087068BE40E9424
:1057E0002240882339F10E94A23F7B018C0120E0F6
:1057F00030E0A9010F94B54F87FD0AC020E030E0EA
:1058000040E251E4B701C8010F943F461816A4F4D2
:105810008FE30E94E4348BE40E94E43485E299E053
:105820000E9402538DE199E00E9402538DE396E3BA
:105830000E940253750186019701A801B501C601B6
:105840000F943F46882361F00E9413ACC701D80132
:105850008093840690938506A0938606B09387066E
:105860008091500490915104A0915204B09153043E
:10587000892B8A2B8B2B09F051C00E94BB5440917D
:10588000840650918506609186067091870689E3AB
:1058900099E00E94BA538AE00E94E4343FC081E05C
:1058A0008093300E1092E90E60E083E50E943E4046
:1058B000811134C00E948A6431C00E9454846D33C7
:1058C00071058105910520F08CE599E00F947734FE
:1058D00088E599E00F94773484E499E00E940253BC
:1058E0008BE89AE290936C0C80936B0C17C00F942A
:1058F0003D0B14C010914D040F94BF1D6093780EA2
:105900007093790E80937A0E90937B0E112331F071
:10591000812F0E940CEC02C00F943D0BFEA9F111E7
:1059200002C00E9444642CA9209350037CC420E050
:1059300030E0A901C701B6010F943F46881F8827B0
:10594000881F181709F4A2C080E090E0A0E8BFEB20
:105950008CA79DA7AEA7BFA728A539A54AA55BA57B
:10596000C501B4010F94544D20E030E040E05FE306
:105970000F94A54668A779A78AA79BA728A939A944
:105980004AA95BA9C301B2010F94544D20E030E055
:1059900040E05FE30F94A5462B013C0128A539A503
:1059A0004AA55BA5CA01B9010F94A5464B015C014C
:1059B000A3019201C301B2010F94A5469B01AC0162
:1059C000C501B4010F94554D0F9403504B015C0178
:1059D0009B01AC01C701B6010F94544D68AB79AB84
:1059E0008AAB9BABA5019401C701B6010F94554D3D
:1059F0009B01AC0168A979A98AA99BA90F94A54626
:105A00006B017C0120E030E0A9010F94B54F87FDC8
:105A100007C0C701B6010F9403506B017C0103C09E
:105A2000C12CD12C7601C301B2019058A50194017B
:105A30000F944F4E2CA53DA54EA55FA50F94A546EE
:105A4000A70196010F94A54628A539A54AA55BA5EF
:105A50000F94554D69837A838B839C83A5019401B0
:105A600068A579A58AA59BA50F944F4E2CA53DA5A9
:105A70004EA55FA50F94A546A70196010F94A546D4
:105A8000A30192010F94554D0C94A81C80E090E066
:105A9000A0E8BFE35DCF412FBE016F5F7F4F88E37A
:105AA00095E10E94E9670F94BF1D6093780E709393
:105AB000790E80937A0E90937B0E30CF0E9413ACB8
:105AC00090913B069DAB80E00E94DD4E0F94BF1D80
:105AD0006093780E7093790E80937A0E90937B0E7C
